:100000000C942A000C94780A0C9447000C94470036
:100010000C9447000C9447000C9405090C9447007D
:100020000C9447000C94D8080C9441060C941406C8
:100030000C9447000C9447000C9447000C94470024
:100040000C9447000C9447000C9447000C94470014
:100050000C94470011241FBECFE5D8E0DEBFCDBF12
:1000600011E0A0E6B0E0E0EFF7E502C005900D92E8
:10007000AC30B107D9F711E0ACE0B1E001C01D929E
:10008000AD31B107E1F70E9496220C94F62B0C9447
:100090000000EF92FF920F931F937B018C0120E0F1
:1000A00030E040E05FE40E94490388238CF0C801FF
:1000B000B70120E030E040E05FE40E94C1010E940F
:1000C000A9039B01AC01205030404040504806C07D
:1000D000C801B7010E94A9039B01AC01B901CA0183
:1000E0001F910F91FF90EF900895A0E0B0E0EBE733
:1000F000F0E00C94BF2BDC012B01FA019C919230B3
:1001000008F439C1EB018881823008F433C194309E
:1001100069F4843009F02FC111969C91119789815F
:10012000981709F428C1ABEEB0E025C1843009F47A
:1001300021C18230A9F4923009F01DC19A01AD01AC
:1001400088E0EA010990AE01E90109929E0181501F
:10015000C1F7E201898111969C918923818308C1AD
:10016000923009F407C112962D903C901397EB0141
:100170008A819B811496AD90BD90CD90DC901797AD
:10018000EC80FD800E811F819101281B390BB90184
:1001900037FF04C066277727621B730B6032710537
:1001A0000CF061C0121613066CF537014801062EDB
:1001B00004C096948794779467940A94D2F721E0C8
:1001C00030E040E050E004C0220F331F441F551FB1
:1001D0006A95D2F721503040404050402E213F21B7
:1001E00040235123211531054105510521F021E01E
:1001F00030E040E050E079018A01E628F72808293C
:1002000019293CC0232BD1F1260E371E350146019A
:10021000062E04C096948794779467940A94D2F734
:1002200021E030E040E050E004C0220F331F441FC3
:10023000551F6A95D2F721503040404050402A2146
:100240003B214C215D21211531054105510521F04E
:1002500021E030E040E050E059016A01A628B728CB
:10026000C828D9280BC0821593052CF01C01AA249C
:10027000BB24650103C0EE24FF24870111969C91E5
:10028000D20111968C91981709F445C0992339F041
:10029000A80197012A193B094C095D0906C0A6016E
:1002A00095012E193F09400B510B57FD08C01182D3
:1002B0003382228224833583468357831DC081E0A5
:1002C00081833382228288279927DC01821B930B4A
:1002D000A40BB50B84839583A683B7830DC0220F2F
:1002E000331F441F551F24833583468357838281E0
:1002F000938101979383828324813581468157813D
:10030000DA01C9010197A109B1098F5F9F4FAF4F72
:10031000BF4328F30BC0918333822282EA0CFB1C7B
:100320000C1D1D1DE482F5820683178383E0808304
:10033000248135814681578157FF1AC0C901AA27F8
:1003400097FDA095BA2F81709070A070B0705695EF
:10035000479537952795822B932BA42BB52B848318
:100360009583A683B7838281938101969383828349
:10037000DF0101C0D201CD01CDB7DEB7E2E10C94BF
:10038000DB2BA0E2B0E0E7ECF1E00C94CB2B69832F
:100390007A838B839C832D833E834F835887E9E048
:1003A000EE2EF12CEC0EFD1ECE010196B7010E943F
:1003B000D2048E010F5E1F4FCE010596B8010E9438
:1003C000D2048A8991E089278A8BC701B801AE01DE
:1003D000475E5F4F0E9475000E94FD03A096E6E015
:1003E0000C94E72BA0E2B0E0E8EFF1E00C94CB2B0B
:1003F00069837A838B839C832D833E834F835887C5
:10040000F9E0EF2EF12CEC0EFD1ECE010196B701A6
:100410000E94D2048E010F5E1F4FCE010596B801D7
:100420000E94D204C701B801AE01475E5F4F0E942F
:1004300075000E94FD03A096E6E00C94E72BA0E275
:10044000B0E0E5E2F2E00C94BF2B69837A838B8302
:100450009C832D833E834F835887CE010196BE0136
:10046000675F7F4F0E94D204CE010596BE016F5E8A
:100470007F4F0E94D2049985923088F0898982301A
:10048000C8F0943019F4823051F404C0843029F457
:10049000923081F48BEE90E0C6C0923049F420E0B7
:1004A0009A858A89981321E02A87CE010996BBC0D4
:1004B000823049F420E09A858A89981321E02A8BBA
:1004C000CE014196B0C02D843E844F8458886D88FB
:1004D0007E888F88988CEE24FF248701AA24BB2471
:1004E000650140E050E060E070E0E0E0F0E0C10174
:1004F00081709070892BE9F0E60CF71C081D191D1E
:100500009A01AB012A0D3B1D4C1D5D1D80E090E062
:10051000A0E0B0E0E614F7040805190520F481E036
:1005200090E0A0E0B0E0BA01A901480F591F6A1F8E
:100530007B1FAA0CBB1CCC1CDD1C97FE08C081E0F5
:1005400090E0A0E0B0E0A82AB92ACA2ADB2A3196B6
:10055000E032F10549F0660C771C881C991C569412
:10056000479437942794C3CFFA85EA892B893C892D
:100570008B859C85280F391F2E5F3F4F17C0CA01FE
:1005800081709070892B61F016950795F794E79428
:1005900080E090E0A0E0B0E8E82AF92A0A2B1B2BC3
:1005A00076956795579547952F5F3F4F77FDE7CF36
:1005B0000CC0440F551F661F771F17FD4160EE0CDE
:1005C000FF1C001F111F21503040403090E05907A0
:1005D00090E0690790E4790760F32B8F3C8FDB0193
:1005E000CA018F779070A070B07080349105A1051A
:1005F000B10561F447FD0AC0E114F10401051105DC
:1006000029F0405C5F4F6F4F7F4F40781A8EFE1786
:1006100011F081E08A8F4D8F5E8F6F8F78A383E01A
:10062000898FCE0149960E94FD03A096E2E10C94C9
:10063000DB2BA8E1B0E0EFE1F3E00C94CB2B698376
:100640007A838B839C832D833E834F83588789E0F5
:10065000E82EF12CEC0EFD1ECE010196B7010E9492
:10066000D2048E010F5E1F4FCE010596B8010E9485
:10067000D2048985823040F08989823028F0C70110
:10068000B8010E944A0501C08FEF6896E6E00C941D
:10069000E72BA8E1B0E0EFE4F3E00C94CB2B698307
:1006A0007A838B839C832D833E834F83588789E095
:1006B000E82EF12CEC0EFD1ECE010196B7010E9432
:1006C000D2048E010F5E1F4FCE010596B8010E9425
:1006D000D2048985823040F08989823028F0C701B0
:1006E000B8010E944A0501C08FEF6896E6E00C94BD
:1006F000E72BA8E1B0E0EFE7F3E00C94CB2B6983A4
:100700007A838B839C832D833E834F83588789E034
:10071000E82EF12CEC0EFD1ECE010196B7010E94D1
:10072000D2048E010F5E1F4FCE010596B8010E94C4
:10073000D2048985823040F08989823028F0C7014F
:10074000B8010E944A0501C081E06896E6E00C9479
:10075000E72BACE0B0E0EFEAF3E00C94CF2B698339
:100760007A838B839C83CE010196BE016B5F7F4FA2
:100770000E94D2048D81823061F1823050F1843048
:1007800021F48E81882351F12EC02F81388537FDC9
:1007900020C06E812F3131051CF06623F9F023C093
:1007A0008EE190E0821B930B29853A854B855C8511
:1007B00004C056954795379527958A95D2F76623B5
:1007C000B1F050954095309521953F4F4F4F5F4F79
:1007D0000EC020E030E040E050E009C02FEF3FEFD6
:1007E0004FEF5FE704C020E030E040E050E8B9019F
:1007F000CA012C96E2E00C94EB2BDF92EF92FF9271
:100800000F931F93FC01E480F58006811781D1804E
:100810008081823048F480E090E0A0E1B0E0E82AF6
:10082000F92A0A2B1B2BA5C0843009F49FC0823003
:1008300021F4EE24FF24870105C0E114F104010531
:10084000110519F4E0E0F0E096C0628173819FEF3A
:10085000623879070CF05BC022E83FEF261B370BAC
:100860002A3131052CF020E030E040E050E02AC091
:10087000B801A701022E04C0769567955795479554
:100880000A94D2F781E090E0A0E0B0E004C0880FC5
:10089000991FAA1FBB1F2A95D2F70197A109B10979
:1008A0008E219F21A023B1230097A105B10521F03E
:1008B00081E090E0A0E0B0E09A01AB01282B392B59
:1008C0004A2B5B2BDA01C9018F779070A070B07052
:1008D00080349105A105B10539F427FF09C0205CDA
:1008E0003F4F4F4F5F4F04C0215C3F4F4F4F5F4F13
:1008F000E0E0F0E02030A0E03A07A0E04A07A0E402
:100900005A0710F0E1E0F0E079018A0127C0603871
:10091000710564F5FB01E158FF4FD801C7018F77DE
:100920009070A070B07080349105A105B10539F4C4
:10093000E7FE0DC080E490E0A0E0B0E004C08FE3EB
:1009400090E0A0E0B0E0E80EF91E0A1F1B1F17FFA1
:1009500005C016950795F794E794319687E01695AC
:100960000795F794E7948A95D1F705C0EE24FF2404
:100970008701EFEFF0E06E2F679566276795902F60
:100980009F77D794DD24D7948E2F8695492F462BB9
:10099000582F5D29B701CA011F910F91FF90EF9069
:1009A000DF900895FC01DB01408151812281622F9B
:1009B0006F7770E0221F2227221F9381892F880FD3
:1009C000822B282F30E0991F9927991F11969C930D
:1009D000119721153105A9F54115510561057105DD
:1009E00011F482E037C082E89FEF13969C938E93B8
:1009F00012979A01AB0167E0220F331F441F551F66
:100A00006A95D1F783E08C930DC0220F331F441FEA
:100A1000551F12968D919C911397019713969C9355
:100A20008E931297203080E0380780E0480780E4FA
:100A3000580758F314962D933D934D935C93179755
:100A400008952F3F310579F4411551056105710570
:100A500019F484E08C93089564FF03C081E08C93C3
:100A600012C01C9210C02F57304013963C932E9307
:100A7000129783E08C9387E0440F551F661F771F02
:100A80008A95D1F7706414964D935D936D937C9322
:100A9000179708951F93DC01FB019C91923008F495
:100AA00047C08081823008F443C0943051F41196DD
:100AB0001C91843099F58181682F70E0611B710968
:100AC0003FC0843021F0923031F48230B9F181811D
:100AD000882389F12DC011961C9111978230F1F075
:100AE00081811817D9F412962D913C911397828128
:100AF00093818217930794F028173907BCF0149656
:100B00008D919D910D90BC91A02D248135814681C0
:100B10005781281739074A075B0718F4112341F05A
:100B20000AC082179307A407B50740F4112319F0F0
:100B300061E070E005C06FEF7FEF02C060E070E041
:100B4000CB011F910895DF93CF93CDB7DEB7A3E517
:100B5000B0E0E3E5F0E08081887F8C93A3E5B0E02E
:100B6000E3E5F0E0808183608C93A3E5B0E0E3E50A
:100B7000F0E0808180648C93A3E5B0E0E3E5F0E0F1
:100B80008081877F8C93A3E5B0E0E3E5F0E080818E
:100B900080628C93A3E5B0E0E3E5F0E080818F7E96
:100BA0008C93CF91DF910895DF93CF930F92CDB7C0
:100BB000DEB78983E2E5F0E0898180830F90CF91F1
:100BC000DF910895DF93CF930F92CDB7DEB789837E
:100BD000ECE5F0E0898180830F90CF91DF9108955B
:100BE000DF93CF9300D0CDB7DEB79A838983898115
:100BF0009A8190931601809315010F900F90CF91D9
:100C0000DF910895DF93CF9300D0CDB7DEB79A83FD
:100C1000898389819A8190931601809315010F90A1
:100C20000F90CF91DF9108951F920F920FB60F9200
:100C300011242F933F934F935F936F937F938F93E1
:100C40009F93AF93BF93EF93FF93DF93CF93CDB772
:100C5000DEB7E0911501F09116010995CF91DF9172
:100C6000FF91EF91BF91AF919F918F917F916F9184
:100C70005F914F913F912F910F900FBE0F901F905A
:100C800018951F920F920FB60F9211242F933F9336
:100C90004F935F936F937F938F939F93AF93BF9384
:100CA000EF93FF93DF93CF93CDB7DEB7E0911501BC
:100CB000F09116010995CF91DF91FF91EF91BF91CE
:100CC000AF919F918F917F916F915F914F913F91E4
:100CD0002F910F900FBE0F901F901895DF93CF9319
:100CE000CDB7DEB7AEE4B0E0EEE4F0E08081887F1F
:100CF0008C93AEE4B0E0EEE4F0E0808182608C930F
:100D0000AEE4B0E0EEE4F0E080818F7E8C93AEE460
:100D1000B0E0EEE4F0E08081877F8C93AFE4B0E058
:100D2000EFE4F0E080818D7F8C93AFE4B0E0EFE4FE
:100D3000F0E080818E7F8C93A9E5B0E0E9E5F0E0FA
:100D4000808184608C93CF91DF910895DF93CF935E
:100D5000CDB7DEB72A970FB6F894DEBF0FBECDBF72
:100D600089836A834B832C838981282F30E03A87DB
:100D7000298789859A858230910509F456C029858D
:100D80003A852330310554F489859A85009799F086
:100D900029853A852130310559F19DC089859A858B
:100DA0008330910509F45EC029853A8524303105E8
:100DB00009F475C090C0AFE4B0E0EFE4F0E08081EA
:100DC0008E7F8C93AFE4B0E0EFE4F0E080818D7F24
:100DD0008C93AEE4B0E0EEE4F0E08081877F8C930A
:100DE000AEE4B0E0EEE4F0E080818F7E8C9373C0DF
:100DF000AFE4B0E0EFE4F0E080818E7F8C93AFE46D
:100E0000B0E0EFE4F0E080818D7F8C93AEE4B0E061
:100E1000EEE4F0E0808188608C93AEE4B0E0EEE434
:100E2000F0E0808180618C9356C0AFE4B0E0EFE4E5
:100E3000F0E080818E7F8C93AFE4B0E0EFE4F0E0EF
:100E400080818D7F8C93AEE4B0E0EEE4F0E08081B1
:100E500088608C93AEE4B0E0EEE4F0E080818F7EB9
:100E60008C9339C0AFE4B0E0EFE4F0E080818E7F96
:100E70008C93AFE4B0E0EFE4F0E0808182608C938B
:100E8000AEE4B0E0EEE4F0E0808188608C93AEE404
:100E9000B0E0EEE4F0E0808180618C931CC0AFE4B0
:100EA000B0E0EFE4F0E0808181608C93AFE4B0E0EB
:100EB000EFE4F0E0808182608C93AEE4B0E0EEE499
:100EC000F0E0808188608C93AEE4B0E0EEE4F0E086
:100ED000808180618C938B81282F30E038872F832D
:100EE0008F8198858130910521F12F8138852230BD
:100EF00031052CF48F819885009761F046C02F81D1
:100F000038852230310521F18F8198858330910514
:100F100071F13BC0AFE4B0E0EFE4F0E080818F7BA3
:100F20008C93AFE4B0E0EFE4F0E080818F778C93B6
:100F30002CC0AFE4B0E0EFE4F0E0808180648C93FB
:100F4000AFE4B0E0EFE4F0E080818F778C931DC0D8
:100F5000AFE4B0E0EFE4F0E080818F7B8C93AFE40E
:100F6000B0E0EFE4F0E0808180688C930EC0AFE4E5
:100F7000B0E0EFE4F0E0808180648C93AFE4B0E017
:100F8000EFE4F0E0808180688C938C81282F30E042
:100F90003E832D838D819E818130910521F12D81AC
:100FA0003E81223031052CF48D819E81009761F0C5
:100FB00046C02D813E812230310521F18D819E81F7
:100FC0008330910571F13BC0AFE4B0E0EFE4F0E0B5
:100FD00080818F7E8C93AFE4B0E0EFE4F0E080811D
:100FE0008F7D8C932CC0AFE4B0E0EFE4F0E0808123
:100FF00080618C93AFE4B0E0EFE4F0E080818F7D1E
:101000008C931DC0AFE4B0E0EFE4F0E080818F7E10
:101010008C93AFE4B0E0EFE4F0E0808180628C93E9
:101020000EC0AFE4B0E0EFE4F0E0808180618C932B
:10103000AFE4B0E0EFE4F0E0808180628C93AEE456
:10104000B0E0EEE4F0E08081887F8C93AEE4B0E025
:10105000EEE4F0E090818A81892B8C93E6E4F0E065
:101060008FE19EE4918380832A960FB6F894DEBFC9
:101070000FBECDBFCF91DF9108950F931F93DF93E4
:10108000CF9300D0CDB7DEB79A8389830AE410E00E
:1010900089819A81CC01A0E0B0E028EE33E040E005
:1010A00050E0BC01CD010E946A2BDC01CB0124EB96
:1010B00030E040E050E0BC01CD010E949D2BDA0100
:1010C000C90189519C4FF801918380830F900F9043
:1010D000CF91DF911F910F910895DF93CF9300D0AF
:1010E000CDB7DEB79A838983ECE4F0E089819A81F9
:1010F000918380830F900F90CF91DF910895DF93BC
:10110000CF93CDB7DEB7ECE4F0E080819181CF9151
:10111000DF910895DF93CF93CDB7DEB7E6E4F0E03B
:1011200080819181CF91DF910895DF93CF930F92CA
:10113000CDB7DEB789838981882341F4AEE4B0E07E
:10114000EEE4F0E080818F7B8C930AC0898181304E
:1011500039F4AEE4B0E0EEE4F0E0808180648C939A
:101160000F90CF91DF910895DF93CF9300D0CDB74B
:10117000DEB79A83898389819A819093180180933D
:1011800017010F900F90CF91DF910895DF93CF93C8
:1011900000D0CDB7DEB79A83898389819A819093F5
:1011A0001A01809319010F900F90CF91DF9108954C
:1011B0001F920F920FB60F9211242F933F934F93CC
:1011C0005F936F937F938F939F93AF93BF93EF93AF
:1011D000FF93DF93CF93CDB7DEB7E0911701F09186
:1011E00018010995CF91DF91FF91EF91BF91AF91D8
:1011F0009F918F917F916F915F914F913F912F912F
:101200000F900FBE0F901F9018951F920F920FB660
:101210000F9211242F933F934F935F936F937F937C
:101220008F939F93AF93BF93EF93FF93DF93CF93EE
:10123000CDB7DEB7E0911901F0911A010995CF9170
:10124000DF91FF91EF91BF91AF919F918F917F912E
:101250006F915F914F913F912F910F900FBE0F9023
:101260001F901895DF93CF93CDB7DEB7AFE5B0E011
:10127000EFE5F0E0808180688C93CF91DF91089555
:10128000DF93CF93CDB7DEB7AFE5B0E0EFE5F0E0A9
:1012900080818F778C93CF91DF910895DF93CF93E7
:1012A000CDB7DEB7A5E5B0E0E5E5F0E0808181608F
:1012B0008C93A5E5B0E0E5E5F0E0808182608C9359
:1012C000ABE5B0E0EBE5F0E0808180648C93CF91FA
:1012D000DF910895DF93CF93CDB7DEB7A5E5B0E0FA
:1012E000E5E5F0E0808184608C93A5E5B0E0E5E57C
:1012F000F0E0808188608C93ABE5B0E0EBE5F0E056
:10130000808180688C93CF91DF910895DF93CF9394
:10131000CDB7DEB7A4E5B0E0E4E5F0E0808180641D
:101320008C93ABE5B0E0EBE5F0E0808180628C93DC
:10133000CF91DF910895DF93CF9300D000D0CDB748
:10134000DEB789836A838981282F30E03C832B8331
:101350008B819C818130910509F454C02B813C81A3
:101360002230310509F496C08B819C81009709F0E9
:10137000A6C08A81882379F4A5E5B0E0E5E5F0E030
:1013800080818E7F8C93A5E5B0E0E5E5F0E080817B
:101390008D7F8C9394C08A81813079F4A5E5B0E08B
:1013A000E5E5F0E0808181608C93A5E5B0E0E5E5BE
:1013B000F0E080818D7F8C9382C08A81823079F4C5
:1013C000A5E5B0E0E5E5F0E080818E7F8C93A5E5B2
:1013D000B0E0E5E5F0E0808182608C9370C08A81A6
:1013E000833009F06CC0A5E5B0E0E5E5F0E0808170
:1013F00081608C93A5E5B0E0E5E5F0E08081826056
:101400008C935DC08A81882379F4A5E5B0E0E5E599
:10141000F0E080818B7F8C93A5E5B0E0E5E5F0E01E
:101420008081877F8C934BC08A81813079F4A5E5D8
:10143000B0E0E5E5F0E0808184608C93A5E5B0E064
:10144000E5E5F0E08081877F8C9339C08A81823026
:1014500079F4A5E5B0E0E5E5F0E080818B7F8C9341
:10146000A5E5B0E0E5E5F0E0808188608C9327C0D9
:101470008A81833021F5A5E5B0E0E5E5F0E08081E3
:1014800084608C93A5E5B0E0E5E5F0E080818860BC
:101490008C9315C08A81823041F4A4E5B0E0E4E584
:1014A000F0E080818F7B8C930AC08A81833039F48D
:1014B000A4E5B0E0E4E5F0E0808180648C930F90D7
:1014C0000F900F900F90CF91DF910895DF93CF93FE
:1014D00000D0CDB7DEB79A83898389819A819093B2
:1014E0001C0180931B010F900F90CF91DF91089505
:1014F0001F920F920FB60F9211242F933F934F9389
:101500005F936F937F938F939F93AF93BF93EF936B
:10151000FF93DF93CF93CDB7DEB7E0911B01F0913E
:101520001C010995CF91DF91FF91EF91BF91AF9190
:101530009F918F917F916F915F914F913F912F91EB
:101540000F900FBE0F901F901895DF93CF9300D090
:1015500000D000D0CDB7DEB78A836B834C8381E0A7
:1015600089838A81883008F0E8C08B81282F30E099
:101570003E832D838D819E818130910509F448C081
:101580002D813E81223031052CF48D819E81009782
:1015900071F0D1C02D813E812230310509F469C03E
:1015A0008D819E818330910509F494C0C4C08C81E3
:1015B0008130A1F4AAE3B0E0EAE3F0E08081482FB3
:1015C0008A81282F30E081E090E0022E02C0880F4F
:1015D000991F0A94E2F7842B8C93B0C08C818823E6
:1015E000A9F4AAE3B0E0EAE3F0E08081482F8A8121
:1015F000282F30E081E090E0022E02C0880F991F72
:101600000A94E2F7809584238C9398C0198296C03F
:101610008C818130A1F4A7E3B0E0E7E3F0E08081C2
:10162000482F8A81282F30E081E090E0022E02C00E
:10163000880F991F0A94E2F7842B8C937FC08C81CA
:101640008823A9F4A7E3B0E0E7E3F0E08081482F26
:101650008A81282F30E081E090E0022E02C0880FBE
:10166000991F0A94E2F7809584238C9367C01982AE
:1016700065C08C818130A1F4A4E3B0E0E4E3F0E044
:101680008081482F8A81282F30E081E090E0022E6F
:1016900002C0880F991F0A94E2F7842B8C934EC0E6
:1016A0008C818823A9F4A4E3B0E0E4E3F0E0808136
:1016B000482F8A81282F30E081E090E0022E02C07E
:1016C000880F991F0A94E2F7809584238C9336C083
:1016D000198234C08C818130A1F4A1E3B0E0E1E350
:1016E000F0E08081482F8A81282F30E081E090E06F
:1016F000022E02C0880F991F0A94E2F7842B8C9364
:101700001DC08C818823A9F4A1E3B0E0E1E3F0E0FF
:101710008081482F8A81282F30E081E090E0022EDE
:1017200002C0880F991F0A94E2F7809584238C9356
:1017300005C0198203C0198201C0198289812696C9
:101740000FB6F894DEBF0FBECDBFCF91DF910895E5
:10175000DF93CF9300D000D00F92CDB7DEB78A834E
:101760006B8381E089838B818F3F19F08B81882384
:10177000A9F58A81282F30E03D832C838C819D81BF
:1017800081309105D1F02C813D81223031052CF43E
:101790008C819D81009761F01FC02C813D8122309A
:1017A000310581F08C819D818330910581F014C0D9
:1017B000EAE3F0E08B81808312C0E7E3F0E08B8105
:1017C00080830DC0E4E3F0E08B81808308C0E1E317
:1017D000F0E08B81808303C0198201C01982898166
:1017E0000F900F900F900F900F90CF91DF91089571
:1017F000DF93CF9300D000D000D0CDB7DEB78A837F
:101800006B834C8381E089838A81883008F0E8C04B
:101810008B81282F30E03E832D838D819E81813006
:10182000910509F448C02D813E81223031052CF408
:101830008D819E81009771F0D1C02D813E81223033
:10184000310509F469C08D819E818330910509F4C9
:1018500094C0C4C08C818130A1F4ABE3B0E0EBE371
:10186000F0E08081482F8A81282F30E081E090E0ED
:10187000022E02C0880F991F0A94E2F7842B8C93E2
:10188000B0C08C818823A9F4ABE3B0E0EBE3F0E0D7
:101890008081482F8A81282F30E081E090E0022E5D
:1018A00002C0880F991F0A94E2F7809584238C93D5
:1018B00098C0198296C08C818130A1F4A8E3B0E071
:1018C000E8E3F0E08081482F8A81282F30E081E032
:1018D00090E0022E02C0880F991F0A94E2F7842B31
:1018E0008C937FC08C818823A9F4A8E3B0E0E8E35F
:1018F000F0E08081482F8A81282F30E081E090E05D
:10190000022E02C0880F991F0A94E2F78095842363
:101910008C9367C0198265C08C818130A1F4A5E3E6
:10192000B0E0E5E3F0E08081482F8A81282F30E0A5
:1019300081E090E0022E02C0880F991F0A94E2F71E
:10194000842B8C934EC08C818823A9F4A5E3B0E04E
:10195000E5E3F0E08081482F8A81282F30E081E0A4
:1019600090E0022E02C0880F991F0A94E2F780953A
:1019700084238C9336C0198234C08C818130A1F4C9
:10198000A2E3B0E0E2E3F0E08081482F8A81282FD3
:1019900030E081E090E0022E02C0880F991F0A9487
:1019A000E2F7842B8C931DC08C818823A9F4A2E3D9
:1019B000B0E0E2E3F0E08081482F8A81282F30E018
:1019C00081E090E0022E02C0880F991F0A94E2F78E
:1019D000809584238C9305C0198203C0198201C0AD
:1019E0001982898126960FB6F894DEBF0FBECDBF4F
:1019F000CF91DF910895DF93CF9300D000D00F9265
:101A0000CDB7DEB78A836B8381E089838A81282FF3
:101A100030E03D832C838C819D8181309105D1F014
:101A20002C813D81223031052CF48C819D810097E1
:101A300061F01FC02C813D812230310581F08C8105
:101A40009D818330910581F014C0EBE3F0E08B8140
:101A5000808310C0E8E3F0E08B8180830BC0E5E376
:101A6000F0E08B81808306C0E2E3F0E08B8180832D
:101A700001C0198289810F900F900F900F900F90E5
:101A8000CF91DF910895DF93CF93CDB7DEB727973E
:101A90000FB6F894DEBF0FBECDBF8A836B835D8324
:101AA0004C8381E089838A81883008F079C08C81F9
:101AB0009D818130910509F473C08B81282F30E01E
:101AC0003F832E834E815F814130510559F18E81D4
:101AD0009F818230910534F42E813F81211531059B
:101AE00069F05CC04E815F814230510579F18E8191
:101AF0009F818330910509F43DC050C0E9E3F0E0D7
:101B00008081282F30E08A81882F90E0A90102C0CF
:101B1000559547958A95E2F7CA018170EC81FD8160
:101B200080833FC0E6E3F0E08081282F30E08A81A7
:101B3000882F90E0A90102C0559547958A95E2F754
:101B4000CA018170EC81FD8180832BC0E3E3F0E06A
:101B50008081282F30E08A81882F90E0A90102C07F
:101B6000559547958A95E2F7CA018170EC81FD8110
:101B7000808317C0E0E3F0E08081282F30E08A8185
:101B8000882F90E0A90102C0559547958A95E2F704
:101B9000CA018170EC81FD81808303C0198201C07C
:101BA0001982898127960FB6F894DEBF0FBECDBF8C
:101BB000CF91DF910895DF93CF9300D000D000D074
:101BC000CDB7DEB78A836B834C8381E089838A81BA
:101BD000853008F0C9C08B81282F30E03E832D83EB
:101BE0006D817E816130710509F441C08D819E81D6
:101BF0008230910534F42D813E812115310571F03B
:101C0000B1C06D817E816230710509F459C08D814A
:101C10009E818330910509F47CC0A4C0ABE3B0E0A1
:101C2000EBE3F0E08081482F8A81282F30E08FE0BD
:101C300090E002C0880F991F2A95E2F780958423CF
:101C40008C93ABE3B0E0EBE3F0E08081482F8C8134
:101C5000282F30E08A81882F90E0B90102C0660FFA
:101C6000771F8A95E2F7CB01842B8C937EC0A8E383
:101C7000B0E0E8E3F0E08081482F8A81282F30E04F
:101C80008FE090E002C0880F991F2A95E2F78095B7
:101C900084238C93A8E3B0E0E8E3F0E08081482F50
:101CA0008C81282F30E08A81882F90E0B90102C012
:101CB000660F771F8A95E2F7CB01842B8C9355C072
:101CC000A5E3B0E0E5E3F0E08081482F8A81282F8A
:101CD00030E08FE090E002C0880F991F2A95E2F76C
:101CE000809584238C93A5E3B0E0E5E3F0E0808168
:101CF000482F8C81282F30E08A81882F90E0B9010D
:101D000002C0660F771F8A95E2F7CB01842B8C9374
:101D10002CC0A2E3B0E0E2E3F0E08081482F8A81AA
:101D2000282F30E08FE090E002C0880F991F2A959D
:101D3000E2F7809584238C93A2E3B0E0E2E3F0E045
:101D40008081482F8C81282F30E08A81882F90E075
:101D5000B90102C0660F771F8A95E2F7CB01842B89
:101D60008C9303C0198201C01982898126960FB60F
:101D7000F894DEBF0FBECDBFCF91DF910895DF9302
:101D8000CF9300D0CDB7DEB789836A8389816A811A
:101D900040E00E94A50A89816A8141E00E94F80B17
:101DA0000F900F90CF91DF910895DF93CF93CDB730
:101DB000DEB7A7E2B0E0E7E2F0E0808180648C93D8
:101DC000A7E2B0E0E7E2F0E080818F778C93A6E2B3
:101DD000B0E0E6E2F0E08081887F8C93A6E2B0E09C
:101DE000E6E2F0E0808187608C93A7E2B0E0E7E272
:101DF000F0E080818F7D8C93A6E2B0E0E6E2F0E037
:101E0000808180688C93CF91DF910895DF93CF9389
:101E10000F92CDB7DEB78983898187708983A7E266
:101E2000B0E0E7E2F0E08081807E8C93A7E2B0E052
:101E3000E7E2F0E090818981892B8C93A6E2B0E003
:101E4000E6E2F0E0808180648C93E6E2F0E080815D
:101E500082958F70882F90E0817090700097A9F321
:101E6000E4E2F0E0808191810F90CF91DF910895BD
:101E7000DF93CF9300D0CDB7DEB79A838983E98112
:101E8000FA818181E981FA819081692F0E94BF0ED8
:101E90000F900F90CF91DF910895DF93CF9300D0F3
:101EA0000F92CDB7DEB79B838A8381E08983EA8175
:101EB000FB818181EA81FB819081692F9E012F5FE7
:101EC0003F4FA9010E94430D89810F900F900F9001
:101ED000CF91DF910895DF93CF9300D0CDB7DEB7D8
:101EE0009A838983E981FA8180816FEF0E94A80B30
:101EF0000F900F90CF91DF910895DF93CF9300D093
:101F00000F92CDB7DEB79A8389836B83E981FA811B
:101F10008181813031F4E981FA8180816B810E9475
:101F2000FB0CE981FA818181882351F4E981FA81EE
:101F300020818B81982F9095822F692F0E94FB0C16
:101F40000F900F900F90CF91DF910895DF93CF9373
:101F5000CDB7DEB727970FB6F894DEBF0FBECDBF63
:101F60009A8389836B83E981FA818181813009F0C9
:101F70009BC08B81282F30E03F832E838E819F81F1
:101F80008430910509F45FC02E813F8125303105F1
:101F9000DCF48E819F818130910509F43FC02E8150
:101FA0003F81223031052CF48E819F81009779F199
:101FB00074C02E813F8122303105B9F18E819F811D
:101FC00083309105C9F169C02E813F8127303105E9
:101FD00009F44EC08E819F81883091055CF42E817A
:101FE0003F8125303105B1F18E819F818630910589
:101FF000C1F153C02E813F812830310509F43FC023
:102000008E819F818930910509F440C046C0E981E5
:10201000FA8180816FE30E94FB0CE6C0E981FA81BE
:10202000808166E00E94FB0CDFC0E981FA8180813B
:102030006BE50E94FB0CD8C0E981FA8180816FE4D6
:102040000E94FB0CD1C0E981FA81808166E60E9482
:10205000FB0CCAC0E981FA8180816DE60E94FB0C0D
:10206000C3C0E981FA8180816DE70E94FB0CBCC08E
:10207000E981FA81808167E00E94FB0CB5C0E981AB
:10208000FA8180816FE70E94FB0CAEC0E981FA8182
:1020900080816FE60E94FB0CA7C0E981FA818081F4
:1020A00069E70E94FB0CA0C0E981FA818181882345
:1020B00009F09AC08B81282F30E03D832C838C81DE
:1020C0009D818430910509F45FC02C813D812530CC
:1020D0003105DCF48C819D818130910509F43FC08C
:1020E0002C813D81223031052CF48C819D8100971B
:1020F00079F174C02C813D8122303105B9F18C8198
:102100009D8183309105C9F169C02C813D812730C3
:10211000310509F44EC08C819D81883091055CF4B5
:102120002C813D8125303105B1F18C819D81863036
:102130009105C1F153C02C813D812830310509F44E
:102140003FC08C819D818930910509F440C046C013
:10215000E981FA81808160EC0E94FB0C45C0E98135
:10216000FA81808169EF0E94FB0C3EC0E981FA810F
:10217000808164EA0E94FB0C37C0E981FA8180818A
:1021800060EB0E94FB0C30C0E981FA81808169E933
:102190000E94FB0C29C0E981FA81808162E90E94DA
:1021A000FB0C22C0E981FA81808162E80E94FB0C6D
:1021B0001BC0E981FA81808168EF0E94FB0C14C08A
:1021C000E981FA81808160E80E94FB0C0DC0E98101
:1021D000FA81808160E90E94FB0C06C0E981FA81E6
:1021E000808166E80E94FB0C27960FB6F894DEBF4C
:1021F0000FBECDBFCF91DF910895DF93CF93CDB7C1
:10220000DEB785E063E041E00E94A50A83E062E07A
:1022100042E022E00E94A606CF91DF910895DF936D
:10222000CF930F92CDB7DEB789838981853B28F4A0
:102230008981882F90E00E943D080F90CF91DF9117
:102240000895DF93CF9300D0CDB7DEB79A8389830B
:10225000E981FA818181E981FA819081692F41E0E8
:102260000E94A50A0F900F90CF91DF910895DF9300
:10227000CF9300D0CDB7DEB79A838983E981FA8105
:102280008181E981FA819081692F41E00E94F80BF8
:102290000F900F90CF91DF910895DF93CF9300D0EF
:1022A000CDB7DEB79A838983E981FA818181E9819B
:1022B000FA819081692F40E00E94F80B0F900F90F7
:1022C000CF91DF910895DF93CF9300D0CDB7DEB7E4
:1022D0009A83898380910C01882371F4E981FA81C2
:1022E0008181E981FA819081692F41E00E94F80B98
:1022F00081E080930C010CC0E981FA818181E98140
:10230000FA819081692F40E00E94F80B10920C0135
:102310000F900F90CF91DF910895DF93CF93CDB7BA
:10232000DEB783E062E040E00E94A50A82E062E05E
:1023300040E00E94A50A81E062E040E00E94A50A18
:1023400080E062E040E00E94A50A84E062E041E0B3
:102350000E94A50A85E062E041E00E94A50A86E0AD
:1023600062E041E00E94A50A87E062E041E00E944D
:10237000A50A83E062E041E00E94F80B82E062E09F
:1023800041E00E94F80B81E062E041E00E94F80B1E
:1023900080E062E041E00E94F80B84E062E041E00E
:1023A0000E94F80B85E062E041E00E94F80B86E0B5
:1023B00062E041E00E94F80B87E062E041E00E94A9
:1023C000F80BCF91DF910895DF93CF93CDB7DEB7B0
:1023D00063970FB6F894DEBF0FBECDBF8FEF8F8728
:1023E00084E0888BB5C0888962E040E00E94F80BE9
:1023F000198AA2C09E012E5E3F4F898962E0A90121
:102400000E94430D8A89882309F093C08889882F08
:1024100090E0AC01445050408989282F30E0CA0137
:10242000880F991F880F991F820F931FFC01E4509A
:10243000FF4F80818F8708C09E012E5E3F4F8989A4
:1024400062E0A9010E94430D8A898823A9F380E0F4
:1024500090E0A0EAB1E48B879C87AD87BE876B854F
:102460007C858D859E8520E030E04AEF54E40E9413
:102470001F02DC01CB018F839887A987BA876F8100
:10248000788589859A8520E030E040E85FE30E9406
:10249000790388232CF481E090E09E838D833FC0F4
:1024A0006F81788589859A8520E03FEF4FE757E473
:1024B0000E94190318164CF56B857C858D859E85C9
:1024C00020E030E040E251E40E941F02DC01CB0139
:1024D000BC01CD010E944900DC01CB019E838D83AC
:1024E0000FC088EC90E09C838B838B819C8101974B
:1024F000F1F79C838B838D819E8101979E838D83D1
:102500008D819E81009769F714C06F8178858985D8
:102510009A850E944900DC01CB019E838D838D81C9
:102520009E819A83898389819A810197F1F79A83A1
:10253000898389898F5F898B8989843008F45ACF90
:10254000888962E041E00E94F80B88898F5F888B60
:102550008889883008F447CF8F858F3F21F08F8599
:102560008B8B8B8900C063960FB6F894DEBF0FBECD
:10257000CDBFCF91DF910895DF93CF9300D0CDB73A
:10258000DEB79A838983E981FA818181E981FA81C1
:102590009081692F41E00E94A50A0F900F90CF9182
:1025A000DF910895DF93CF9300D0CDB7DEB79A8344
:1025B0008983E981FA818181E981FA819081692F9A
:1025C00041E00E94F80B0F900F90CF91DF9108959A
:1025D000DF93CF9300D0CDB7DEB79A838983E981AB
:1025E000FA818181E981FA819081692F40E00E941E
:1025F000F80B0F900F90CF91DF910895DF93CF9359
:10260000CDB7DEB76D970FB6F894DEBF0FBECDBF66
:102610008D8F80E061E040E00E94F80B81E061E096
:1026200040E00E94F80B81E06D8D0E94FB0C82E07F
:1026300061E041E00E94F80B80E090E0A0E0B0E4AF
:10264000898F9A8FAB8FBC8F698D7A8D8B8D9C8D86
:1026500020E030E04AEF54E40E941F02DC01CB018D
:102660008D8B9E8BAF8BB88F6D897E898F89988D6E
:1026700020E030E040E85FE30E94790388232CF4F7
:1026800081E090E09C8B8B8B3FC06D897E898F8928
:10269000988D20E03FEF4FE757E40E94190318168A
:1026A0004CF5698D7A8D8B8D9C8D20E030E040E279
:1026B00051E40E941F02DC01CB01BC01CD010E944C
:1026C0004900DC01CB019C8B8B8B0FC088EC90E028
:1026D0009A8B898B89899A890197F1F79A8B898BD3
:1026E0008B899C8901979C8B8B8B8B899C8900970C
:1026F00069F714C06D897E898F89988D0E94490081
:10270000DC01CB019C8B8B8B8B899C89988B8F8771
:102710008F8598890197F1F7988B8F8782E061E028
:1027200040E00E94F80B80E090E0A0E0B0E48B87EE
:102730009C87AD87BE876B857C858D859E8520E0D7
:1027400030E04AEF54E40E941F02DC01CB018F838A
:102750009887A987BA876F81788589859A8520E0CF
:1027600030E040E85FE30E94790388232CF481E0A5
:1027700090E09E838D833FC06F81788589859A859F
:1027800020E03FEF4FE757E40E94190318164CF57D
:102790006B857C858D859E8520E030E040E251E4AC
:1027A0000E941F02DC01CB01BC01CD010E94490047
:1027B000DC01CB019E838D830FC088EC90E09C836D
:1027C0008B838B819C810197F1F79C838B838D8117
:1027D0009E8101979E838D838D819E81009769F7ED
:1027E00014C06F81788589859A850E944900DC0133
:1027F000CB019E838D838D819E819A83898389817C
:102800009A810197F1F79A83898382E061E041E040
:102810000E94F80B6D960FB6F894DEBF0FBECDBFC9
:10282000CF91DF910895DF93CF93CDB7DEB7E897CF
:102830000FB6F894DEBF0FBECDBF81E06FEF0E94F0
:10284000A80B80E061E041E00E94A50A81E061E020
:1028500041E00E94A50A82E061E041E00E94A50AF1
:1028600080E090E0A0EFB1E48DAB9EABAFABB8AF32
:102870006DA97EA98FA998AD20E030E04AEF54E41D
:102880000E941F02DC01CB0189AB9AABABABBCABA6
:1028900069A97AA98BA99CA920E030E040E85FE310
:1028A0000E94790388232CF481E090E098AB8FA7F5
:1028B0003FC069A97AA98BA99CA920E03FEF4FE707
:1028C00057E40E94190318164CF56DA97EA98FA92B
:1028D00098AD20E030E040E251E40E941F02DC01AC
:1028E000CB01BC01CD010E944900DC01CB0198ABBA
:1028F0008FA70FC088EC90E09EA78DA78DA59EA501
:102900000197F1F79EA78DA78FA598A9019798AB7E
:102910008FA78FA598A9009769F714C069A97AA90C
:102920008BA99CA90E944900DC01CB0198AB8FA721
:102930008FA598A99CA78BA78BA59CA50197F1F7BC
:102940009CA78BA788E20E94FE1280E090E0A0E89E
:10295000BFE38FA398A7A9A7BAA76FA178A589A558
:102960009AA520E030E04AEF54E40E941F02DC0107
:10297000CB018BA39CA3ADA3BEA36BA17CA18DA116
:102980009EA120E030E040E85FE30E9479038823C5
:102990002CF481E090E09AA389A33FC06BA17CA1B5
:1029A0008DA19EA120E03FEF4FE757E40E9419035D
:1029B00018164CF56FA178A589A59AA520E030E0FE
:1029C00040E251E40E941F02DC01CB01BC01CD01B9
:1029D0000E944900DC01CB019AA389A30FC088ECB7
:1029E00090E098A38F8F8F8D98A10197F1F798A30E
:1029F0008F8F89A19AA101979AA389A389A19AA1EE
:102A0000009769F714C06BA17CA18DA19EA10E94C3
:102A10004900DC01CB019AA389A389A19AA19E8FC9
:102A20008D8F8D8D9E8D0197F1F79E8F8D8F8CE010
:102A30000E94FE1280E090E0A0E8BFE3898F9A8FA9
:102A4000AB8FBC8F698D7A8D8B8D9C8D20E030E0B3
:102A50004AEF54E40E941F02DC01CB018D8B9E8B58
:102A6000AF8BB88F6D897E898F89988D20E030E09B
:102A700040E85FE30E94790388232CF481E090E032
:102A80009C8B8B8B3FC06D897E898F89988D20E0D0
:102A90003FEF4FE757E40E94190318164CF5698D74
:102AA0007A8D8B8D9C8D20E030E040E251E40E94D5
:102AB0001F02DC01CB01BC01CD010E944900DC01F9
:102AC000CB019C8B8B8B0FC088EC90E09A8B898B11
:102AD00089899A890197F1F79A8B898B8B899C89CF
:102AE00001979C8B8B8B8B899C89009769F714C00D
:102AF0006D897E898F89988D0E944900DC01CB0108
:102B00009C8B8B8B8B899C89988B8F878F859889E1
:102B10000197F1F7988B8F8781E00E94FE1280E089
:102B200090E0A0E0B0E48B879C87AD87BE876B8583
:102B30007C858D859E8520E030E04AEF54E40E943C
:102B40001F02DC01CB018F839887A987BA876F8129
:102B5000788589859A8520E030E040E85FE30E942F
:102B6000790388232CF481E090E09E838D833FC01D
:102B70006F81788589859A8520E03FEF4FE757E49C
:102B80000E94190318164CF56B857C858D859E85F2
:102B900020E030E040E251E40E941F02DC01CB0162
:102BA000BC01CD010E944900DC01CB019E838D83D5
:102BB0000FC088EC90E09C838B838B819C81019774
:102BC000F1F79C838B838D819E8101979E838D83FA
:102BD0008D819E81009769F714C06F817885898502
:102BE0009A850E944900DC01CB019E838D838D81F3
:102BF0009E819A83898389819A810197F1F79A83CB
:102C0000898386E00E94FE12E8960FB6F894DEBF34
:102C10000FBECDBFCF91DF910895DF93CF93CDB796
:102C2000DEB76D970FB6F894DEBF0FBECDBF8D8FA8
:102C300080E061E041E00E94F80B81E061E040E06B
:102C40000E94F80B81E06D8D0E94FB0C82E061E038
:102C500041E00E94F80B80E090E0A0E0B0E4898FB2
:102C60009A8FAB8FBC8F698D7A8D8B8D9C8D20E078
:102C700030E04AEF54E40E941F02DC01CB018D8B4F
:102C80009E8BAF8BB88F6D897E898F89988D20E060
:102C900030E040E85FE30E94790388232CF481E070
:102CA00090E09C8B8B8B3FC06D897E898F89988D3E
:102CB00020E03FEF4FE757E40E94190318164CF548
:102CC000698D7A8D8B8D9C8D20E030E040E251E45F
:102CD0000E941F02DC01CB01BC01CD010E94490012
:102CE000DC01CB019C8B8B8B0FC088EC90E09A8B26
:102CF000898B89899A890197F1F79A8B898B8B89BE
:102D00009C8901979C8B8B8B8B899C89009769F799
:102D100014C06D897E898F89988D0E944900DC01DD
:102D2000CB019C8B8B8B8B899C89988B8F878F8514
:102D300098890197F1F7988B8F8782E061E040E0F6
:102D40000E94F80B80E090E0A0E0B0E48B879C87C5
:102D5000AD87BE876B857C858D859E8520E030E0C4
:102D60004AEF54E40E941F02DC01CB018F83988755
:102D7000A987BA876F81788589859A8520E030E0B8
:102D800040E85FE30E94790388232CF481E090E01F
:102D90009E838D833FC06F81788589859A8520E0E9
:102DA0003FEF4FE757E40E94190318164CF56B8567
:102DB0007C858D859E8520E030E040E251E40E94D4
:102DC0001F02DC01CB01BC01CD010E944900DC01E6
:102DD000CB019E838D830FC088EC90E09C838B8316
:102DE0008B819C810197F1F79C838B838D819E81E0
:102DF00001979E838D838D819E81009769F714C012
:102E00006F81788589859A850E944900DC01CB0114
:102E10009E838D838D819E819A83898389819A8106
:102E20000197F1F79A83898382E061E041E00E9493
:102E3000F80B6D960FB6F894DEBF0FBECDBFCF91E5
:102E4000DF910895DF93CF9300D00F92CDB7DEB717
:102E50009B838A8319820EC08981282F30E08A8162
:102E60009B81FC01E20FF31F80810E940D16898176
:102E70008F5F89838981282F30E08A819B81FC01C3
:102E8000E20FF31F8081882339F70F900F900F9086
:102E9000CF91DF9108950F931F93DF93CF93CDB719
:102EA000DEB760970FB6F894DEBF0FBECDBF6D875B
:102EB0007E878F87988B1A828D859E85AF85B8898E
:102EC0000097A105B10509F44FC02DC08A81082FD4
:102ED00010E08D859E85AF85B8892AE030E040E01E
:102EE00050E0BC01CD010E949D2BDC01CB01282FBD
:102EF000CE010396FC01E00FF11F20838D859E8596
:102F0000AF85B8892AE030E040E050E0BC01CD0157
:102F10000E949D2BDA01C9018D879E87AF87B88BF0
:102F20008A818F5F8A838D859E85AF85B88900975A
:102F3000A105B10559F68A818150898311C0898123
:102F4000282F332727FD3095CE010396FC01E20F91
:102F5000F31F8081805D0E940D16898181508983D5
:102F60008981882364F703C080E30E940D16609670
:102F70000FB6F894DEBF0FBECDBFCF91DF911F918A
:102F80000F910895DF93CF9300D0CDB7DEB789833B
:102F90006A838981813041F48A81803128F48A8171
:102FA00080580E94FE120AC08981823039F48A81D9
:102FB000803120F48A8180540E94FE120F900F907D
:102FC000CF91DF910895DF93CF9300D000D0CDB79C
:102FD000DEB78A837C836B838A818830F8F48A81A8
:102FE000882F90E00896880F991F880F991F880FE7
:102FF000991F0E94FE1219820EC08981282F30E08D
:103000008B819C81FC01E20FF31F80810E940D16D1
:1030100089818F5F89838981883078F30F900F9041
:103020000F900F90CF91DF910895DF93CF93CDB79D
:10303000DEB72E970FB6F894DEBF0FBECDBF81E08E
:103040000E94FE1280E090E0A0E0B0E48B879C87B5
:10305000AD87BE876B857C858D859E8520E030E0C1
:103060004AEF54E40E941F02DC01CB018F83988752
:10307000A987BA876F81788589859A8520E030E0B5
:1030800040E85FE30E94790388232CF481E090E01C
:103090009E838D833FC06F81788589859A8520E0E6
:1030A0003FEF4FE757E40E94190318164CF56B8564
:1030B0007C858D859E8520E030E040E251E40E94D1
:1030C0001F02DC01CB01BC01CD010E944900DC01E3
:1030D000CB019E838D830FC088EC90E09C838B8313
:1030E0008B819C810197F1F79C838B838D819E81DD
:1030F00001979E838D838D819E81009769F714C00F
:103100006F81788589859A850E944900DC01CB0111
:103110009E838D838D819E819A83898389819A8103
:103120000197F1F79A8389832E960FB6F894DEBF44
:103130000FBECDBFCF91DF910895DF93CF93CDB771
:10314000DEB760970FB6F894DEBF0FBECDBF888B99
:103150001F8678C088E10E94FE1280E090E0A6E918
:10316000B3E48B879C87AD87BE876B857C858D8517
:103170009E8520E030E04AEF54E40E941F02DC010B
:10318000CB018F839887A987BA876F8178858985D6
:103190009A8520E030E040E85FE30E9479038823CD
:1031A0002CF481E090E09E838D833FC06F81788511
:1031B00089859A8520E03FEF4FE757E40E94190385
:1031C00018164CF56B857C858D859E8520E030E05A
:1031D00040E251E40E941F02DC01CB01BC01CD01A1
:1031E0000E944900DC01CB019E838D830FC088ECD7
:1031F00090E09C838B838B819C810197F1F79C836A
:103200008B838D819E8101979E838D838D819E818D
:10321000009769F714C06F81788589859A850E9427
:103220004900DC01CB019E838D838D819E819A8331
:10323000898389819A810197F1F79A8389838F85A0
:103240008F5F8F879F858889981708F483CF609652
:103250000FB6F894DEBF0FBECDBFCF91DF910895BA
:10326000DF93CF93CDB7DEB760970FB6F894DEBF8C
:103270000FBECDBF888B1F8678C08CE10E94FE12E6
:1032800080E090E0A6E9B3E48B879C87AD87BE879A
:103290006B857C858D859E8520E030E04AEF54E487
:1032A0000E941F02DC01CB018F839887A987BA8710
:1032B0006F81788589859A8520E030E040E85FE37A
:1032C0000E94790388232CF481E090E09E838D8313
:1032D0003FC06F81788589859A8520E03FEF4FE771
:1032E00057E40E94190318164CF56B857C858D8573
:1032F0009E8520E030E040E251E40E941F02DC01A4
:10330000CB01BC01CD010E944900DC01CB019E83B1
:103310008D830FC088EC90E09C838B838B819C8194
:103320000197F1F79C838B838D819E8101979E830A
:103330008D838D819E81009769F714C06F81788598
:1033400089859A850E944900DC01CB019E838D838B
:103350008D819E819A83898389819A810197F1F772
:103360009A8389838F858F5F8F879F858889981738
:1033700008F483CF60960FB6F894DEBF0FBECDBFC2
:10338000CF91DF910895DF93CF93CDB7DEB76097EC
:103390000FB6F894DEBF0FBECDBF888B1F8678C0F6
:1033A00080E10E94FE1280E090E0A6E9B3E48B8702
:1033B0009C87AD87BE876B857C858D859E8520E04B
:1033C00030E04AEF54E40E941F02DC01CB018F83FE
:1033D0009887A987BA876F81788589859A8520E043
:1033E00030E040E85FE30E94790388232CF481E019
:1033F00090E09E838D833FC06F81788589859A8513
:1034000020E03FEF4FE757E40E94190318164CF5F0
:103410006B857C858D859E8520E030E040E251E41F
:103420000E941F02DC01CB01BC01CD010E944900BA
:10343000DC01CB019E838D830FC088EC90E09C83E0
:103440008B838B819C810197F1F79C838B838D818A
:103450009E8101979E838D838D819E81009769F760
:1034600014C06F81788589859A850E944900DC01A6
:10347000CB019E838D838D819E819A8389838981EF
:103480009A810197F1F79A8389838F858F5F8F8760
:103490009F858889981708F483CF60960FB6F894B3
:1034A000DEBF0FBECDBFCF91DF910895DF93CF93E5
:1034B000CDB7DEB760970FB6F894DEBF0FBECDBFB5
:1034C000888B1F8678C084E10E94FE1280E090E025
:1034D000A6E9B3E48B879C87AD87BE876B857C8527
:1034E0008D859E8520E030E04AEF54E40E941F0263
:1034F000DC01CB018F839887A987BA876F81788594
:1035000089859A8520E030E040E85FE30E947903F6
:1035100088232CF481E090E09E838D833FC06F81EF
:10352000788589859A8520E03FEF4FE757E40E9430
:10353000190318164CF56B857C858D859E8520E0DA
:1035400030E040E251E40E941F02DC01CB01BC01EB
:10355000CD010E944900DC01CB019E838D830FC009
:1035600088EC90E09C838B838B819C810197F1F7A1
:103570009C838B838D819E8101979E838D838D811A
:103580009E81009769F714C06F81788589859A8537
:103590000E944900DC01CB019E838D838D819E8139
:1035A0009A83898389819A810197F1F79A83898324
:1035B0008F858F5F8F879F858889981708F483CFC1
:1035C00060960FB6F894DEBF0FBECDBFCF91DF91EE
:1035D0000895DF93CF93CDB7DEB72F970FB6F8944A
:1035E000DEBF0FBECDBF8F8780E061E040E00E946C
:1035F000F80B81E061E040E00E94F80B84E061E0BC
:103600004F850E94DB0D82E061E041E00E94F80BF3
:1036100080E090E0A0E0B0E48B879C87AD87BE8718
:103620006B857C858D859E8520E030E04AEF54E4F3
:103630000E941F02DC01CB018F839887A987BA877C
:103640006F81788589859A8520E030E040E85FE3E6
:103650000E94790388232CF481E090E09E838D837F
:103660003FC06F81788589859A8520E03FEF4FE7DD
:1036700057E40E94190318164CF56B857C858D85DF
:103680009E8520E030E040E251E40E941F02DC0110
:10369000CB01BC01CD010E944900DC01CB019E831E
:1036A0008D830FC088EC90E09C838B838B819C8101
:1036B0000197F1F79C838B838D819E8101979E8377
:1036C0008D838D819E81009769F714C06F81788505
:1036D00089859A850E944900DC01CB019E838D83F8
:1036E0008D819E819A83898389819A810197F1F7DF
:1036F0009A83898382E061E040E00E94F80B2F9674
:103700000FB6F894DEBF0FBECDBFCF91DF91089505
:10371000DF93CF93CDB7DEB7E9970FB6F894DEBF4E
:103720000FBECDBF87E089AF08C089AD61E041E041
:103730000E94A50A89AD815089AF89AD8430ACF76C
:1037400080E061E041E00E94A50A81E061E041E0A3
:103750000E94A50A82E061E041E00E94A50A80E0A3
:1037600090E0A0EFB1E48DAB9EABAFABB8AF6DA96D
:103770007EA98FA998AD20E030E04AEF54E40E9482
:103780001F02DC01CB0189AB9AABABABBCAB69A927
:103790007AA98BA99CA920E030E040E85FE30E9471
:1037A000790388232CF481E090E098AB8FA73FC089
:1037B00069A97AA98BA99CA920E03FEF4FE757E4BC
:1037C0000E94190318164CF56DA97EA98FA998AD12
:1037D00020E030E040E251E40E941F02DC01CB0116
:1037E000BC01CD010E944900DC01CB0198AB8FA741
:1037F0000FC088EC90E09EA78DA78DA59EA5019790
:10380000F1F79EA78DA78FA598A9019798AB8FA7D1
:103810008FA598A9009769F714C069A97AA98BA9FF
:103820009CA90E944900DC01CB0198AB8FA78FA512
:1038300098A99CA78BA78BA59CA50197F1F79CA79E
:103840008BA782E00E94E91A82E00E94E91A88E2CE
:103850000E94E91A80E090E0A0E8BFE38FA398A758
:10386000A9A7BAA76FA178A589A59AA520E030E0FD
:103870004AEF54E40E941F02DC01CB018BA39CA3FE
:10388000ADA3BEA36BA17CA18DA19EA120E030E0E1
:1038900040E85FE30E94790388232CF481E090E004
:1038A0009AA389A33FC06BA17CA18DA19EA120E01A
:1038B0003FEF4FE757E40E94190318164CF56FA12C
:1038C00078A589A59AA520E030E040E251E40E9465
:1038D0001F02DC01CB01BC01CD010E944900DC01CB
:1038E000CB019AA389A30FC088EC90E098A38F8F97
:1038F0008F8D98A10197F1F798A38F8F89A19AA135
:1039000001979AA389A389A19AA1009769F714C086
:103910006BA17CA18DA19EA10E944900DC01CB017D
:103920009AA389A389A19AA19E8F8D8F8D8D9E8D3B
:103930000197F1F79E8F8D8F80E00E94E91A8CE04D
:103940000E94E91A80E090E0A0E8BFE3898F9A8F97
:10395000AB8FBC8F698D7A8D8B8D9C8D20E030E094
:103960004AEF54E40E941F02DC01CB018D8B9E8B39
:10397000AF8BB88F6D897E898F89988D20E030E07C
:1039800040E85FE30E94790388232CF481E090E013
:103990009C8B8B8B3FC06D897E898F89988D20E0B1
:1039A0003FEF4FE757E40E94190318164CF5698D55
:1039B0007A8D8B8D9C8D20E030E040E251E40E94B6
:1039C0001F02DC01CB01BC01CD010E944900DC01DA
:1039D000CB019C8B8B8B0FC088EC90E09A8B898BF2
:1039E00089899A890197F1F79A8B898B8B899C89B0
:1039F00001979C8B8B8B8B899C89009769F714C0EE
:103A00006D897E898F89988D0E944900DC01CB01E8
:103A10009C8B8B8B8B899C89988B8F878F859889C2
:103A20000197F1F7988B8F8780E00E94E91A81E077
:103A30000E94E91A80E090E0A0E0B0E48B879C87C8
:103A4000AD87BE876B857C858D859E8520E030E0C7
:103A50004AEF54E40E941F02DC01CB018F83988758
:103A6000A987BA876F81788589859A8520E030E0BB
:103A700040E85FE30E94790388232CF481E090E022
:103A80009E838D833FC06F81788589859A8520E0EC
:103A90003FEF4FE757E40E94190318164CF56B856A
:103AA0007C858D859E8520E030E040E251E40E94D7
:103AB0001F02DC01CB01BC01CD010E944900DC01E9
:103AC000CB019E838D830FC088EC90E09C838B8319
:103AD0008B819C810197F1F79C838B838D819E81E3
:103AE00001979E838D838D819E81009769F714C015
:103AF0006F81788589859A850E944900DC01CB0118
:103B00009E838D838D819E819A83898389819A8109
:103B10000197F1F79A83898380E00E94E91A86E091
:103B20000E94E91AE9960FB6F894DEBF0FBECDBF2A
:103B3000CF91DF910895DF93CF93CDB7DEB72F9765
:103B40000FB6F894DEBF0FBECDBF8F8780E061E077
:103B500041E00E94F80B81E061E040E00E94F80B38
:103B600084E061E04F850E94DB0D82E061E041E08E
:103B70000E94F80B80E090E0A0E0B0E48B879C8787
:103B8000AD87BE876B857C858D859E8520E030E086
:103B90004AEF54E40E941F02DC01CB018F83988717
:103BA000A987BA876F81788589859A8520E030E07A
:103BB00040E85FE30E94790388232CF481E090E0E1
:103BC0009E838D833FC06F81788589859A8520E0AB
:103BD0003FEF4FE757E40E94190318164CF56B8529
:103BE0007C858D859E8520E030E040E251E40E9496
:103BF0001F02DC01CB01BC01CD010E944900DC01A8
:103C0000CB019E838D830FC088EC90E09C838B83D7
:103C10008B819C810197F1F79C838B838D819E81A1
:103C200001979E838D838D819E81009769F714C0D3
:103C30006F81788589859A850E944900DC01CB01D6
:103C40009E838D838D819E819A83898389819A81C8
:103C50000197F1F79A83898382E061E040E00E9456
:103C6000F80B2F960FB6F894DEBF0FBECDBFCF91E5
:103C7000DF910895DF93CF930F92CDB7DEB789839D
:103C8000898182958F700E949B1D89810E949B1D56
:103C90000F90CF91DF910895DF93CF9300D00F92D3
:103CA000CDB7DEB79B838A8319820EC08981282F06
:103CB00030E08A819B81FC01E20FF31F80810E942A
:103CC0003A1E89818F5F89838981282F30E08A811C
:103CD0009B81FC01E20FF31F8081882339F70F904D
:103CE0000F900F90CF91DF9108950F931F93DF9363
:103CF000CF93CDB7DEB760970FB6F894DEBF0FBE97
:103D0000CDBF6D877E878F87988B1A828D859E8524
:103D1000AF85B8890097A105B10509F44FC02DC042
:103D20008A81082F10E08D859E85AF85B8892AE0AD
:103D300030E040E050E0BC01CD010E949D2BDC0151
:103D4000CB01282FCE010396FC01E00FF11F208349
:103D50008D859E85AF85B8892AE030E040E050E04F
:103D6000BC01CD010E949D2BDA01C9018D879E8780
:103D7000AF87B88B8A818F5F8A838D859E85AF855B
:103D8000B8890097A105B10559F68A8181508983C8
:103D900011C08981282F332727FD3095CE01039646
:103DA000FC01E20FF31F8081805D0E943A1E898131
:103DB000815089838981882364F703C080E30E944E
:103DC0003A1E60960FB6F894DEBF0FBECDBFCF91FE
:103DD000DF911F910F910895DF93CF9300D0CDB75E
:103DE000DEB789836A8389818130B9F48A81803121
:103DF000A0F48A81882F90E080589F4F95958795F1
:103E00009595879595958795959587950E94E91A3B
:103E10008A8180580E94E91A19C089818230B1F4E0
:103E20008A81803198F48A81882F90E080549F4F56
:103E3000959587959595879595958795959587956A
:103E40000E94E91A8A8180540E94E91A0F900F900B
:103E5000CF91DF910895DF93CF9300D000D0CDB7FD
:103E6000DEB78A837C836B838A81883098F58A8168
:103E7000882F90E00896880F991F880F991F880F48
:103E8000991F95958795959587959595879595957E
:103E900087950E94E91A8A81882F90E00896880FFA
:103EA000991F880F991F880F991F0E94E91A19827C
:103EB0000EC08981282F30E08B819C81FC01E20FAC
:103EC000F31F80810E943A1E89818F5F89838981D7
:103ED000883078F30F900F900F900F90CF91DF9173
:103EE0000895DF93CF93CDB7DEB72E970FB6F89432
:103EF000DEBF0FBECDBF80E00E94E91A81E00E94C4
:103F0000E91A80E090E0A0E0B0E48B879C87AD8761
:103F1000BE876B857C858D859E8520E030E04AEFED
:103F200054E40E941F02DC01CB018F839887A9878C
:103F3000BA876F81788589859A8520E030E040E8EE
:103F40005FE30E94790388232CF481E090E09E8354
:103F50008D833FC06F81788589859A8520E03FEF0A
:103F60004FE757E40E94190318164CF56B857C85C2
:103F70008D859E8520E030E040E251E40E941F02E2
:103F8000DC01CB01BC01CD010E944900DC01CB0169
:103F90009E838D830FC088EC90E09C838B838B8104
:103FA0009C810197F1F79C838B838D819E81019782
:103FB0009E838D838D819E81009769F714C06F81E8
:103FC000788589859A850E944900DC01CB019E8312
:103FD0008D838D819E819A83898389819A810197BE
:103FE000F1F79A8389832E960FB6F894DEBF0FBE41
:103FF000CDBFCF91DF910895DF93CF93CDB7DEB7DB
:1040000060970FB6F894DEBF0FBECDBF888B1F86BA
:104010007BC081E00E94E91A88E10E94E91A80E0F1
:1040200090E0A6E9B3E48B879C87AD87BE876B855C
:104030007C858D859E8520E030E04AEF54E40E9427
:104040001F02DC01CB018F839887A987BA876F8114
:10405000788589859A8520E030E040E85FE30E941A
:10406000790388232CF481E090E09E838D833FC008
:104070006F81788589859A8520E03FEF4FE757E487
:104080000E94190318164CF56B857C858D859E85DD
:1040900020E030E040E251E40E941F02DC01CB014D
:1040A000BC01CD010E944900DC01CB019E838D83C0
:1040B0000FC088EC90E09C838B838B819C8101975F
:1040C000F1F79C838B838D819E8101979E838D83E5
:1040D0008D819E81009769F714C06F8178858985ED
:1040E0009A850E944900DC01CB019E838D838D81DE
:1040F0009E819A83898389819A810197F1F79A83B6
:1041000089838F858F5F8F879F858889981708F4AB
:1041100080CF60960FB6F894DEBF0FBECDBFCF91B3
:10412000DF910895DF93CF93CDB7DEB760970FB6D9
:10413000F894DEBF0FBECDBF888B1F867BC081E0A9
:104140000E94E91A8CE10E94E91A80E090E0A6E959
:10415000B3E48B879C87AD87BE876B857C858D8517
:104160009E8520E030E04AEF54E40E941F02DC010B
:10417000CB018F839887A987BA876F8178858985D6
:104180009A8520E030E040E85FE30E9479038823CD
:104190002CF481E090E09E838D833FC06F81788511
:1041A00089859A8520E03FEF4FE757E40E94190385
:1041B00018164CF56B857C858D859E8520E030E05A
:1041C00040E251E40E941F02DC01CB01BC01CD01A1
:1041D0000E944900DC01CB019E838D830FC088ECD7
:1041E00090E09C838B838B819C810197F1F79C836A
:1041F0008B838D819E8101979E838D838D819E818E
:10420000009769F714C06F81788589859A850E9427
:104210004900DC01CB019E838D838D819E819A8331
:10422000898389819A810197F1F79A8389838F85A0
:104230008F5F8F879F858889981708F480CF609655
:104240000FB6F894DEBF0FBECDBFCF91DF910895BA
:10425000DF93CF93CDB7DEB760970FB6F894DEBF8C
:104260000FBECDBF888B1F867BC081E00E94E91AFC
:1042700080E10E94E91A80E090E0A6E9B3E48B8730
:104280009C87AD87BE876B857C858D859E8520E06C
:1042900030E04AEF54E40E941F02DC01CB018F831F
:1042A0009887A987BA876F81788589859A8520E064
:1042B00030E040E85FE30E94790388232CF481E03A
:1042C00090E09E838D833FC06F81788589859A8534
:1042D00020E03FEF4FE757E40E94190318164CF512
:1042E0006B857C858D859E8520E030E040E251E441
:1042F0000E941F02DC01CB01BC01CD010E944900DC
:10430000DC01CB019E838D830FC088EC90E09C8301
:104310008B838B819C810197F1F79C838B838D81AB
:104320009E8101979E838D838D819E81009769F781
:1043300014C06F81788589859A850E944900DC01C7
:10434000CB019E838D838D819E819A838983898110
:104350009A810197F1F79A8389838F858F5F8F8781
:104360009F858889981708F480CF60960FB6F894D7
:10437000DEBF0FBECDBFCF91DF910895DF93CF9306
:10438000CDB7DEB760970FB6F894DEBF0FBECDBFD6
:10439000888B1F867BC081E00E94E91A84E10E941D
:1043A000E91A80E090E0A6E9B3E48B879C87AD87AB
:1043B000BE876B857C858D859E8520E030E04AEF49
:1043C00054E40E941F02DC01CB018F839887A987E8
:1043D000BA876F81788589859A8520E030E040E84A
:1043E0005FE30E94790388232CF481E090E09E83B0
:1043F0008D833FC06F81788589859A8520E03FEF66
:104400004FE757E40E94190318164CF56B857C851D
:104410008D859E8520E030E040E251E40E941F023D
:10442000DC01CB01BC01CD010E944900DC01CB01C4
:104430009E838D830FC088EC90E09C838B838B815F
:104440009C810197F1F79C838B838D819E810197DD
:104450009E838D838D819E81009769F714C06F8143
:10446000788589859A850E944900DC01CB019E836D
:104470008D838D819E819A83898389819A81019719
:10448000F1F79A8389838F858F5F8F879F858889CE
:10449000981708F480CF60960FB6F894DEBF0FBE71
:1044A000CDBFCF91DF910895DF93CF9300D0CDB7EB
:1044B000DEB79A838983E981FA818181E981FA8172
:1044C0009081692F41E00E94A50A0F900F90CF9133
:1044D000DF910895DF93CF9300D0CDB7DEB79A83F5
:1044E0008983E981FA818181E981FA819081692F4B
:1044F00041E00E94F80B0F900F90CF91DF9108954B
:10450000DF93CF9300D0CDB7DEB79A838983E9815B
:10451000FA818181E981FA819081692F40E00E94CE
:10452000F80B0F900F90CF91DF910895DF93CF9309
:10453000CDB7DEB72B970FB6F894DEBF0FBECDBF59
:10454000188687E0898781E08A8783E08B871F82CE
:104550001E821D821C828FEF8B831A8219828DE04E
:1045600091E00E94211183EF90E00E94211185EFDC
:1045700090E00E94211187EF90E00E94211189EFC5
:1045800090E00E942111CE0108960E945422CE0193
:104590000A960E94BC120E94A3050E94082A0E944B
:1045A000FD100E94D50E0E94881B0E948D110E9452
:1045B000142B0E94472B1A8219820DC00E94E4110D
:1045C0008B838B818F3F11F00E94952389819A8183
:1045D00001969A83898389819A8123E0883E920794
:1045E00068F380911101813031F484EB0E940F1146
:1045F000109211010FC08C819D8101969D838C8347
:104600008C819D818431910529F480E00E940F11F5
:104610001D821C82809110018130B1F48E819F81B6
:1046200001969F838E83CE0108960E946A228E8116
:104630009F818431910541F410921001CE010896BA
:104640000E9480221F821E820E94082A0E94132A32
:10465000AECFDF93CF9300D000D0CDB7DEB71C82B2
:104660001B821A82198284E00E94060F9C838B832E
:104670008B819C81CC01A0E0B0E028E833E140E0F0
:1046800050E0BC01CD010E946A2BDC01CB01072E5A
:104690007AE0B695A795979587957A95D1F7702D7D
:1046A0009A83898389819A812AE030E0B9010E9446
:1046B000892B8093130189819A812AE030E0B90126
:1046C0000E94892BCB01809312010F900F900F90C5
:1046D0000F90CF91DF910895DF93CF9300D0CDB7A6
:1046E000DEB781E00E94060F9A83898389819A81CF
:1046F000CC01A0E0B0E024E630E040E050E0BC01B6
:10470000CD010E946A2BDC01CB01072E7AE0B69521
:10471000A795979587957A95D1F7702D8093140179
:104720000F900F90CF91DF9108950F931F93DF9318
:10473000CF93CDB7DEB7CD56D0400FB6F894DEBFDD
:104740000FBECDBFFE01E559FF4F8FEF8083FE0105
:10475000E659FF4F1082FE01E759FF4F1082FE011C
:10476000E959FF4F11821082FE01EB59FF4F118270
:104770001082FE01ED59FF4F88E491E2918380831E
:104780000E94711F80E690E00E944C1E82E064E06F
:104790000E94EC1E0E94E411FE01E559FF4F808348
:1047A000FE01E559FF4F80818F3FA1F3FE01E659DD
:1047B000FF4F8081843008F07DC3DE01A659BF4FD2
:1047C000FE01E659FF4F80818F5F8C93FE01E55912
:1047D000FF4F8081282F30E0AE963FAF2EAFAE97CF
:1047E000AE968EAD9FADAE978433910509F4F7C0B8
:1047F000AE96EEADFFADAE97E533F1054CF5AE9656
:104800002EAD3FADAE972133310509F476C0AE969B
:104810008EAD9FADAE97823391054CF4AE96EEAD62
:10482000FFADAE97E033F10509F443C0BCC1AE96CD
:104830002EAD3FADAE972233310509F484C0AE965C
:104840008EAD9FADAE978333910509F4A2C0ABC185
:10485000AE96EEADFFADAE97E733F10509F431C189
:10486000AE962EAD3FADAE97283331058CF4AE96A3
:104870008EAD9FADAE978533910509F4D6C0AE9647
:10488000EEADFFADAE97E633F10509F4F4C08BC190
:10489000AE962EAD3FADAE972833310509F437C142
:1048A000AE968EAD9FADAE978933910509F455C193
:1048B0007AC1FE01E959FF4F11821082FE01EB59C6
:1048C000FF4F808191819C01220F331FC901880F06
:1048D000991F880F991F280F391FDE01AB59BF4F51
:1048E000FE01E959FF4F80819181820F931F8D93C3
:1048F0009C9380E30E943A1EDDC2FE01E959FF4FFE
:1049000081E090E091838083FE01EB59FF4F80812D
:1049100091819C01220F331FC901880F991F880FB5
:10492000991F280F391FDE01AB59BF4FFE01E9590E
:10493000FF4F80819181820F931F8D939C9381E320
:104940000E943A1EB7C2FE01E959FF4F82E090E093
:1049500091838083FE01EB59FF4F808191819C01FF
:10496000220F331FC901880F991F880F991F280F25
:10497000391FDE01AB59BF4FFE01E959FF4F80815E
:104980009181820F931F8D939C9382E30E943A1E24
:1049900091C2FE01E959FF4F83E090E0918380834B
:1049A000FE01EB59FF4F808191819C01220F331F43
:1049B000C901880F991F880F991F280F391FDE0121
:1049C000AB59BF4FFE01E959FF4F80819181820FA2
:1049D000931F8D939C9383E30E943A1E6BC2FE014A
:1049E000E959FF4F84E090E091838083FE01EB5909
:1049F000FF4F808191819C01220F331FC901880FD5
:104A0000991F880F991F280F391FDE01AB59BF4F1F
:104A1000FE01E959FF4F80819181820F931F8D9391
:104A20009C9384E30E943A1E45C2FE01E959FF4F60
:104A300085E090E091838083FE01EB59FF4F8081F8
:104A400091819C01220F331FC901880F991F880F84
:104A5000991F280F391FDE01AB59BF4FFE01E959DD
:104A6000FF4F80819181820F931F8D939C9385E3EB
:104A70000E943A1E1FC2FE01E959FF4F86E090E0F6
:104A800091838083FE01EB59FF4F808191819C01CE
:104A9000220F331FC901880F991F880F991F280FF4
:104AA000391FDE01AB59BF4FFE01E959FF4F80812D
:104AB0009181820F931F8D939C9386E30E943A1EEF
:104AC000F9C1FE01E959FF4F87E090E091838083AF
:104AD000FE01EB59FF4F808191819C01220F331F12
:104AE000C901880F991F880F991F280F391FDE01F0
:104AF000AB59BF4FFE01E959FF4F80819181820F71
:104B0000931F8D939C9387E30E943A1ED3C1FE01AD
:104B1000E959FF4F88E090E091838083FE01EB59D3
:104B2000FF4F808191819C01220F331FC901880FA3
:104B3000991F880F991F280F391FDE01AB59BF4FEE
:104B4000FE01E959FF4F80819181820F931F8D9360
:104B50009C9388E30E943A1EADC1FE01E959FF4FC4
:104B600089E090E091838083FE01EB59FF4F8081C3
:104B700091819C01220F331FC901880F991F880F53
:104B8000991F280F391FDE01AB59BF4FFE01E959AC
:104B9000FF4F80819181820F931F8D939C9389E3B6
:104BA0000E943A1E87C10E94711F81E061E00E944D
:104BB000EC1E81E790E00E944C1E82E061E00E94C2
:104BC000EC1E8EE790E00E944C1EFE01E15AFF4F62
:104BD00080E090E8ABEBB4E480839183A283B3835D
:104BE0008E01055A1F4FFE01E15AFF4F608171810E
:104BF0008281938120E030E04AEF54E40E941F025A
:104C0000DC01CB01F80180839183A283B383FE0191
:104C1000E55AFF4F608171818281938120E030E00D
:104C200040E85FE30E947903882344F4FE01E75AD9
:104C3000FF4F81E090E09183808364C0FE01E55ADC
:104C4000FF4F608171818281938120E03FEF4FE7C8
:104C500057E40E94190318160CF043C0FE01E15AF4
:104C6000FF4F608171818281938120E030E040E2DA
:104C700051E40E941F02DC01CB018E01075A1F4F35
:104C8000BC01CD010E944900DC01CB01F8019183F8
:104C900080831FC0FE01E95AFF4F88EC90E09183AA
:104CA0008083FE01E95AFF4F808191810197F1F7DE
:104CB000FE01E95AFF4F91838083DE01A75ABF4F5F
:104CC000FE01E75AFF4F80819181019711969C93D5
:104CD0008E93FE01E75AFF4F808191810097D1F6B4
:104CE00027C08E01075A1F4FFE01E55AFF4F608112
:104CF0007181828193810E944900DC01CB01F8011E
:104D000091838083DE01AB5ABF4FFE01E75AFF4F0C
:104D1000808191818D939C93FE01EB5AFF4F80819E
:104D200091810197F1F7FE01EB5AFF4F9183808348
:104D30000E94711F8BE890E00E944C1E82E064E0AC
:104D40000E94EC1EFE01EF5AFF4F80E090E0AAEFB8
:104D5000B3E480839183A283B3838E01035B1F4FEF
:104D6000FE01EF5AFF4F608171818281938120E0C3
:104D700030E04AEF54E40E941F02DC01CB01F8014D
:104D800080839183A283B383FE01E35BFF4F608145
:104D900071818281938120E030E040E85FE30E94EE
:104DA0007903882344F4FE01E55BFF4F81E090E046
:104DB0009183808364C0FE01E35BFF4F608171815A
:104DC0008281938120E03FEF4FE757E40E9419036F
:104DD00018160CF043C0FE01EF5AFF4F608171813D
:104DE0008281938120E030E040E251E40E941F0282
:104DF000DC01CB018E01055B1F4FBC01CD010E9480
:104E00004900DC01CB01F801918380831FC0FE01C2
:104E1000E75BFF4F88EC90E091838083FE01E75BC6
:104E2000FF4F808191810197F1F7FE01E75BFF4F12
:104E300091838083DE01A55BBF4FFE01E55BFF4FE1
:104E400080819181019711969C938E93FE01E55B81
:104E5000FF4F808191810097D1F628C08E01055BBC
:104E60001F4FFE01E35BFF4F60817181828193815F
:104E70000E944900DC01CB01F80191838083DE01AF
:104E8000A95BBF4FFE01E55BFF4F808191811196C9
:104E90009C938E93FE01E95BFF4F80819181019786
:104EA000F1F7FE01E95BFF4F91838083FE01E65934
:104EB000FF4F1082FE01E659FF4F8081843008F4D5
:104EC00069CCFE01EB59FF4FDE01AD59BF4F208188
:104ED00031818D919C9111972817390709F009C1EB
:104EE000FE01ED5BFF4F80E090E0AAE7B4E4808331
:104EF0009183A283B3838E01015C1F4FFE01ED5BA2
:104F0000FF4F608171818281938120E030E04AEF20
:104F100054E40E941F02DC01CB01F80180839183DD
:104F2000A283B383FE01FF966081718182819381A8
:104F300020E030E040E85FE30E94790388232CF40E
:104F400081E090E09EAF8DAF46C0FE01FF9660818C
:104F500071818281938120E03FEF4FE757E40E9407
:104F60001903181664F5FE01ED5BFF4F6081718136
:104F70008281938120E030E040E251E40E941F02F0
:104F8000DC01CB01BC01CD010E944900DC01CB0159
:104F90009EAF8DAF0FC088EC90E09CAF8BAF8BAD18
:104FA0009CAD0197F1F79CAF8BAF8DAD9EAD019796
:104FB0009EAF8DAF8DAD9EAD009769F716C0FE0117
:104FC000FF9660817181828193810E944900DC019A
:104FD000CB019EAF8DAF8DAD9EAD9AAF89AF89AD40
:104FE0009AAD0197F1F79AAF89AF0E94711F89E9D5
:104FF00090E00E944C1E82E061E00E94EC1E86EA76
:1050000090E00E944C1E81E08093110180E090E0CE
:10501000AAE7B4E48DAB9EABAFABB8AF6DA97EA9E8
:105020008FA998AD20E030E04AEF54E40E941F02BF
:10503000DC01CB0189AB9AABABABBCAB69A97AA95C
:105040008BA99CA920E030E040E85FE30E9479034F
:1050500088232CF481E090E098AB8FA73FC069A92A
:105060007AA98BA99CA920E03FEF4FE757E40E9463
:10507000190318164CF56DA97EA98FA998AD20E0EB
:1050800030E040E251E40E941F02DC01CB01BC0190
:10509000CD010E944900DC01CB0198AB8FA70FC066
:1050A00088EC90E09EA78DA78DA59EA50197F1F7AE
:1050B0009EA78DA78FA598A9019798AB8FA78FA5BD
:1050C00098A9009769F798C169A97AA98BA99CA9A1
:1050D0000E944900DC01CB0198AB8FA78FA598A94E
:1050E0009CA78BA78BA59CA50197F1F79CA78BA7E5
:1050F00083C1FE01E759FF4F8081823008F08FC0E5
:1051000080E090E0AAE7B4E48FA398A7A9A7BAA784
:105110006FA178A589A59AA520E030E04AEF54E474
:105120000E941F02DC01CB018BA39CA3ADA3BEA3F5
:105130006BA17CA18DA19EA120E030E040E85FE35F
:105140000E94790388232CF481E090E09AA389A33C
:105150003FC06BA17CA18DA19EA120E03FEF4FE756
:1051600057E40E94190318164CF56FA178A589A57C
:105170009AA520E030E040E251E40E941F02DC01E9
:10518000CB01BC01CD010E944900DC01CB019AA3F7
:1051900089A30FC088EC90E098A38F8F8F8D98A182
:1051A0000197F1F798A38F8F89A19AA101979AA3EC
:1051B00089A389A19AA1009769F714C06BA17CA16A
:1051C0008DA19EA10E944900DC01CB019AA389A375
:1051D00089A19AA19E8F8D8F8D8D9E8D0197F1F75C
:1051E0009E8F8D8F0E94711F84EB90E00E944C1E59
:1051F000FE01E659FF4F1082FE01EB59FF4F11826D
:105200001082DE01A759BF4FFE01E759FF4F808191
:105210008F5F8C9382E064E00E94EC1EBBCA80E04A
:1052200090E0AAE7B4E4898F9A8FAB8FBC8F698D29
:105230007A8D8B8D9C8D20E030E04AEF54E40E9403
:105240001F02DC01CB018D8B9E8BAF8BB88F6D89DC
:105250007E898F89988D20E030E040E85FE30E94EE
:10526000790388232CF481E090E09C8B8B8B3FC0EA
:105270006D897E898F89988D20E03FEF4FE757E455
:105280000E94190318164CF5698D7A8D8B8D9C8DB3
:1052900020E030E040E251E40E941F02DC01CB013B
:1052A000BC01CD010E944900DC01CB019C8B8B8BA2
:1052B0000FC088EC90E09A8B898B89899A89019735
:1052C000F1F79A8B898B8B899C8901979C8B8B8BAF
:1052D0008B899C89009769F714C06D897E898F89B5
:1052E000988D0E944900DC01CB019C8B8B8B8B89B4
:1052F0009C89988B8F878F8598890197F1F7988B78
:105300008F870E94711F81EC90E00E944C1E81E00B
:105310008093100180E090E8ABE3B5E48B879C8735
:10532000AD87BE876B857C858D859E8520E030E0CE
:105330004AEF54E40E941F02DC01CB018F8398875F
:10534000A987BA876F81788589859A8520E030E0C2
:1053500040E85FE30E94790388232CF481E090E029
:105360009E838D833FC06F81788589859A8520E0F3
:105370003FEF4FE757E40E94190318164CF56B8571
:105380007C858D859E8520E030E040E251E40E94DE
:105390001F02DC01CB01BC01CD010E944900DC01F0
:1053A000CB019E838D830FC088EC90E09C838B8320
:1053B0008B819C810197F1F79C838B838D819E81EA
:1053C00001979E838D838D819E81009769F714C01C
:1053D0006F81788589859A850E944900DC01CB011F
:1053E0009E838D838D819E819A83898389819A8111
:1053F0000197F1F79A838983C359DF4F0FB6F89469
:10540000DEBF0FBECDBFCF91DF911F910F910895E9
:10541000DF93CF93CDB7DEB780910F010E94E205F5
:10542000CF91DF910895DF93CF9300D0CDB7DEB752
:105430008091FB00282F30E03A83298389819A816B
:105440008330910509F447C029813A812430310520
:105450005CF489819A818130910599F029813A81A2
:105460002230310519F175C089819A818430910506
:1054700009F446C029813A812530310509F455C027
:1054800068C08DE091E00E94371183EF90E00E94A8
:105490004D1185EF90E00E944D1187EF90E00E9442
:1054A0004D1189EF90E00E944D1153C08DE091E0C5
:1054B0000E94371183EF90E00E94371185EF90E052
:1054C0000E944D1187EF90E00E944D1189EF90E00E
:1054D0000E944D113EC08DE091E00E94371183EF94
:1054E00090E00E94371185EF90E00E94371187EF1E
:1054F00090E00E944D1189EF90E00E944D1129C06B
:105500008DE091E00E94371183EF90E00E94371107
:1055100085EF90E00E94371187EF90E00E943711ED
:1055200089EF90E00E944D1114C08DE091E00E943F
:10553000371183EF90E00E94371185EF90E00E94D1
:10554000371187EF90E00E94371189EF90E00E94B9
:1055500037110F900F90CF91DF910895DF93CF9384
:105560000F92CDB7DEB789838981893224F08FEF1E
:1055700080930F0120C0898189323CF489818F3169
:1055800024F08FEB80930F0116C089818F313CF49A
:1055900089818A3124F08FE780930F010CC08981C3
:1055A0008A313CF48981853124F080E480930F01B5
:1055B00002C010920F010F90CF91DF910895DF93F9
:1055C000CF930F92CDB7DEB789838981853638F4C2
:1055D0008981863520F081E08093FB0021C089819C
:1055E000863538F48981823420F082E08093FB0094
:1055F00017C08981823438F489818E3220F083E0AB
:105600008093FB000DC089818E3238F489818A3104
:1056100020F084E08093FB0003C085E08093FB00D2
:105620000F90CF91DF910895DF93CF93CDB7DEB781
:105630000E9429230E94711F81E061E00E94EC1EFC
:1056400081ED90E00E944C1E80911201882F90E025
:10565000A0E0B0E0BC01CD010E94751E89ED90E094
:105660000E944C1E80911301882F90E0A0E0B0E0D2
:10567000BC01CD010E94751E8BED90E00E944C1E76
:10568000809112010E94AE2ACF91DF910895DF939D
:10569000CF93CDB7DEB70E946C2382E061E00E9419
:1056A000EC1E8EED90E00E944C1E80911401882F1C
:1056B00090E0A0E0B0E0BC01CD010E94751E88EE34
:1056C00090E00E944C1E809114010E94DF2ACF912D
:1056D000DF910895629FD001739FF001829FE00DDA
:1056E000F11D649FE00DF11D929FF00D839FF00D61
:1056F000749FF00D659FF00D9927729FB00DE11D0D
:10570000F91F639FB00DE11DF91FBD01CF011124E9
:105710000895AA1BBB1B51E107C0AA1FBB1FA617F8
:10572000B70710F0A61BB70B881F991F5A95A9F74A
:1057300080959095BC01CD010895A1E21A2EAA1B77
:10574000BB1BFD010DC0AA1FBB1FEE1FFF1FA21731
:10575000B307E407F50720F0A21BB30BE40BF50B2E
:10576000661F771F881F991F1A9469F760957095B7
:10577000809590959B01AC01BD01CF0108952F92BA
:105780003F924F925F926F927F928F929F92AF92D1
:10579000BF92CF92DF92EF92FF920F931F93CF931E
:1057A000DF93CDB7DEB7CA1BDB0B0FB6F894DEBFB5
:1057B0000FBECDBF09942A88398848885F846E84DB
:1057C0007D848C849B84AA84B984C884DF80EE8025
:1057D000FD800C811B81AA81B981CE0FD11D0FB62E
:1057E000F894DEBF0FBECDBFED010895F894FFCF52
:1057F000456E7465722050617373636F6465203AFF
:1058000000506C6561736520456E746572004E755D
:105810006D62657273204F6E6C7900202020547287
:105820007920416761696E20002020202057656C37
:10583000636F6D6520004F70656E696E6720204450
:105840006F6F7200202054727920416761696E2069
:1058500000204F7574206F66207472696573202173
:105860000054656D70203D20002E002043004C54F4
:1058700020494E54203D200020250000000000005B
:105880000000000002000300050006013734314F1C
:0C589000383532303936333D2F2A2D2BAD
:00000001FF
