:100000000C942A000C94330A0C9447000C9447007B
:100010000C9447000C9447000C94C0080C944700C3
:100020000C9447000C9493080C94B5070C94880723
:100030000C9447000C9447000C9447000C94470024
:100040000C9447000C9447000C9447000C94470014
:100050000C94470011241FBECFE5D8E0DEBFCDBF12
:1000600011E0A0E6B0E0E0E1FDE402C005900D92F1
:10007000AE3BB107D9F711E0AEEBB1E001C01D9284
:10008000A53DB107E1F70E94A7210C9486260C94A8
:100090000000EF92FF920F931F937B018C0120E0F1
:1000A00030E040E05FE40E94F50388238CF0C80153
:1000B000B70120E030E040E05FE40E94C1010E940F
:1000C00055049B01AC01205030404040504806C0D0
:1000D000C801B7010E9455049B01AC01B901CA01D6
:1000E0001F910F91FF90EF900895A0E0B0E0EBE733
:1000F000F0E00C944F26DC012B01FA019C91923028
:1001000008F439C1EB018881823008F433C194309E
:1001100069F4843009F02FC111969C91119789815F
:10012000981709F428C1ACE8B0E025C1843009F47F
:1001300021C18230A9F4923009F01DC19A01AD01AC
:1001400088E0EA010990AE01E90109929E0181501F
:10015000C1F7E201898111969C918923818308C1AD
:10016000923009F407C112962D903C901397EB0141
:100170008A819B811496AD90BD90CD90DC901797AD
:10018000EC80FD800E811F819101281B390BB90184
:1001900037FF04C066277727621B730B6032710537
:1001A0000CF061C0121613066CF537014801062EDB
:1001B00004C096948794779467940A94D2F721E0C8
:1001C00030E040E050E004C0220F331F441F551FB1
:1001D0006A95D2F721503040404050402E213F21B7
:1001E00040235123211531054105510521F021E01E
:1001F00030E040E050E079018A01E628F72808293C
:1002000019293CC0232BD1F1260E371E350146019A
:10021000062E04C096948794779467940A94D2F734
:1002200021E030E040E050E004C0220F331F441FC3
:10023000551F6A95D2F721503040404050402A2146
:100240003B214C215D21211531054105510521F04E
:1002500021E030E040E050E059016A01A628B728CB
:10026000C828D9280BC0821593052CF01C01AA249C
:10027000BB24650103C0EE24FF24870111969C91E5
:10028000D20111968C91981709F445C0992339F041
:10029000A80197012A193B094C095D0906C0A6016E
:1002A00095012E193F09400B510B57FD08C01182D3
:1002B0003382228224833583468357831DC081E0A5
:1002C00081833382228288279927DC01821B930B4A
:1002D000A40BB50B84839583A683B7830DC0220F2F
:1002E000331F441F551F24833583468357838281E0
:1002F000938101979383828324813581468157813D
:10030000DA01C9010197A109B1098F5F9F4FAF4F72
:10031000BF4328F30BC0918333822282EA0CFB1C7B
:100320000C1D1D1DE482F5820683178383E0808304
:10033000248135814681578157FF1AC0C901AA27F8
:1003400097FDA095BA2F81709070A070B0705695EF
:10035000479537952795822B932BA42BB52B848318
:100360009583A683B7838281938101969383828349
:10037000DF0101C0D201CD01CDB7DEB7E2E10C94BF
:100380006B26A0E2B0E0E7ECF1E00C945B26698319
:100390007A838B839C832D833E834F835887E9E048
:1003A000EE2EF12CEC0EFD1ECE010196B7010E943F
:1003B00046068E010F5E1F4FCE010596B8010E94C2
:1003C00046068A8991E089278A8BC701B801AE0168
:1003D000475E5F4F0E9475000E947105A096E6E09F
:1003E0000C947726A0E2B0E0E8EFF1E00C945B26F5
:1003F00069837A838B839C832D833E834F835887C5
:10040000F9E0EF2EF12CEC0EFD1ECE010196B701A6
:100410000E9446068E010F5E1F4FCE010596B80161
:100420000E944606C701B801AE01475E5F4F0E94B9
:1004300075000E947105A096E6E00C947726A0E274
:10044000B0E0E5E2F2E00C944F2669837A838B8377
:100450009C832D833E834F835887CE010196BE0136
:10046000675F7F4F0E944606CE010596BE016F5E14
:100470007F4F0E9446069985923088F089898230A4
:10048000C8F0943019F4823051F404C0843029F457
:10049000923081F48CE890E0C6C0923049F420E0BC
:1004A0009A858A89981321E02A87CE010996BBC0D4
:1004B000823049F420E09A858A89981321E02A8BBA
:1004C000CE014196B0C02D843E844F8458886D88FB
:1004D0007E888F88988CEE24FF248701AA24BB2471
:1004E000650140E050E060E070E0E0E0F0E0C10174
:1004F00081709070892BE9F0E60CF71C081D191D1E
:100500009A01AB012A0D3B1D4C1D5D1D80E090E062
:10051000A0E0B0E0E614F7040805190520F481E036
:1005200090E0A0E0B0E0BA01A901480F591F6A1F8E
:100530007B1FAA0CBB1CCC1CDD1C97FE08C081E0F5
:1005400090E0A0E0B0E0A82AB92ACA2ADB2A3196B6
:10055000E032F10549F0660C771C881C991C569412
:10056000479437942794C3CFFA85EA892B893C892D
:100570008B859C85280F391F2E5F3F4F17C0CA01FE
:1005800081709070892B61F016950795F794E79428
:1005900080E090E0A0E0B0E8E82AF92A0A2B1B2BC3
:1005A00076956795579547952F5F3F4F77FDE7CF36
:1005B0000CC0440F551F661F771F17FD4160EE0CDE
:1005C000FF1C001F111F21503040403090E05907A0
:1005D00090E0690790E4790760F32B8F3C8FDB0193
:1005E000CA018F779070A070B07080349105A1051A
:1005F000B10561F447FD0AC0E114F10401051105DC
:1006000029F0405C5F4F6F4F7F4F40781A8EFE1786
:1006100011F081E08A8F4D8F5E8F6F8F78A383E01A
:10062000898FCE0149960E947105A096E2E10C9453
:100630006B26A8E1B0E0EFE1F3E00C945726698364
:100640007A838B839C832D833E834F835887B9E0C5
:10065000EB2EF12CEC0EFD1ECE010196B7010E948F
:1006600046068E010F5E1F4FCE010596B8010E940F
:1006700046062985223008F47EC03989323010F4CC
:10068000B8017CC08A859A8989278A87243011F02D
:10069000223031F4231709F06EC06CE870E06EC0B0
:1006A000343039F41D861E861F86188A1C861B86E8
:1006B00004C0323021F484E08987B7015FC02B8504
:1006C0003C858B899C89281B390B3C872B87ED84C3
:1006D000FE840F851889AD88BE88CF88D88CEA142F
:1006E000FB040C051D0540F4EE0CFF1C001F111F40
:1006F000215030403C872B8720E030E040E050E044
:1007000080E090E0A0E0B0E460E070E0EA14FB0478
:100710000C051D0540F0282B392B4A2B5B2BEA18C2
:10072000FB080C091D09B695A79597958795EE0CC2
:10073000FF1C001F111F6F5F7F4F6F31710531F775
:10074000DA01C9018F779070A070B0708034910584
:10075000A105B10561F427FD0AC0E114F10401050A
:10076000110529F0205C3F4F4F4F5F4F20782D87B8
:100770003E874F87588BBE01675F7F4FCB010E943A
:1007800071056896EAE00C947326A8E1B0E0EBEC02
:10079000F3E00C945B2669837A838B839C832D839F
:1007A0003E834F83588789E0E82EF12CEC0EFD1E26
:1007B000CE010196B7010E9446068E010F5E1F4FC3
:1007C000CE010596B8010E9446068985823040F028
:1007D0008989823028F0C701B8010E94BE0601C095
:1007E0008FEF6896E6E00C947726A8E1B0E0EBEF97
:1007F000F3E00C945B2669837A838B839C832D833F
:100800003E834F83588789E0E82EF12CEC0EFD1EC5
:10081000CE010196B7010E9446068E010F5E1F4F62
:10082000CE010596B8010E9446068985823040F0C7
:100830008989823028F0C701B8010E94BE0601C034
:100840008FEF6896E6E00C947726A8E1B0E0EBE243
:10085000F4E00C945B2669837A838B839C832D83DD
:100860003E834F83588789E0E82EF12CEC0EFD1E65
:10087000CE010196B7010E9446068E010F5E1F4F02
:10088000CE010596B8010E9446068985823040F067
:100890008989823028F0C701B8010E94BE0601C0D4
:1008A00081E06896E6E00C947726ACE0B0E0EBE5FA
:1008B000F4E00C945F2669837A838B839C83CE015A
:1008C0000196BE016B5F7F4F0E9446068D8182308C
:1008D00061F1823050F1843021F48E81882351F10E
:1008E0002EC02F81388537FD20C06E812F31310514
:1008F0001CF06623F9F023C08EE190E0821B930B7D
:1009000029853A854B855C8504C056954795379572
:1009100027958A95D2F76623B1F05095409530958A
:1009200021953F4F4F4F5F4F0EC020E030E040E039
:1009300050E009C02FEF3FEF4FEF5FE704C020E02A
:1009400030E040E050E8B901CA012C96E2E00C9496
:100950007B26A8E0B0E0EFEAF4E00C9457267B0198
:100960008C01611571058105910519F482E0898377
:1009700060C083E089838EE1C82ED12CDC82CB82DB
:10098000ED82FE820F831887C801B7010E942205FD
:10099000FC013197F7FF3BC0222733272E1B3F0B6B
:1009A00057016801022E04C0D694C794B794A79447
:1009B0000A94D2F740E050E060E070E081E090E01F
:1009C000A0E0B0E004C0880F991FAA1FBB1F2A95A2
:1009D000D2F70197A109B1098E219F21A023B1234C
:1009E0000097A105B10521F041E050E060E070E022
:1009F0004A295B296C297D294D835E836F83788723
:100A00008EE190E08E1B9F0B9C838B8312C03097EE
:100A100081F00E2E04C0EE0CFF1C001F111F0A9463
:100A2000D2F7ED82FE820F831887CE1ADF0ADC82AE
:100A3000CB821A82CE0101960E9471052896EAE0C7
:100A40000C947326EF92FF920F931F937B018C01FE
:100A500080E0E81680E0F80681E0080780E01807EB
:100A600088F48FEFE816F1040105110531F028F044
:100A700088E090E0A0E0B0E017C080E090E0A0E067
:100A8000B0E012C080E0E81680E0F80680E00807D9
:100A900081E0180728F088E190E0A0E0B0E004C011
:100AA00080E190E0A0E0B0E020E230E040E050E003
:100AB000281B390B4A0B5B0B04C016950795F7945E
:100AC000E7948A95D2F7F701EC56FF4F8081281BF7
:100AD000310941095109C9011F910F91FF90EF9010
:100AE0000895DF92EF92FF920F931F93FC01E48031
:100AF000F58006811781D1808081823048F480E0C2
:100B000090E0A0E1B0E0E82AF92A0A2B1B2BA5C04F
:100B1000843009F49FC0823021F4EE24FF24870141
:100B200005C0E114F1040105110519F4E0E0F0E05D
:100B300096C0628173819FEF623879070CF05BC0C9
:100B400022E83FEF261B370B2A3131052CF020E03D
:100B500030E040E050E02AC0B801A701022E04C0F6
:100B600076956795579547950A94D2F781E090E07E
:100B7000A0E0B0E004C0880F991FAA1FBB1F2A95F0
:100B8000D2F70197A109B1098E219F21A023B1239A
:100B90000097A105B10521F081E090E0A0E0B0E070
:100BA0009A01AB01282B392B4A2B5B2BDA01C901A7
:100BB0008F779070A070B07080349105A105B10559
:100BC00039F427FF09C0205C3F4F4F4F5F4F04C0EF
:100BD000215C3F4F4F4F5F4FE0E0F0E02030A0E05E
:100BE0003A07A0E04A07A0E45A0710F0E1E0F0E07D
:100BF00079018A0127C06038710564F5FB01E1586D
:100C0000FF4FD801C7018F779070A070B07080340B
:100C10009105A105B10539F4E7FE0DC080E490E02F
:100C2000A0E0B0E004C08FE390E0A0E0B0E0E80E08
:100C3000F91E0A1F1B1F17FF05C016950795F7948D
:100C4000E794319687E016950795F794E7948A958F
:100C5000D1F705C0EE24FF248701EFEFF0E06E2FFF
:100C6000679566276795902F9F77D794DD24D79453
:100C70008E2F8695492F462B582F5D29B701CA0123
:100C80001F910F91FF90EF90DF900895FC01DB0121
:100C9000408151812281622F6F7770E0221F2227CD
:100CA000221F9381892F880F822B282F30E0991FD4
:100CB0009927991F11969C93119721153105A9F534
:100CC000411551056105710511F482E037C082E8D4
:100CD0009FEF13969C938E9312979A01AB0167E056
:100CE000220F331F441F551F6A95D1F783E08C9361
:100CF0000DC0220F331F441F551F12968D919C91DA
:100D00001397019713969C938E931297203080E04F
:100D1000380780E0480780E4580758F314962D936D
:100D20003D934D935C93179708952F3F310579F4C8
:100D3000411551056105710519F484E08C930895FE
:100D400064FF03C081E08C9312C01C9210C02F5727
:100D5000304013963C932E93129783E08C9387E058
:100D6000440F551F661F771F8A95D1F7706414963C
:100D70004D935D936D937C93179708951F93DC01BA
:100D8000FB019C91923008F447C08081823008F4C6
:100D900043C0943051F411961C91843099F58181AF
:100DA000682F70E0611B71093FC0843021F09230E0
:100DB00031F48230B9F18181882389F12DC01196F7
:100DC0001C9111978230F1F081811817D9F4129695
:100DD0002D913C911397828193818217930794F010
:100DE00028173907BCF014968D919D910D90BC91F8
:100DF000A02D2481358146815781281739074A075C
:100E00005B0718F4112341F00AC082179307A40767
:100E1000B50740F4112319F061E070E005C06FEFF1
:100E20007FEF02C060E070E0CB011F910895DF9377
:100E3000CF93CDB7DEB7A3E5B0E0E3E5F0E0808186
:100E4000887F8C93A3E5B0E0E3E5F0E080818360E8
:100E50008C93A3E5B0E0E3E5F0E0808180648C93BF
:100E6000A3E5B0E0E3E5F0E08081877F8C93A3E524
:100E7000B0E0E3E5F0E0808180628C93A3E5B0E030
:100E8000E3E5F0E080818F7E8C93CF91DF91089530
:100E9000DF93CF930F92CDB7DEB78983E2E5F0E021
:100EA000898180830F90CF91DF910895DF93CF9355
:100EB0000F92CDB7DEB78983ECE5F0E089818083BE
:100EC0000F90CF91DF910895DF93CF9300D0CDB7EE
:100ED000DEB79A83898389819A819093CE0180932A
:100EE000CD010F900F90CF91DF910895DF93CF93B5
:100EF00000D0CDB7DEB79A83898389819A81909398
:100F0000CE018093CD010F900F90CF91DF91089586
:100F10001F920F920FB60F9211242F933F934F936E
:100F20005F936F937F938F939F93AF93BF93EF9351
:100F3000FF93DF93CF93CDB7DEB7E091CD01F09172
:100F4000CE010995CF91DF91FF91EF91BF91AF91C4
:100F50009F918F917F916F915F914F913F912F91D1
:100F60000F900FBE0F901F9018951F920F920FB603
:100F70000F9211242F933F934F935F936F937F931F
:100F80008F939F93AF93BF93EF93FF93DF93CF9391
:100F9000CDB7DEB7E091CD01F091CE010995CF91AB
:100FA000DF91FF91EF91BF91AF919F918F917F91D1
:100FB0006F915F914F913F912F910F900FBE0F90C6
:100FC0001F901895DF93CF93CDB7DEB7AEE4B0E0B6
:100FD000EEE4F0E08081887F8C93AEE4B0E0EEE454
:100FE000F0E0808181608C93AEE4B0E0EEE4F0E06C
:100FF00080818F7E8C93AEE4B0E0EEE4F0E08081FF
:10100000877F8C93AFE4B0E0EFE4F0E080818D7FE8
:101010008C93AFE4B0E0EFE4F0E080818E7F8C93BE
:10102000A9E5B0E0E9E5F0E0808184608C93A9E572
:10103000B0E0E9E5F0E0808180628C93AEE4B0E05E
:10104000EEE4F0E0808180648C93CF91DF9108958D
:10105000DF93CF9300D0CDB7DEB79A838983ECE4DA
:10106000F0E089819A81918380830F900F90CF91D6
:10107000DF910895DF93CF93CDB7DEB7ECE4F0E0D6
:1010800080819181CF91DF910895DF93CF93CDB788
:10109000DEB7E6E4F0E080819181CF91DF910895A1
:1010A000DF93CF930F92CDB7DEB7898389818823F1
:1010B00041F4AEE4B0E0EEE4F0E080818F7B8C930D
:1010C0000AC08981813039F4AEE4B0E0EEE4F0E0AA
:1010D000808180648C930F90CF91DF910895DF938E
:1010E000CF9300D0CDB7DEB79A83898389819A8167
:1010F0009093D0018093CF010F900F90CF91DF910B
:101100000895DF93CF9300D0CDB7DEB79A8389835C
:1011100089819A819093D2018093D1010F900F9091
:10112000CF91DF9108951F920F920FB60F92112465
:101130002F933F934F935F936F937F938F939F93DF
:10114000AF93BF93EF93FF93DF93CF93CDB7DEB70A
:10115000E091CF01F091D0010995CF91DF91FF91FE
:10116000EF91BF91AF919F918F917F916F915F911F
:101170004F913F912F910F900FBE0F901F90189598
:101180001F920F920FB60F9211242F933F934F93FC
:101190005F936F937F938F939F93AF93BF93EF93DF
:1011A000FF93DF93CF93CDB7DEB7E091D101F091FC
:1011B000D2010995CF91DF91FF91EF91BF91AF914E
:1011C0009F918F917F916F915F914F913F912F915F
:1011D0000F900FBE0F901F901895DF93CF93CDB750
:1011E000DEB7AFE5B0E0EFE5F0E0808180688C939A
:1011F000CF91DF910895DF93CF93CDB7DEB7AFE501
:10120000B0E0EFE5F0E080818F778C93CF91DF91B4
:101210000895DF93CF93CDB7DEB7A5E5B0E0E5E560
:10122000F0E0808181608C93A5E5B0E0E5E5F0E039
:10123000808182608C93ABE5B0E0EBE5F0E08081EB
:1012400080648C93CF91DF910895DF93CF93CDB7D6
:10125000DEB7A5E5B0E0E5E5F0E0808184608C9341
:10126000A5E5B0E0E5E5F0E0808188608C93ABE532
:10127000B0E0EBE5F0E0808180688C93CF91DF9166
:101280000895DF93CF93CDB7DEB7A4E5B0E0E4E5F2
:10129000F0E0808180648C93ABE5B0E0EBE5F0E0BA
:1012A000808180628C93CF91DF910895DF93CF93FB
:1012B00000D000D0CDB7DEB789836A838981282F1B
:1012C00030E03C832B838B819C818130910509F434
:1012D00054C02B813C812230310509F496C08B81AA
:1012E0009C81009709F0A6C08A81882379F4A5E53E
:1012F000B0E0E5E5F0E080818E7F8C93A5E5B0E07D
:10130000E5E5F0E080818D7F8C9394C08A81813007
:1013100079F4A5E5B0E0E5E5F0E0808181608C93AB
:10132000A5E5B0E0E5E5F0E080818D7F8C9382C09B
:101330008A81823079F4A5E5B0E0E5E5F0E08081CE
:101340008E7F8C93A5E5B0E0E5E5F0E080818260DA
:101350008C9370C08A81833009F06CC0A5E5B0E041
:10136000E5E5F0E0808181608C93A5E5B0E0E5E5FE
:10137000F0E0808182608C935DC08A81882379F45B
:10138000A5E5B0E0E5E5F0E080818B7F8C93A5E5F5
:10139000B0E0E5E5F0E08081877F8C934BC08A81E7
:1013A000813079F4A5E5B0E0E5E5F0E08081846086
:1013B0008C93A5E5B0E0E5E5F0E08081877F8C9334
:1013C00039C08A81823079F4A5E5B0E0E5E5F0E046
:1013D00080818B7F8C93A5E5B0E0E5E5F0E080812E
:1013E00088608C9327C08A81833021F5A5E5B0E021
:1013F000E5E5F0E0808184608C93A5E5B0E0E5E56B
:10140000F0E0808188608C9315C08A81823041F43D
:10141000A4E5B0E0E4E5F0E080818F7B8C930AC026
:101420008A81833039F4A4E5B0E0E4E5F0E080811E
:1014300080648C930F900F900F900F90CF91DF915D
:101440000895DF93CF9300D0CDB7DEB79A83898319
:1014500089819A819093D4018093D3010F900F904A
:10146000CF91DF9108951F920F920FB60F92112422
:101470002F933F934F935F936F937F938F939F939C
:10148000AF93BF93EF93FF93DF93CF93CDB7DEB7C7
:10149000E091D301F091D4010995CF91DF91FF91B3
:1014A000EF91BF91AF919F918F917F916F915F91DC
:1014B0004F913F912F910F900FBE0F901F90189555
:1014C000DF93CF9300D000D000D0CDB7DEB78A83B2
:1014D0006B834C8381E089838A81883008F0E8C07F
:1014E0008B81282F30E03E832D838D819E8181303A
:1014F000910509F448C02D813E81223031052CF43C
:101500008D819E81009771F0D1C02D813E81223066
:10151000310509F469C08D819E818330910509F4FC
:1015200094C0C4C08C818130A1F4AAE3B0E0EAE3A6
:10153000F0E08081482F8A81282F30E081E090E020
:10154000022E02C0880F991F0A94E2F7842B8C9315
:10155000B0C08C818823A9F4AAE3B0E0EAE3F0E00C
:101560008081482F8A81282F30E081E090E0022E90
:1015700002C0880F991F0A94E2F7809584238C9308
:1015800098C0198296C08C818130A1F4A7E3B0E0A5
:10159000E7E3F0E08081482F8A81282F30E081E066
:1015A00090E0022E02C0880F991F0A94E2F7842B64
:1015B0008C937FC08C818823A9F4A7E3B0E0E7E394
:1015C000F0E08081482F8A81282F30E081E090E090
:1015D000022E02C0880F991F0A94E2F78095842397
:1015E0008C9367C0198265C08C818130A1F4A4E31B
:1015F000B0E0E4E3F0E08081482F8A81282F30E0DA
:1016000081E090E0022E02C0880F991F0A94E2F751
:10161000842B8C934EC08C818823A9F4A4E3B0E082
:10162000E4E3F0E08081482F8A81282F30E081E0D8
:1016300090E0022E02C0880F991F0A94E2F780956D
:1016400084238C9336C0198234C08C818130A1F4FC
:10165000A1E3B0E0E1E3F0E08081482F8A81282F08
:1016600030E081E090E0022E02C0880F991F0A94BA
:10167000E2F7842B8C931DC08C818823A9F4A1E30D
:10168000B0E0E1E3F0E08081482F8A81282F30E04C
:1016900081E090E0022E02C0880F991F0A94E2F7C1
:1016A000809584238C9305C0198203C0198201C0E0
:1016B0001982898126960FB6F894DEBF0FBECDBF82
:1016C000CF91DF910895DF93CF9300D000D00F9298
:1016D000CDB7DEB78A836B8381E089838B818F3FAF
:1016E00019F08B818823A9F58A81282F30E03D836A
:1016F0002C838C819D8181309105D1F02C813D819D
:10170000223031052CF48C819D81009761F01FC03F
:101710002C813D812230310581F08C819D81833087
:10172000910581F014C0EAE3F0E08B81808312C060
:10173000E7E3F0E08B8180830DC0E4E3F0E08B8190
:10174000808308C0E1E3F0E08B81808303C01982CD
:1017500001C0198289810F900F900F900F900F9008
:10176000CF91DF910895DF93CF9300D000D000D0C8
:10177000CDB7DEB78A836B834C8381E089838A810E
:10178000883008F0E8C08B81282F30E03E832D831D
:101790008D819E818130910509F448C02D813E8163
:1017A000223031052CF48D819E81009771F0D1C0DB
:1017B0002D813E812230310509F469C08D819E81E1
:1017C0008330910509F494C0C4C08C818130A1F4A8
:1017D000ABE3B0E0EBE3F0E08081482F8A81282F73
:1017E00030E081E090E0022E02C0880F991F0A9439
:1017F000E2F7842B8C93B0C08C818823A9F4ABE3EF
:10180000B0E0EBE3F0E08081482F8A81282F30E0C0
:1018100081E090E0022E02C0880F991F0A94E2F73F
:10182000809584238C9398C0198296C08C818130D6
:10183000A1F4A8E3B0E0E8E3F0E08081482F8A81DA
:10184000282F30E081E090E0022E02C0880F991F1F
:101850000A94E2F7842B8C937FC08C818823A9F4AF
:10186000A8E3B0E0E8E3F0E08081482F8A81282FE8
:1018700030E081E090E0022E02C0880F991F0A94A8
:10188000E2F7809584238C9367C0198265C08C81B0
:101890008130A1F4A5E3B0E0E5E3F0E08081482FDA
:1018A0008A81282F30E081E090E0022E02C0880F6C
:1018B000991F0A94E2F7842B8C934EC08C81882365
:1018C000A9F4A5E3B0E0E5E3F0E08081482F8A8148
:1018D000282F30E081E090E0022E02C0880F991F8F
:1018E0000A94E2F7809584238C9336C0198234C021
:1018F0008C818130A1F4A2E3B0E0E2E3F0E08081EA
:10190000482F8A81282F30E081E090E0022E02C02B
:10191000880F991F0A94E2F7842B8C931DC08C8149
:101920008823A9F4A2E3B0E0E2E3F0E08081482F4D
:101930008A81282F30E081E090E0022E02C0880FDB
:10194000991F0A94E2F7809584238C9305C019822D
:1019500003C0198201C01982898126960FB6F894B6
:10196000DEBF0FBECDBFCF91DF910895DF93CF9340
:1019700000D000D00F92CDB7DEB78A836B8381E0B1
:1019800089838A81282F30E03D832C838C819D813F
:1019900081309105D1F02C813D81223031052CF42C
:1019A0008C819D81009761F01FC02C813D81223088
:1019B000310581F08C819D818330910581F014C0C7
:1019C000EBE3F0E08B81808310C0E8E3F0E08B81F3
:1019D00080830BC0E5E3F0E08B81808306C0E2E307
:1019E000F0E08B81808301C0198289810F900F9074
:1019F0000F900F900F90CF91DF910895DF93CF93C9
:101A0000CDB7DEB727970FB6F894DEBF0FBECDBFB8
:101A10008A836B835D834C8381E089838A818830EC
:101A200008F079C08C819D818130910509F473C0E3
:101A30008B81282F30E03F832E834E815F814130A0
:101A4000510559F18E819F818230910534F42E81A8
:101A50003F812115310569F05CC04E815F814230C4
:101A6000510579F18E819F818330910509F43DC044
:101A700050C0E9E3F0E08081282F30E08A81882F90
:101A800090E0A90102C0559547958A95E2F7CA01F1
:101A90008170EC81FD8180833FC0E6E3F0E08081CE
:101AA000282F30E08A81882F90E0A90102C0559547
:101AB00047958A95E2F7CA018170EC81FD818083A8
:101AC0002BC0E3E3F0E08081282F30E08A81882F6B
:101AD00090E0A90102C0559547958A95E2F7CA01A1
:101AE0008170EC81FD81808317C0E0E3F0E08081AC
:101AF000282F30E08A81882F90E0A90102C05595F7
:101B000047958A95E2F7CA018170EC81FD81808357
:101B100003C0198201C01982898127960FB6F894F3
:101B2000DEBF0FBECDBFCF91DF910895DF93CF937E
:101B300000D000D000D0CDB7DEB78A836B834C8352
:101B400081E089838A81853008F0C9C08B81282F84
:101B500030E03E832D836D817E816130710509F413
:101B600041C08D819E818230910534F42D813E816A
:101B70002115310571F0B1C06D817E816230710532
:101B800009F459C08D819E818330910509F47CC090
:101B9000A4C0ABE3B0E0EBE3F0E08081482F8A81A2
:101BA000282F30E08FE090E002C0880F991F2A951F
:101BB000E2F7809584238C93ABE3B0E0EBE3F0E0B5
:101BC0008081482F8C81282F30E08A81882F90E0F7
:101BD000B90102C0660F771F8A95E2F7CB01842B0B
:101BE0008C937EC0A8E3B0E0E8E3F0E08081482F6A
:101BF0008A81282F30E08FE090E002C0880F991F83
:101C00002A95E2F7809584238C93A8E3B0E0E8E37B
:101C1000F0E08081482F8C81282F30E08A81882F46
:101C200090E0B90102C0660F771F8A95E2F7CB01F9
:101C3000842B8C9355C0A5E3B0E0E5E3F0E0808110
:101C4000482F8A81282F30E08FE090E002C0880F73
:101C5000991F2A95E2F7809584238C93A5E3B0E041
:101C6000E5E3F0E08081482F8C81282F30E08A81E5
:101C7000882F90E0B90102C0660F771F8A95E2F7BE
:101C8000CB01842B8C932CC0A2E3B0E0E2E3F0E024
:101C90008081482F8A81282F30E08FE090E002C0B9
:101CA000880F991F2A95E2F7809584238C93A2E3ED
:101CB000B0E0E2E3F0E08081482F8C81282F30E013
:101CC0008A81882F90E0B90102C0660F771F8A953C
:101CD000E2F7CB01842B8C9303C0198201C01982D7
:101CE000898126960FB6F894DEBF0FBECDBFCF9187
:101CF000DF910895DF93CF9300D0CDB7DEB789830E
:101D00006A8389816A8140E00E94600A89816A81D0
:101D100041E00E94B30B0F900F90CF91DF91089597
:101D2000DF93CF93CDB7DEB7A7E2B0E0E7E2F0E014
:101D3000808180648C93A7E2B0E0E7E2F0E08081EC
:101D40008F778C93A6E2B0E0E6E2F0E08081887FB6
:101D50008C93A6E2B0E0E6E2F0E0808183608C93B1
:101D6000A7E2B0E0E7E2F0E080818F7D8C93A6E20D
:101D7000B0E0E6E2F0E0808180688C93CF91DF9163
:101D80000895DF93CF930F92CDB7DEB78983898112
:101D900087708983A7E2B0E0E7E2F0E08081807E8F
:101DA0008C93A7E2B0E0E7E2F0E090818981892B93
:101DB0008C93A6E2B0E0E6E2F0E0808180648C9350
:101DC000E6E2F0E0808182958F70882F90E081704C
:101DD00090700097A9F3E4E2F0E0808191810F9088
:101DE000CF91DF910895DF93CF9300D0CDB7DEB7C9
:101DF0009A838983E981FA818181E981FA819081DD
:101E0000692F0E947A0E0F900F90CF91DF91089565
:101E1000DF93CF9300D00F92CDB7DEB79B838A8339
:101E200081E08983EA81FB818181EA81FB81908164
:101E3000692F9E012F5F3F4FA9010E94FE0C8981EF
:101E40000F900F900F90CF91DF910895DF93CF9374
:101E500000D0CDB7DEB79A838983E981FA8180818A
:101E60006FEF0E94630B0F900F90CF91DF91089559
:101E7000DF93CF9300D00F92CDB7DEB79A838983DB
:101E80006B83E981FA818181813031F4E981FA81C2
:101E900080816B810E94B60CE981FA81818188235F
:101EA00051F4E981FA8120818B81982F9095822FBE
:101EB000692F0E94B60C0F900F900F90CF91DF9179
:101EC0000895DF93CF93CDB7DEB727970FB6F89479
:101ED000DEBF0FBECDBF9A8389836B83E981FA8110
:101EE0008181813009F09BC08B81282F30E03F83B6
:101EF0002E838E819F818430910509F45FC02E81ED
:101F00003F8125303105DCF48E819F818130910540
:101F100009F43FC02E813F81223031052CF48E819F
:101F20009F81009779F174C02E813F812230310565
:101F3000B9F18E819F8183309105C9F169C02E81ED
:101F40003F812730310509F44EC08E819F81883052
:101F500091055CF42E813F8125303105B1F18E81F0
:101F60009F8186309105C1F153C02E813F81283079
:101F7000310509F43FC08E819F818930910509F4B4
:101F800040C046C0E981FA8180816FE30E94B60CAF
:101F9000E6C0E981FA81808166E00E94B60CDFC06C
:101FA000E981FA8180816BE50E94B60CD8C0E98195
:101FB000FA8180816FE40E94B60CD1C0E981FA8178
:101FC000808166E60E94B60CCAC0E981FA818081F0
:101FD0006DE60E94B60CC3C0E981FA8180816DE78D
:101FE0000E94B60CBCC0E981FA81808167E00E9442
:101FF000B60CB5C0E981FA8180816FE70E94B60C0A
:10200000AEC0E981FA8180816FE60E94B60CA7C05C
:10201000E981FA81808169E70E94B60CA0C0E9815C
:10202000FA818181882309F09AC08B81282F30E0C2
:102030003D832C838C819D818430910509F45FC0A0
:102040002C813D8125303105DCF48C819D818130EE
:10205000910509F43FC02C813D81223031052CF4DB
:102060008C819D81009779F174C02C813D81223053
:102070003105B9F18C819D8183309105C9F169C029
:102080002C813D812730310509F44EC08C819D8122
:10209000883091055CF42C813D8125303105B1F10A
:1020A0008C819D8186309105C1F153C02C813D8189
:1020B0002830310509F43FC08C819D81893091051C
:1020C00009F440C046C0E981FA81808160EC0E9439
:1020D000B60C45C0E981FA81808169EF0E94B60C97
:1020E0003EC0E981FA81808164EA0E94B60C37C063
:1020F000E981FA81808160EB0E94B60C30C0E981F1
:10210000FA81808169E90E94B60C29C0E981FA81CF
:10211000808162E90E94B60C22C0E981FA81808147
:1021200062E80E94B60C1BC0E981FA81808168EFE9
:102130000E94B60C14C0E981FA81808160E80E9497
:10214000B60C0DC0E981FA81808160E90E94B60C6D
:1021500006C0E981FA81808166E80E94B60C279664
:102160000FB6F894DEBF0FBECDBFCF91DF910895BB
:10217000DF93CF9300D0CDB7DEB79A838983E9810F
:10218000FA818181E981FA819081692F41E00E9481
:10219000600A0F900F90CF91DF910895DF93CF9356
:1021A00000D0CDB7DEB79A838983E981FA81818136
:1021B000E981FA819081692F41E00E94B30B0F9071
:1021C0000F90CF91DF910895DF93CF9300D0CDB7DB
:1021D000DEB79A838983E981FA818181E981FA8175
:1021E0009081692F40E00E94B30B0F900F90CF9128
:1021F000DF910895DF93CF9300D0CDB7DEB79A83F8
:1022000089838091BE01882371F4E981FA818181FB
:10221000E981FA819081692F41E00E94B30B81E04E
:102220008093BE010CC0E981FA818181E981FA8144
:102230009081692F40E00E94B30B1092BE010F9075
:102240000F90CF91DF910895DF93CF93CDB7DEB795
:1022500080E062E040E00E94600A81E062E040E0ED
:102260000E94600A82E062E040E00E94600A83E02F
:1022700062E040E00E94600A84E062E041E00E9487
:10228000600A85E062E041E00E94600A86E062E068
:1022900041E00E94600A87E062E041E00E94600A3B
:1022A00080E062E041E00E94B30B81E062E041E047
:1022B0000E94B30B82E062E041E00E94B30B83E036
:1022C00062E041E00E94B30B84E062E041E00E94E2
:1022D000B30B85E062E041E00E94B30B86E062E070
:1022E00041E00E94B30B87E062E041E00E94B30B43
:1022F000CF91DF910895DF93CF93CDB7DEB762978B
:102300000FB6F894DEBF0FBECDBF8FEF8F8784E08E
:10231000888BB5C0888962E040E00E94B30B198ABF
:10232000A2C09E012E5E3F4F898962E0A9010E94F2
:10233000FE0C8A89882309F093C08889882F90E051
:10234000AC01445050408989282F30E0CA01880FE1
:10235000991F880F991F820F931FFC01EA56FE4FA9
:1023600080818F8708C09E012E5E3F4F898962E081
:10237000A9010E94FE0C8A898823A9F380E090E0DD
:10238000A0E2B1E48B879C87AD87BE876B857C8597
:102390008D859E8520E030E04AEF54E40E941F02C4
:1023A000DC01CB018F839887A987BA876F817885F5
:1023B00089859A8520E030E040E85FE30E942504AB
:1023C00088232CF481E090E09E838D833FC06F8151
:1023D000788589859A8520E03FEF4FE757E40E9492
:1023E000C50318164CF56B857C858D859E8520E090
:1023F00030E040E251E40E941F02DC01CB01BC014D
:10240000CD010E944900DC01CB019E838D830FC06A
:1024100088EC90E09C838B838B819C810197F1F702
:102420009C838B838D819E8101979E838D838D817B
:102430009E81009769F714C06F81788589859A8598
:102440000E944900DC01CB019E838D838D819E819A
:102450009A83898389819A810197F1F79A83898385
:1024600089898F5F898B8989843008F45ACF88895C
:1024700062E041E00E94B30B88898F5F888B888976
:10248000883008F447CF8F858F3F09F440CF8F8580
:1024900062960FB6F894DEBF0FBECDBFCF91DF912D
:1024A0000895DF93CF93CDB7DEB76D970FB6F8944D
:1024B000DEBF0FBECDBF8D8F80E062E040E00E94A6
:1024C000B30B81E062E040E00E94B30B82E06D8DCF
:1024D0000E94B60C82E062E041E00E94B30B80E013
:1024E00090E0A0E0B0E4898F9A8FAB8FBC8F698DAC
:1024F0007A8D8B8D9C8D20E030E04AEF54E40E9471
:102500001F02DC01CB018D8B9E8BAF8BB88F6D8949
:102510007E898F89988D20E030E040E85FE30E945B
:10252000250488232CF481E090E09C8B8B8B3FC0AA
:102530006D897E898F89988D20E03FEF4FE757E4C2
:102540000E94C50318164CF5698D7A8D8B8D9C8D74
:1025500020E030E040E251E40E941F02DC01CB01A8
:10256000BC01CD010E944900DC01CB019C8B8B8B0F
:102570000FC088EC90E09A8B898B89899A890197A2
:10258000F1F79A8B898B8B899C8901979C8B8B8B1C
:102590008B899C89009769F714C06D897E898F8922
:1025A000988D0E944900DC01CB019C8B8B8B8B8921
:1025B0009C89988B8F878F8598890197F1F7988BE5
:1025C0008F8782E062E040E00E94B30B80E090E001
:1025D000A0E0B0E48B879C87AD87BE876B857C8548
:1025E0008D859E8520E030E04AEF54E40E941F0272
:1025F000DC01CB018F839887A987BA876F817885A3
:1026000089859A8520E030E040E85FE30E94250458
:1026100088232CF481E090E09E838D833FC06F81FE
:10262000788589859A8520E03FEF4FE757E40E943F
:10263000C50318164CF56B857C858D859E8520E03D
:1026400030E040E251E40E941F02DC01CB01BC01FA
:10265000CD010E944900DC01CB019E838D830FC018
:1026600088EC90E09C838B838B819C810197F1F7B0
:102670009C838B838D819E8101979E838D838D8129
:102680009E81009769F714C06F81788589859A8546
:102690000E944900DC01CB019E838D838D819E8148
:1026A0009A83898389819A810197F1F79A83898333
:1026B00082E062E041E00E94B30B6D960FB6F894A1
:1026C000DEBF0FBECDBFCF91DF910895DF93CF93D3
:1026D000CDB7DEB7E8970FB6F894DEBF0FBECDBF1B
:1026E00082E06FEF0E94630B80E062E041E00E94B5
:1026F000600A81E062E041E00E94600A82E062E0FC
:1027000041E00E94600A80E090E0A0EFB1E48DAB70
:102710009EABAFABB8AF6DA97EA98FA998AD20E0F5
:1027200030E04AEF54E40E941F02DC01CB0189AB88
:102730009AABABABBCAB69A97AA98BA99CA920E0E9
:1027400030E040E85FE30E94250488232CF481E018
:1027500090E098AB8FA73FC069A97AA98BA99CA9E3
:1027600020E03FEF4FE757E40E94C50318164CF5F1
:102770006DA97EA98FA998AD20E030E040E251E438
:102780000E941F02DC01CB01BC01CD010E94490067
:10279000DC01CB0198AB8FA70FC088EC90E09EA71F
:1027A0008DA78DA59EA50197F1F79EA78DA78FA553
:1027B00098A9019798AB8FA78FA598A9009769F75B
:1027C00014C069A97AA98BA99CA90E944900DC01BF
:1027D000CB0198AB8FA78FA598A99CA78BA78BA59A
:1027E0009CA50197F1F79CA78BA788E20E94511244
:1027F00080E090E0A0E8BFE38FA398A7A9A7BAA7BD
:102800006FA178A589A59AA520E030E04AEF54E4AD
:102810000E941F02DC01CB018BA39CA3ADA3BEA32E
:102820006BA17CA18DA19EA120E030E040E85FE398
:102830000E94250488232CF481E090E09AA389A3C8
:102840003FC06BA17CA18DA19EA120E03FEF4FE78F
:1028500057E40E94C50318164CF56FA178A589A509
:102860009AA520E030E040E251E40E941F02DC0122
:10287000CB01BC01CD010E944900DC01CB019AA330
:1028800089A30FC088EC90E098A38F8F8F8D98A1BB
:102890000197F1F798A38F8F89A19AA101979AA325
:1028A00089A389A19AA1009769F714C06BA17CA1A3
:1028B0008DA19EA10E944900DC01CB019AA389A3AE
:1028C00089A19AA19E8F8D8F8D8D9E8D0197F1F795
:1028D0009E8F8D8F8FE00E94511280E090E0A0E8E3
:1028E000BFE3898F9A8FAB8FBC8F698D7A8D8B8D6B
:1028F0009C8D20E030E04AEF54E40E941F02DC018E
:10290000CB018D8B9E8BAF8BB88F6D897E898F8924
:10291000988D20E030E040E85FE30E9425048823A2
:102920002CF481E090E09C8B8B8B3FC06D897E897D
:102930008F89988D20E03FEF4FE757E40E94C50351
:1029400018164CF5698D7A8D8B8D9C8D20E030E0CA
:1029500040E251E40E941F02DC01CB01BC01CD0129
:102960000E944900DC01CB019C8B8B8B0FC088EC53
:1029700090E09A8B898B89899A890197F1F79A8BD4
:10298000898B8B899C8901979C8B8B8B8B899C89EC
:10299000009769F714C06D897E898F89988D0E9490
:1029A0004900DC01CB019C8B8B8B8B899C89988B9C
:1029B0008F878F8598890197F1F7988B8F8781E0B2
:1029C0000E94511280E090E0A0E0B0E48B879C87E9
:1029D000AD87BE876B857C858D859E8520E030E048
:1029E0004AEF54E40E941F02DC01CB018F839887D9
:1029F000A987BA876F81788589859A8520E030E03C
:102A000040E85FE30E94250488232CF481E090E0F5
:102A10009E838D833FC06F81788589859A8520E06C
:102A20003FEF4FE757E40E94C50318164CF56B853E
:102A30007C858D859E8520E030E040E251E40E9457
:102A40001F02DC01CB01BC01CD010E944900DC0169
:102A5000CB019E838D830FC088EC90E09C838B8399
:102A60008B819C810197F1F79C838B838D819E8163
:102A700001979E838D838D819E81009769F714C095
:102A80006F81788589859A850E944900DC01CB0198
:102A90009E838D838D819E819A83898389819A818A
:102AA0000197F1F79A83898386E00E945112E89694
:102AB0000FB6F894DEBF0FBECDBFCF91DF91089562
:102AC000DF93CF93CDB7DEB76D970FB6F894DEBF27
:102AD0000FBECDBF8D8F80E062E041E00E94B30B5E
:102AE00081E062E040E00E94B30B82E06D8D0E94C5
:102AF000B60C82E062E041E00E94B30B80E090E01F
:102B0000A0E0B0E4898F9A8FAB8FBC8F698D7A8DEE
:102B10008B8D9C8D20E030E04AEF54E40E941F0230
:102B2000DC01CB018D8B9E8BAF8BB88F6D897E893D
:102B30008F89988D20E030E040E85FE30E94250413
:102B400088232CF481E090E09C8B8B8B3FC06D89B7
:102B50007E898F89988D20E03FEF4FE757E40E94F0
:102B6000C50318164CF5698D7A8D8B8D9C8D20E0F0
:102B700030E040E251E40E941F02DC01CB01BC01C5
:102B8000CD010E944900DC01CB019C8B8B8B0FC0D7
:102B900088EC90E09A8B898B89899A890197F1F763
:102BA0009A8B898B8B899C8901979C8B8B8B8B89CA
:102BB0009C89009769F714C06D897E898F89988DEB
:102BC0000E944900DC01CB019C8B8B8B8B899C89FB
:102BD000988B8F878F8598890197F1F7988B8F87CE
:102BE00082E062E040E00E94B30B80E090E0A0E071
:102BF000B0E48B879C87AD87BE876B857C858D8590
:102C00009E8520E030E04AEF54E40E941F02DC0180
:102C1000CB018F839887A987BA876F81788589854B
:102C20009A8520E030E040E85FE30E942504882395
:102C30002CF481E090E09E838D833FC06F81788586
:102C400089859A8520E03FEF4FE757E40E94C5034E
:102C500018164CF56B857C858D859E8520E030E0CF
:102C600040E251E40E941F02DC01CB01BC01CD0116
:102C70000E944900DC01CB019E838D830FC088EC4C
:102C800090E09C838B838B819C810197F1F79C83DF
:102C90008B838D819E8101979E838D838D819E8103
:102CA000009769F714C06F81788589859A850E949D
:102CB0004900DC01CB019E838D838D819E819A83A7
:102CC000898389819A810197F1F79A83898382E0C8
:102CD00062E041E00E94B30B6D960FB6F894DEBF40
:102CE0000FBECDBFCF91DF910895DF93CF9300D07A
:102CF0000F92CDB7DEB79B838A8319820EC089817C
:102D0000282F30E08A819B81FC01E20FF31F808134
:102D10000E94601589818F5F89838981282F30E027
:102D20008A819B81FC01E20FF31F8081882339F7A0
:102D30000F900F900F90CF91DF9108950F931F93F5
:102D4000DF93CF93CDB7DEB760970FB6F894DEBFB1
:102D50000FBECDBF6D877E878F87988B1A828D853A
:102D60009E85AF85B8890097A105B10509F44FC0CC
:102D70002DC08A81082F10E08D859E85AF85B8898A
:102D80002AE030E040E050E0BC01CD010E942D2659
:102D9000DC01CB01282FCE010396FC01E00FF11FCF
:102DA00020838D859E85AF85B8892AE030E040E09C
:102DB00050E0BC01CD010E942D26DA01C9018D87AA
:102DC0009E87AF87B88B8A818F5F8A838D859E852A
:102DD000AF85B8890097A105B10559F68A81815060
:102DE000898311C08981282F332727FD3095CE0193
:102DF0000396FC01E20FF31F8081805D0E94601545
:102E00008981815089838981882364F703C080E3A5
:102E10000E94601560960FB6F894DEBF0FBECDBF5E
:102E2000CF91DF911F910F910895DF93CF9300D041
:102E3000CDB7DEB789836A838981813041F48A8185
:102E4000803128F48A8180580E9451120AC08981F9
:102E5000823039F48A81803120F48A8180540E9442
:102E600051120F900F90CF91DF910895DF93CF9380
:102E700000D000D0CDB7DEB78A837C836B838A8194
:102E80008830F8F48A81882F90E00896880F991F7F
:102E9000880F991F880F991F0E94511219820EC026
:102EA0008981282F30E08B819C81FC01E20FF31F88
:102EB00080810E94601589818F5F89838981883034
:102EC00078F30F900F900F900F90CF91DF910895AE
:102ED000DF93CF93CDB7DEB72E970FB6F894DEBF52
:102EE0000FBECDBF81E00E94511280E090E0A0E0D3
:102EF000B0E48B879C87AD87BE876B857C858D858D
:102F00009E8520E030E04AEF54E40E941F02DC017D
:102F1000CB018F839887A987BA876F817885898548
:102F20009A8520E030E040E85FE30E942504882392
:102F30002CF481E090E09E838D833FC06F81788583
:102F400089859A8520E03FEF4FE757E40E94C5034B
:102F500018164CF56B857C858D859E8520E030E0CC
:102F600040E251E40E941F02DC01CB01BC01CD0113
:102F70000E944900DC01CB019E838D830FC088EC49
:102F800090E09C838B838B819C810197F1F79C83DC
:102F90008B838D819E8101979E838D838D819E8100
:102FA000009769F714C06F81788589859A850E949A
:102FB0004900DC01CB019E838D838D819E819A83A4
:102FC000898389819A810197F1F79A8389832E9663
:102FD0000FB6F894DEBF0FBECDBFCF91DF9108953D
:102FE000DF93CF93CDB7DEB760970FB6F894DEBF0F
:102FF0000FBECDBF888B1F8678C088E10E9451121A
:1030000080E090E0A6E9B3E48B879C87AD87BE871C
:103010006B857C858D859E8520E030E04AEF54E409
:103020000E941F02DC01CB018F839887A987BA8792
:103030006F81788589859A8520E030E040E85FE3FC
:103040000E94250488232CF481E090E09E838D83E8
:103050003FC06F81788589859A8520E03FEF4FE7F3
:1030600057E40E94C50318164CF56B857C858D8549
:103070009E8520E030E040E251E40E941F02DC0126
:10308000CB01BC01CD010E944900DC01CB019E8334
:103090008D830FC088EC90E09C838B838B819C8117
:1030A0000197F1F79C838B838D819E8101979E838D
:1030B0008D838D819E81009769F714C06F8178851B
:1030C00089859A850E944900DC01CB019E838D830E
:1030D0008D819E819A83898389819A810197F1F7F5
:1030E0009A8389838F858F5F8F879F8588899817BB
:1030F00008F483CF60960FB6F894DEBF0FBECDBF45
:10310000CF91DF910895DF93CF93CDB7DEB760976E
:103110000FB6F894DEBF0FBECDBF888B1F8678C078
:103120008CE10E94511280E090E0A6E9B3E48B8725
:103130009C87AD87BE876B857C858D859E8520E0CD
:1031400030E04AEF54E40E941F02DC01CB018F8380
:103150009887A987BA876F81788589859A8520E0C5
:1031600030E040E85FE30E94250488232CF481E0EE
:1031700090E09E838D833FC06F81788589859A8595
:1031800020E03FEF4FE757E40E94C50318164CF5C7
:103190006B857C858D859E8520E030E040E251E4A2
:1031A0000E941F02DC01CB01BC01CD010E9449003D
:1031B000DC01CB019E838D830FC088EC90E09C8363
:1031C0008B838B819C810197F1F79C838B838D810D
:1031D0009E8101979E838D838D819E81009769F7E3
:1031E00014C06F81788589859A850E944900DC0129
:1031F000CB019E838D838D819E819A838983898172
:103200009A810197F1F79A8389838F858F5F8F87E2
:103210009F858889981708F483CF60960FB6F89435
:10322000DEBF0FBECDBFCF91DF910895DF93CF9367
:10323000CDB7DEB760970FB6F894DEBF0FBECDBF37
:10324000888B1F8678C080E10E94511280E090E058
:10325000A6E9B3E48B879C87AD87BE876B857C85A9
:103260008D859E8520E030E04AEF54E40E941F02E5
:10327000DC01CB018F839887A987BA876F81788516
:1032800089859A8520E030E040E85FE30E942504CC
:1032900088232CF481E090E09E838D833FC06F8172
:1032A000788589859A8520E03FEF4FE757E40E94B3
:1032B000C50318164CF56B857C858D859E8520E0B1
:1032C00030E040E251E40E941F02DC01CB01BC016E
:1032D000CD010E944900DC01CB019E838D830FC08C
:1032E00088EC90E09C838B838B819C810197F1F724
:1032F0009C838B838D819E8101979E838D838D819D
:103300009E81009769F714C06F81788589859A85B9
:103310000E944900DC01CB019E838D838D819E81BB
:103320009A83898389819A810197F1F79A838983A6
:103330008F858F5F8F879F858889981708F483CF43
:1033400060960FB6F894DEBF0FBECDBFCF91DF9170
:103350000895DF93CF93CDB7DEB760970FB6F8949B
:10336000DEBF0FBECDBF888B1F8678C084E10E9470
:10337000511280E090E0A6E9B3E48B879C87AD878B
:10338000BE876B857C858D859E8520E030E04AEF89
:1033900054E40E941F02DC01CB018F839887A98728
:1033A000BA876F81788589859A8520E030E040E88A
:1033B0005FE30E94250488232CF481E090E09E8343
:1033C0008D833FC06F81788589859A8520E03FEFA6
:1033D0004FE757E40E94C50318164CF56B857C85B2
:1033E0008D859E8520E030E040E251E40E941F027E
:1033F000DC01CB01BC01CD010E944900DC01CB0105
:103400009E838D830FC088EC90E09C838B838B819F
:103410009C810197F1F79C838B838D819E8101971D
:103420009E838D838D819E81009769F714C06F8183
:10343000788589859A850E944900DC01CB019E83AD
:103440008D838D819E819A83898389819A81019759
:10345000F1F79A8389838F858F5F8F879F8588890E
:10346000981708F483CF60960FB6F894DEBF0FBEAE
:10347000CDBFCF91DF910895DF93CF93CDB7DEB766
:103480002F970FB6F894DEBF0FBECDBF8F8780E0B9
:1034900062E040E00E94B30B81E062E040E00E9405
:1034A000B30B84E062E04F850E94960D82E062E0FB
:1034B00041E00E94B30B80E090E0A0E0B0E48B8795
:1034C0009C87AD87BE876B857C858D859E8520E03A
:1034D00030E04AEF54E40E941F02DC01CB018F83ED
:1034E0009887A987BA876F81788589859A8520E032
:1034F00030E040E85FE30E94250488232CF481E05B
:1035000090E09E838D833FC06F81788589859A8501
:1035100020E03FEF4FE757E40E94C50318164CF533
:103520006B857C858D859E8520E030E040E251E40E
:103530000E941F02DC01CB01BC01CD010E944900A9
:10354000DC01CB019E838D830FC088EC90E09C83CF
:103550008B838B819C810197F1F79C838B838D8179
:103560009E8101979E838D838D819E81009769F74F
:1035700014C06F81788589859A850E944900DC0195
:10358000CB019E838D838D819E819A8389838981DE
:103590009A810197F1F79A83898382E062E040E0A3
:1035A0000E94B30B2F960FB6F894DEBF0FBECDBFAF
:1035B000CF91DF910895DF93CF93CDB7DEB7E99731
:1035C0000FB6F894DEBF0FBECDBF87E089AF08C04D
:1035D00089AD62E041E00E94600A89AD815089AF07
:1035E00089AD8430ACF780E062E041E00E94600A7F
:1035F00081E062E041E00E94600A82E062E041E036
:103600000E94600A80E090E0A0EFB1E48DAB9EAB39
:10361000AFABB8AF6DA97EA98FA998AD20E030E01F
:103620004AEF54E40E941F02DC01CB0189AB9AAB44
:10363000ABABBCAB69A97AA98BA99CA920E030E00F
:1036400040E85FE30E94250488232CF481E090E0A9
:1036500098AB8FA73FC069A97AA98BA99CA920E044
:103660003FEF4FE757E40E94C50318164CF56DA9CC
:103670007EA98FA998AD20E030E040E251E40E949D
:103680001F02DC01CB01BC01CD010E944900DC011D
:10369000CB0198AB8FA70FC088EC90E09EA78DA7B9
:1036A0008DA59EA50197F1F79EA78DA78FA598A937
:1036B000019798AB8FA78FA598A9009769F714C0B9
:1036C00069A97AA98BA99CA90E944900DC01CB01B8
:1036D00098AB8FA78FA598A99CA78BA78BA59CA516
:1036E0000197F1F79CA78BA782E00E943C1A82E029
:1036F0000E943C1A88E20E943C1A80E090E0A0E818
:10370000BFE38FA398A7A9A7BAA76FA178A589A59A
:103710009AA520E030E04AEF54E40E941F02DC0149
:10372000CB018BA39CA3ADA3BEA36BA17CA18DA158
:103730009EA120E030E040E85FE30E94250488235A
:103740002CF481E090E09AA389A33FC06BA17CA1F7
:103750008DA19EA120E03FEF4FE757E40E94C503F3
:1037600018164CF56FA178A589A59AA520E030E040
:1037700040E251E40E941F02DC01CB01BC01CD01FB
:103780000E944900DC01CB019AA389A30FC088ECF9
:1037900090E098A38F8F8F8D98A10197F1F798A350
:1037A0008F8F89A19AA101979AA389A389A19AA130
:1037B000009769F714C06BA17CA18DA19EA10E9406
:1037C0004900DC01CB019AA389A389A19AA19E8F0C
:1037D0008D8F8D8D9E8D0197F1F79E8F8D8F80E05F
:1037E0000E943C1A8FE00E943C1A80E090E0A0E822
:1037F000BFE3898F9A8FAB8FBC8F698D7A8D8B8D4C
:103800009C8D20E030E04AEF54E40E941F02DC016E
:10381000CB018D8B9E8BAF8BB88F6D897E898F8905
:10382000988D20E030E040E85FE30E942504882383
:103830002CF481E090E09C8B8B8B3FC06D897E895E
:103840008F89988D20E03FEF4FE757E40E94C50332
:1038500018164CF5698D7A8D8B8D9C8D20E030E0AB
:1038600040E251E40E941F02DC01CB01BC01CD010A
:103870000E944900DC01CB019C8B8B8B0FC088EC34
:1038800090E09A8B898B89899A890197F1F79A8BB5
:10389000898B8B899C8901979C8B8B8B8B899C89CD
:1038A000009769F714C06D897E898F89988D0E9471
:1038B0004900DC01CB019C8B8B8B8B899C89988B7D
:1038C0008F878F8598890197F1F7988B8F8780E094
:1038D0000E943C1A81E00E943C1A80E090E0A0E047
:1038E000B0E48B879C87AD87BE876B857C858D8593
:1038F0009E8520E030E04AEF54E40E941F02DC0184
:10390000CB018F839887A987BA876F81788589854E
:103910009A8520E030E040E85FE30E942504882398
:103920002CF481E090E09E838D833FC06F81788589
:1039300089859A8520E03FEF4FE757E40E94C50351
:1039400018164CF56B857C858D859E8520E030E0D2
:1039500040E251E40E941F02DC01CB01BC01CD0119
:103960000E944900DC01CB019E838D830FC088EC4F
:1039700090E09C838B838B819C810197F1F79C83E2
:103980008B838D819E8101979E838D838D819E8106
:10399000009769F714C06F81788589859A850E94A0
:1039A0004900DC01CB019E838D838D819E819A83AA
:1039B000898389819A810197F1F79A83898380E0CD
:1039C0000E943C1A86E00E943C1AE9960FB6F894D1
:1039D000DEBF0FBECDBFCF91DF910895DF93CF93B0
:1039E000CDB7DEB72F970FB6F894DEBF0FBECDBFB1
:1039F0008F8780E062E041E00E94B30B81E062E0EB
:103A000040E00E94B30B84E062E04F850E94960D77
:103A100082E062E041E00E94B30B80E090E0A0E031
:103A2000B0E48B879C87AD87BE876B857C858D8551
:103A30009E8520E030E04AEF54E40E941F02DC0142
:103A4000CB018F839887A987BA876F81788589850D
:103A50009A8520E030E040E85FE30E942504882357
:103A60002CF481E090E09E838D833FC06F81788548
:103A700089859A8520E03FEF4FE757E40E94C50310
:103A800018164CF56B857C858D859E8520E030E091
:103A900040E251E40E941F02DC01CB01BC01CD01D8
:103AA0000E944900DC01CB019E838D830FC088EC0E
:103AB00090E09C838B838B819C810197F1F79C83A1
:103AC0008B838D819E8101979E838D838D819E81C5
:103AD000009769F714C06F81788589859A850E945F
:103AE0004900DC01CB019E838D838D819E819A8369
:103AF000898389819A810197F1F79A83898382E08A
:103B000062E040E00E94B30B2F960FB6F894DEBF40
:103B10000FBECDBFCF91DF910895DF93CF930F926A
:103B2000CDB7DEB78983898182958F700E94EE1CA4
:103B300089810E94EE1C0F90CF91DF910895DF9351
:103B4000CF9300D00F92CDB7DEB79B838A831982C3
:103B50000EC08981282F30E08A819B81FC01E20F11
:103B6000F31F80810E948D1D89818F5F89838981E8
:103B7000282F30E08A819B81FC01E20FF31F8081B6
:103B8000882339F70F900F900F90CF91DF91089510
:103B90000F931F93DF93CF93CDB7DEB760970FB628
:103BA000F894DEBF0FBECDBF6D877E878F87988B61
:103BB0001A828D859E85AF85B8890097A105B105CC
:103BC00009F44FC02DC08A81082F10E08D859E8595
:103BD000AF85B8892AE030E040E050E0BC01CD017B
:103BE0000E942D26DC01CB01282FCE010396FC017B
:103BF000E00FF11F20838D859E85AF85B8892AE06F
:103C000030E040E050E0BC01CD010E942D26DA01F9
:103C1000C9018D879E87AF87B88B8A818F5F8A8322
:103C20008D859E85AF85B8890097A105B10559F6A8
:103C30008A818150898311C08981282F332727FDEC
:103C40003095CE010396FC01E20FF31F8081805D69
:103C50000E948D1D8981815089838981882364F721
:103C600003C080E30E948D1D60960FB6F894DEBFFE
:103C70000FBECDBFCF91DF911F910F910895DF93BC
:103C8000CF9300D0CDB7DEB789836A838981813035
:103C9000B9F48A818031A0F48A81882F90E080581D
:103CA0009F4F95958795959587959595879595952A
:103CB00087950E943C1A8A8180580E943C1A19C03C
:103CC00089818230B1F48A81803198F48A81882F89
:103CD00090E080549F4F95958795959587959595FC
:103CE0008795959587950E943C1A8A8180540E94F9
:103CF0003C1A0F900F90CF91DF910895DF93CF93EF
:103D000000D000D0CDB7DEB78A837C836B838A81F5
:103D1000883098F58A81882F90E00896880F991F3F
:103D2000880F991F880F991F959587959595879569
:103D300095958795959587950E943C1A8A81882F3D
:103D400090E00896880F991F880F991F880F991F78
:103D50000E943C1A19820EC08981282F30E08B8185
:103D60009C81FC01E20FF31F80810E948D1D8981DF
:103D70008F5F89838981883078F30F900F900F903F
:103D80000F90CF91DF910895DF93CF93CDB7DEB73A
:103D90002E970FB6F894DEBF0FBECDBF80E00E9415
:103DA0003C1A81E00E943C1A80E090E0A0E0B0E480
:103DB0008B879C87AD87BE876B857C858D859E852F
:103DC00020E030E04AEF54E40E941F02DC01CB0106
:103DD0008F839887A987BA876F81788589859A8527
:103DE00020E030E040E85FE30E94250488232CF4C3
:103DF00081E090E09E838D833FC06F8178858985C7
:103E00009A8520E03FEF4FE757E40E94C50318165C
:103E10004CF56B857C858D859E8520E030E040E209
:103E200051E40E941F02DC01CB01BC01CD010E94C4
:103E30004900DC01CB019E838D830FC088EC90E0AC
:103E40009C838B838B819C810197F1F79C838B836F
:103E50008D819E8101979E838D838D819E810097A8
:103E600069F714C06F81788589859A850E94490019
:103E7000DC01CB019E838D838D819E819A83898312
:103E800089819A810197F1F79A8389832E960FB6DB
:103E9000F894DEBF0FBECDBFCF91DF910895DF93C1
:103EA000CF93CDB7DEB760970FB6F894DEBF0FBEE5
:103EB000CDBF888B1F867BC081E00E943C1A88E1C1
:103EC0000E943C1A80E090E0A6E9B3E48B879C87CF
:103ED000AD87BE876B857C858D859E8520E030E033
:103EE0004AEF54E40E941F02DC01CB018F839887C4
:103EF000A987BA876F81788589859A8520E030E027
:103F000040E85FE30E94250488232CF481E090E0E0
:103F10009E838D833FC06F81788589859A8520E057
:103F20003FEF4FE757E40E94C50318164CF56B8529
:103F30007C858D859E8520E030E040E251E40E9442
:103F40001F02DC01CB01BC01CD010E944900DC0154
:103F5000CB019E838D830FC088EC90E09C838B8384
:103F60008B819C810197F1F79C838B838D819E814E
:103F700001979E838D838D819E81009769F714C080
:103F80006F81788589859A850E944900DC01CB0183
:103F90009E838D838D819E819A83898389819A8175
:103FA0000197F1F79A8389838F858F5F8F879F852C
:103FB0008889981708F480CF60960FB6F894DEBF12
:103FC0000FBECDBFCF91DF910895DF93CF93CDB7D3
:103FD000DEB760970FB6F894DEBF0FBECDBF888BFB
:103FE0001F867BC081E00E943C1A8CE10E943C1A33
:103FF00080E090E0A6E9B3E48B879C87AD87BE871D
:104000006B857C858D859E8520E030E04AEF54E409
:104010000E941F02DC01CB018F839887A987BA8792
:104020006F81788589859A8520E030E040E85FE3FC
:104030000E94250488232CF481E090E09E838D83E8
:104040003FC06F81788589859A8520E03FEF4FE7F3
:1040500057E40E94C50318164CF56B857C858D8549
:104060009E8520E030E040E251E40E941F02DC0126
:10407000CB01BC01CD010E944900DC01CB019E8334
:104080008D830FC088EC90E09C838B838B819C8117
:104090000197F1F79C838B838D819E8101979E838D
:1040A0008D838D819E81009769F714C06F8178851B
:1040B00089859A850E944900DC01CB019E838D830E
:1040C0008D819E819A83898389819A810197F1F7F5
:1040D0009A8389838F858F5F8F879F8588899817BB
:1040E00008F480CF60960FB6F894DEBF0FBECDBF48
:1040F000CF91DF910895DF93CF93CDB7DEB760976F
:104100000FB6F894DEBF0FBECDBF888B1F867BC075
:1041100081E00E943C1A80E10E943C1A80E090E01D
:10412000A6E9B3E48B879C87AD87BE876B857C85CA
:104130008D859E8520E030E04AEF54E40E941F0206
:10414000DC01CB018F839887A987BA876F81788537
:1041500089859A8520E030E040E85FE30E942504ED
:1041600088232CF481E090E09E838D833FC06F8193
:10417000788589859A8520E03FEF4FE757E40E94D4
:10418000C50318164CF56B857C858D859E8520E0D2
:1041900030E040E251E40E941F02DC01CB01BC018F
:1041A000CD010E944900DC01CB019E838D830FC0AD
:1041B00088EC90E09C838B838B819C810197F1F745
:1041C0009C838B838D819E8101979E838D838D81BE
:1041D0009E81009769F714C06F81788589859A85DB
:1041E0000E944900DC01CB019E838D838D819E81DD
:1041F0009A83898389819A810197F1F79A838983C8
:104200008F858F5F8F879F858889981708F480CF67
:1042100060960FB6F894DEBF0FBECDBFCF91DF9191
:104220000895DF93CF93CDB7DEB760970FB6F894BC
:10423000DEBF0FBECDBF888B1F867BC081E00E9492
:104240003C1A84E10E943C1A80E090E0A6E9B3E4C5
:104250008B879C87AD87BE876B857C858D859E858A
:1042600020E030E04AEF54E40E941F02DC01CB0161
:104270008F839887A987BA876F81788589859A8582
:1042800020E030E040E85FE30E94250488232CF41E
:1042900081E090E09E838D833FC06F817885898522
:1042A0009A8520E03FEF4FE757E40E94C5031816B8
:1042B0004CF56B857C858D859E8520E030E040E265
:1042C00051E40E941F02DC01CB01BC01CD010E9420
:1042D0004900DC01CB019E838D830FC088EC90E008
:1042E0009C838B838B819C810197F1F79C838B83CB
:1042F0008D819E8101979E838D838D819E81009704
:1043000069F714C06F81788589859A850E94490074
:10431000DC01CB019E838D838D819E819A8389836D
:1043200089819A810197F1F79A8389838F858F5FBD
:104330008F879F858889981708F480CF60960FB67D
:10434000F894DEBF0FBECDBFCF91DF910895AF923D
:10435000BF92CF92DF92EF92FF920F931F93DF9362
:10436000CF93CDB7DEB7CB56D0400FB6F894DEBFB3
:104370000FBECDBF1CAA1BAA1AAA19AA18AA1FA64B
:104380001EA61DA619A61AA61BA61CA618A61FA225
:1043900088E0FE01F596DF01A82E1D92AA94E9F7A8
:1043A0008FE18BAF88E0FE01FD96DF01A82E1D9204
:1043B000AA94E9F78FE18DAFCE018B5B9F4F6F968B
:1043C0009FAF8EAF6F9706EB11E0A1961FAF0EAFB8
:1043D000A19718E0A2961FAFA297A196AEADBFAD70
:1043E000A1970C90A196EEADFFADA1973196A19645
:1043F000FFAFEEAFA1976F96AEADBFAD6F970C92CA
:104400006F96EEADFFAD6F9731966F96FFAFEEAF43
:104410006F97A296FFADA297F150A296FFAFA29719
:10442000A296AFACA297AA20C1F6CE01835B9F4FA4
:10443000A4969FAF8EAFA4970EEA11E0A6961FAF89
:104440000EAFA69718E0A7961FAFA797A696AEAD9A
:10445000BFADA6970C90A696EEADFFADA697319690
:10446000A696FFAFEEAFA697A496AEADBFADA4974C
:104470000C92A496EEADFFADA4973196A496FFAF33
:10448000EEAFA497A796FFADA797F150A796FFAF01
:10449000A797A796AFACA797AA20C1F6CE018B5AD3
:1044A0009F4FA9969FAF8EAFA99706EA11E0AB96F2
:1044B0001FAF0EAFAB9718E0AC961FAFAC97AB96A3
:1044C000AEADBFADAB970C90AB96EEADFFADAB977D
:1044D0003196AB96FFAFEEAFAB97A996AEADBFAD41
:1044E000A9970C92A996EEADFFADA9973196A99622
:1044F000FFAFEEAFA997AC96FFADAC97F150AC967D
:10450000FFAFAC97AC96AFACAC97AA20C1F684E9EC
:1045100091E00E94B8100E94DB1A9E012B5C3F4F75
:1045200080E0B9010E947E1E9E01235C3F4F81E026
:10453000B9010E947E1E9E012B5B3F4F82E0B901B4
:104540000E947E1E9E01235B3F4F83E0B9010E94C3
:104550007E1E9E012B5A3F4F84E0B9010E947E1EB1
:1045600081E060E00E943F1E80E690E00E949F1D77
:1045700080E090E0AAE7B4E4898F9A8FAB8FBC8F7C
:10458000698D7A8D8B8D9C8D20E030E04AEF54E46C
:104590000E941F02DC01CB018D8B9E8BAF8BB88FED
:1045A0006D897E898F89988D20E030E040E85FE357
:1045B0000E94250488232CF481E090E09C8B8B8B57
:1045C0003FC06D897E898F89988D20E03FEF4FE74E
:1045D00057E40E94C50318164CF5698D7A8D8B8DB2
:1045E0009C8D20E030E040E251E40E941F02DC019B
:1045F000CB01BC01CD010E944900DC01CB019C8BA9
:104600008B8B0FC088EC90E09A8B898B89899A8973
:104610000197F1F79A8B898B8B899C8901979C8BE9
:104620008B8B8B899C89009769F714C06D897E8973
:104630008F89988D0E944900DC01CB019C8B8B8B6C
:104640008B899C89988B8F878F8598890197F1F743
:10465000988B8F870E94C41E80E090E0AAE7B4E4A4
:104660008B879C87AD87BE876B857C858D859E8576
:1046700020E030E04AEF54E40E941F02DC01CB014D
:104680008F839887A987BA876F81788589859A856E
:1046900020E030E040E85FE30E94250488232CF40A
:1046A00081E090E09E838D833FC06F81788589850E
:1046B0009A8520E03FEF4FE757E40E94C5031816A4
:1046C0004CF56B857C858D859E8520E030E040E251
:1046D00051E40E941F02DC01CB01BC01CD010E940C
:1046E0004900DC01CB019E838D830FC088EC90E0F4
:1046F0009C838B838B819C810197F1F79C838B83B7
:104700008D819E8101979E838D838D819E810097EF
:1047100069F714C06F81788589859A850E94490060
:10472000DC01CB019E838D838D819E819A83898359
:1047300089819A810197F1F79A8389830E94900E6B
:104740000E9417078FEB0E9456070E94E20780E93C
:1047500095E20E94810882E096E20E946F080E9422
:10476000ED088091BF01833009F092C02091C9010A
:104770003091CA014091CB015091CC018091C1018F
:104780009091C201A091C301B091C40169017A0165
:10479000C81AD90AEA0AFB0AD701C601BC01CD0131
:1047A0000E94A904DC01CB01BC01CD0120E030E076
:1047B00040E05EE30E941F02DC01CB019C01AD01E1
:1047C00060E074E284E799E40E941903DC01CB0104
:1047D000BC01CD010E944900DC01CB0189A79AA749
:1047E000ABA7BCA72091C5013091C6014091C7017C
:1047F0005091C8018091C1019091C201A091C30163
:10480000B091C40179018A01E81AF90A0A0B1B0B5D
:10481000D801C701BC01CD010E94A9047B018C0114
:104820002091C9013091CA014091CB015091CC0136
:104830008091C1019091C201A091C301B091C401C6
:1048400059016A01A81AB90ACA0ADB0AD601C501C8
:10485000BC01CD010E94A9049B01AC01C801B701B4
:104860000E941903DC01CB01BC01CD0120E030E046
:1048700048EC52E40E941F02DC01CB01BC01CD01D7
:104880000E944900DC01CB0198A78FA31092BF01C1
:1048900080E00E94C10E9CAB8BAB8BA99CA9CC0184
:1048A000A0E0B0E028E833E140E050E0BC01CD01F9
:1048B0000E940E26DC01CB012FEF33E040E050E0F8
:1048C000BC01CD010E942D26DA01C9019AAB89AB4A
:1048D0008BA99CA996958795969587959EA78DA758
:1048E00081E060E00E943F1E8CE690E00E949F1DE8
:1048F0008FA198A5CC01A0E0B0E0BC01CD010E9441
:10490000C81D80E790E00E949F1D81E068E00E9442
:104910003F1E82E790E00E949F1D89A59AA5ABA546
:10492000BCA5BC01CD010E94C81D86E790E00E9495
:104930009F1D29A93AA98FA598A92817390709F415
:1049400010CF89A99AA998AB8FA78DA50E94560769
:1049500081E060E00E943F1E8CE690E00E949F1D77
:104960008FA198A5CC01A0E0B0E0BC01CD010E94D0
:10497000C81D80E790E00E949F1D81E069E00E94D1
:104980003F1E82E790E00E949F1D89A59AA5ABA5D6
:10499000BCA5BC01CD010E94C81D86E790E00E9425
:1049A0009F1D82E060E00E943F1E89E790E00E9428
:1049B0009F1D82E060E00E943F1E8FA198A5009796
:1049C000F9F48FA198A58B309105D0F41EA21DA2F9
:1049D00011C080E00E948D1D80E00E948D1D80E04E
:1049E0000E948D1D80E00E948D1D8DA19EA10196CB
:1049F0009EA38DA38DA19EA18131910554F3B1CECB
:104A00008FA198A584319105F8F08FA198A58F31D9
:104A10009105D0F41CA21BA211C084E00E948D1D40
:104A200080E00E948D1D80E00E948D1D80E00E942C
:104A30008D1D8BA19CA101969CA38BA38BA19CA1F6
:104A40008131910554F38DCE8FA198A58D329105BA
:104A5000F8F08FA198A588339105D0F41AA219A275
:104A600011C082E00E948D1D83E00E948D1D80E0B8
:104A70000E948D1D80E00E948D1D89A19AA1019642
:104A80009AA389A389A19AA18131910554F369CE92
:104A90008FA198A581349105F8F08FA198A586354E
:104AA0009105D0F418A21F8E11C082E00E948D1DC6
:104AB00081E00E948D1D83E00E948D1D80E00E9498
:104AC0008D1D8F8D98A1019698A38F8F8F8D98A1A2
:104AD0008131910554F345CE8FA198A58A35910572
:104AE00008F43FCE84E690E098A78FA31E8E1D8E1B
:104AF00011C081E00E948D1D81E00E948D1D81E02A
:104B00000E948D1D81E00E948D1D8D8D9E8D0196D0
:104B10009E8F8D8F8D8D9E8D8131910554F321CE89
:104B2000DF93CF93CDB7DEB78091BF01882309F51E
:104B30000E9445089C0140E050E08091C001882F10
:104B400090E0A0E0B0E0DC0199278827820F931F56
:104B5000A41FB51F8093C1019093C201A093C3010C
:104B6000B093C40180E00E94500881E08093BF01AF
:104B700046C08091BF01813009F50E9445089C0123
:104B800040E050E08091C001882F90E0A0E0B0E0CC
:104B9000DC0199278827820F931FA41FB51F8093DC
:104BA000C5019093C601A093C701B093C80181E0ED
:104BB0000E94500882E08093BF0121C08091BF0114
:104BC0008230E9F40E9445089C0140E050E0809169
:104BD000C001882F90E0A0E0B0E0DC019927882791
:104BE000820F931FA41FB51F8093C9019093CA0120
:104BF000A093CB01B093CC0183E08093BF01CF9110
:104C0000DF910895DF93CF93CDB7DEB78091C001D8
:104C10008F5F8093C001CF91DF910895629FD00193
:104C2000739FF001829FE00DF11D649FE00DF11D67
:104C3000929FF00D839FF00D749FF00D659FF00D16
:104C40009927729FB00DE11DF91F639FB00DE11D03
:104C5000F91FBD01CF0111240895A1E21A2EAA1B4C
:104C6000BB1BFD010DC0AA1FBB1FEE1FFF1FA2171C
:104C7000B307E407F50720F0A21BB30BE40BF50B19
:104C8000661F771F881F991F1A9469F760957095A2
:104C9000809590959B01AC01BD01CF0108952F92A5
:104CA0003F924F925F926F927F928F929F92AF92BC
:104CB000BF92CF92DF92EF92FF920F931F93CF9309
:104CC000DF93CDB7DEB7CA1BDB0B0FB6F894DEBFA0
:104CD0000FBECDBF09942A88398848885F846E84C6
:104CE0007D848C849B84AA84B984C884DF80EE8010
:104CF000FD800C811B81AA81B981CE0FD11D0FB619
:104D0000F894DEBF0FBECDBFED010895F894FFCF3C
:104D100057656C636F6D652E2E2E2E0044203D006E
:104D2000250046203D00487A002020202020202019
:104D30002020202020202020202020000000000013
:104D40000000000000010202030303030404040442
:104D50000404040405050505050505050505050507
:104D600005050505060606060606060606060606E7
:104D700006060606060606060606060606060606D3
:104D800006060606070707070707070707070707B7
:104D900007070707070707070707070707070707A3
:104DA0000707070707070707070707070707070793
:104DB0000707070707070707070707070707070783
:104DC0000707070708080808080808080808080867
:104DD0000808080808080808080808080808080853
:104DE0000808080808080808080808080808080843
:104DF0000808080808080808080808080808080833
:104E00000808080808080808080808080808080822
:104E10000808080808080808080808080808080812
:104E20000808080808080808080808080808080802
:104E300008080808080808080808080808080808F2
:104E40000808080801033734314F38353230393615
:104E5000333D2F2A2D2B1F111111111111001F018C
:0E4E60000101010101001F10101010101000C0
:00000001FF
