:100000000C942A000C94BF080C9447000C944700F1
:100010000C9447000C9447000C944C070C94470038
:100020000C9447000C941F070C9441060C94140682
:100030000C9447000C9447000C9447000C94470024
:100040000C9447000C9447000C9447000C94470014
:100050000C94470011241FBECFE5D8E0DEBFCDBF12
:1000600011E0A0E6B0E0E4E0FEE402C005900D92ED
:10007000A431B107D9F711E0A4E1B1E001C01D92AC
:10008000A132B107E1F70E94431E0C9400270C94A3
:100090000000EF92FF920F931F937B018C0120E0F1
:1000A00030E040E05FE40E94490388238CF0C801FF
:1000B000B70120E030E040E05FE40E94C1010E940F
:1000C000A9039B01AC01205030404040504806C07D
:1000D000C801B7010E94A9039B01AC01B901CA0183
:1000E0001F910F91FF90EF900895A0E0B0E0EBE733
:1000F000F0E00C94C926DC012B01FA019C919230AE
:1001000008F439C1EB018881823008F433C194309E
:1001100069F4843009F02FC111969C91119789815F
:10012000981709F428C1ACEFB0E025C1843009F478
:1001300021C18230A9F4923009F01DC19A01AD01AC
:1001400088E0EA010990AE01E90109929E0181501F
:10015000C1F7E201898111969C918923818308C1AD
:10016000923009F407C112962D903C901397EB0141
:100170008A819B811496AD90BD90CD90DC901797AD
:10018000EC80FD800E811F819101281B390BB90184
:1001900037FF04C066277727621B730B6032710537
:1001A0000CF061C0121613066CF537014801062EDB
:1001B00004C096948794779467940A94D2F721E0C8
:1001C00030E040E050E004C0220F331F441F551FB1
:1001D0006A95D2F721503040404050402E213F21B7
:1001E00040235123211531054105510521F021E01E
:1001F00030E040E050E079018A01E628F72808293C
:1002000019293CC0232BD1F1260E371E350146019A
:10021000062E04C096948794779467940A94D2F734
:1002200021E030E040E050E004C0220F331F441FC3
:10023000551F6A95D2F721503040404050402A2146
:100240003B214C215D21211531054105510521F04E
:1002500021E030E040E050E059016A01A628B728CB
:10026000C828D9280BC0821593052CF01C01AA249C
:10027000BB24650103C0EE24FF24870111969C91E5
:10028000D20111968C91981709F445C0992339F041
:10029000A80197012A193B094C095D0906C0A6016E
:1002A00095012E193F09400B510B57FD08C01182D3
:1002B0003382228224833583468357831DC081E0A5
:1002C00081833382228288279927DC01821B930B4A
:1002D000A40BB50B84839583A683B7830DC0220F2F
:1002E000331F441F551F24833583468357838281E0
:1002F000938101979383828324813581468157813D
:10030000DA01C9010197A109B1098F5F9F4FAF4F72
:10031000BF4328F30BC0918333822282EA0CFB1C7B
:100320000C1D1D1DE482F5820683178383E0808304
:10033000248135814681578157FF1AC0C901AA27F8
:1003400097FDA095BA2F81709070A070B0705695EF
:10035000479537952795822B932BA42BB52B848318
:100360009583A683B7838281938101969383828349
:10037000DF0101C0D201CD01CDB7DEB7E2E10C94BF
:10038000E526A0E2B0E0E7ECF1E00C94D526698325
:100390007A838B839C832D833E834F835887E9E048
:1003A000EE2EF12CEC0EFD1ECE010196B7010E943F
:1003B000D2048E010F5E1F4FCE010596B8010E9438
:1003C000D2048A8991E089278A8BC701B801AE01DE
:1003D000475E5F4F0E9475000E94FD03A096E6E015
:1003E0000C94F126A0E2B0E0E8EFF1E00C94D52601
:1003F00069837A838B839C832D833E834F835887C5
:10040000F9E0EF2EF12CEC0EFD1ECE010196B701A6
:100410000E94D2048E010F5E1F4FCE010596B801D7
:100420000E94D204C701B801AE01475E5F4F0E942F
:1004300075000E94FD03A096E6E00C94F126A0E270
:10044000B0E0E5E2F2E00C94C92669837A838B83FD
:100450009C832D833E834F835887CE010196BE0136
:10046000675F7F4F0E94D204CE010596BE016F5E8A
:100470007F4F0E94D2049985923088F0898982301A
:10048000C8F0943019F4823051F404C0843029F457
:10049000923081F48CEF90E0C6C0923049F420E0B5
:1004A0009A858A89981321E02A87CE010996BBC0D4
:1004B000823049F420E09A858A89981321E02A8BBA
:1004C000CE014196B0C02D843E844F8458886D88FB
:1004D0007E888F88988CEE24FF248701AA24BB2471
:1004E000650140E050E060E070E0E0E0F0E0C10174
:1004F00081709070892BE9F0E60CF71C081D191D1E
:100500009A01AB012A0D3B1D4C1D5D1D80E090E062
:10051000A0E0B0E0E614F7040805190520F481E036
:1005200090E0A0E0B0E0BA01A901480F591F6A1F8E
:100530007B1FAA0CBB1CCC1CDD1C97FE08C081E0F5
:1005400090E0A0E0B0E0A82AB92ACA2ADB2A3196B6
:10055000E032F10549F0660C771C881C991C569412
:10056000479437942794C3CFFA85EA892B893C892D
:100570008B859C85280F391F2E5F3F4F17C0CA01FE
:1005800081709070892B61F016950795F794E79428
:1005900080E090E0A0E0B0E8E82AF92A0A2B1B2BC3
:1005A00076956795579547952F5F3F4F77FDE7CF36
:1005B0000CC0440F551F661F771F17FD4160EE0CDE
:1005C000FF1C001F111F21503040403090E05907A0
:1005D00090E0690790E4790760F32B8F3C8FDB0193
:1005E000CA018F779070A070B07080349105A1051A
:1005F000B10561F447FD0AC0E114F10401051105DC
:1006000029F0405C5F4F6F4F7F4F40781A8EFE1786
:1006100011F081E08A8F4D8F5E8F6F8F78A383E01A
:10062000898FCE0149960E94FD03A096E2E10C94C9
:10063000E526A8E1B0E0EFE1F3E00C94D52669836C
:100640007A838B839C832D833E834F83588789E0F5
:10065000E82EF12CEC0EFD1ECE010196B7010E9492
:10066000D2048E010F5E1F4FCE010596B8010E9485
:10067000D2048985823040F08989823028F0C70110
:10068000B8010E944A0501C08FEF6896E6E00C941D
:10069000F126A8E1B0E0EFE4F3E00C94D5266983FD
:1006A0007A838B839C832D833E834F83588789E095
:1006B000E82EF12CEC0EFD1ECE010196B7010E9432
:1006C000D2048E010F5E1F4FCE010596B8010E9425
:1006D000D2048985823040F08989823028F0C701B0
:1006E000B8010E944A0501C08FEF6896E6E00C94BD
:1006F000F126A8E1B0E0EFE7F3E00C94D52669839A
:100700007A838B839C832D833E834F83588789E034
:10071000E82EF12CEC0EFD1ECE010196B7010E94D1
:10072000D2048E010F5E1F4FCE010596B8010E94C4
:10073000D2048985823040F08989823028F0C7014F
:10074000B8010E944A0501C081E06896E6E00C9479
:10075000F126ACE0B0E0EFEAF3E00C94D92669832F
:100760007A838B839C83CE010196BE016B5F7F4FA2
:100770000E94D2048D81823061F1823050F1843048
:1007800021F48E81882351F12EC02F81388537FDC9
:1007900020C06E812F3131051CF06623F9F023C093
:1007A0008EE190E0821B930B29853A854B855C8511
:1007B00004C056954795379527958A95D2F76623B5
:1007C000B1F050954095309521953F4F4F4F5F4F79
:1007D0000EC020E030E040E050E009C02FEF3FEFD6
:1007E0004FEF5FE704C020E030E040E050E8B9019F
:1007F000CA012C96E2E00C94F526DF92EF92FF926C
:100800000F931F93FC01E480F58006811781D1804E
:100810008081823048F480E090E0A0E1B0E0E82AF6
:10082000F92A0A2B1B2BA5C0843009F49FC0823003
:1008300021F4EE24FF24870105C0E114F104010531
:10084000110519F4E0E0F0E096C0628173819FEF3A
:10085000623879070CF05BC022E83FEF261B370BAC
:100860002A3131052CF020E030E040E050E02AC091
:10087000B801A701022E04C0769567955795479554
:100880000A94D2F781E090E0A0E0B0E004C0880FC5
:10089000991FAA1FBB1F2A95D2F70197A109B10979
:1008A0008E219F21A023B1230097A105B10521F03E
:1008B00081E090E0A0E0B0E09A01AB01282B392B59
:1008C0004A2B5B2BDA01C9018F779070A070B07052
:1008D00080349105A105B10539F427FF09C0205CDA
:1008E0003F4F4F4F5F4F04C0215C3F4F4F4F5F4F13
:1008F000E0E0F0E02030A0E03A07A0E04A07A0E402
:100900005A0710F0E1E0F0E079018A0127C0603871
:10091000710564F5FB01E158FF4FD801C7018F77DE
:100920009070A070B07080349105A105B10539F4C4
:10093000E7FE0DC080E490E0A0E0B0E004C08FE3EB
:1009400090E0A0E0B0E0E80EF91E0A1F1B1F17FFA1
:1009500005C016950795F794E794319687E01695AC
:100960000795F794E7948A95D1F705C0EE24FF2404
:100970008701EFEFF0E06E2F679566276795902F60
:100980009F77D794DD24D7948E2F8695492F462BB9
:10099000582F5D29B701CA011F910F91FF90EF9069
:1009A000DF900895FC01DB01408151812281622F9B
:1009B0006F7770E0221F2227221F9381892F880FD3
:1009C000822B282F30E0991F9927991F11969C930D
:1009D000119721153105A9F54115510561057105DD
:1009E00011F482E037C082E89FEF13969C938E93B8
:1009F00012979A01AB0167E0220F331F441F551F66
:100A00006A95D1F783E08C930DC0220F331F441FEA
:100A1000551F12968D919C911397019713969C9355
:100A20008E931297203080E0380780E0480780E4FA
:100A3000580758F314962D933D934D935C93179755
:100A400008952F3F310579F4411551056105710570
:100A500019F484E08C93089564FF03C081E08C93C3
:100A600012C01C9210C02F57304013963C932E9307
:100A7000129783E08C9387E0440F551F661F771F02
:100A80008A95D1F7706414964D935D936D937C9322
:100A9000179708951F93DC01FB019C91923008F495
:100AA00047C08081823008F443C0943051F41196DD
:100AB0001C91843099F58181682F70E0611B710968
:100AC0003FC0843021F0923031F48230B9F181811D
:100AD000882389F12DC011961C9111978230F1F075
:100AE00081811817D9F412962D913C911397828128
:100AF00093818217930794F028173907BCF0149656
:100B00008D919D910D90BC91A02D248135814681C0
:100B10005781281739074A075B0718F4112341F05A
:100B20000AC082179307A407B50740F4112319F0F0
:100B300061E070E005C06FEF7FEF02C060E070E041
:100B4000CB011F910895DF93CF93CDB7DEB7A3E517
:100B5000B0E0E3E5F0E08081887F8C93A3E5B0E02E
:100B6000E3E5F0E0808183608C93A3E5B0E0E3E50A
:100B7000F0E0808180648C93A3E5B0E0E3E5F0E0F1
:100B80008081877F8C93A3E5B0E0E3E5F0E080818E
:100B900080628C93A3E5B0E0E3E5F0E080818F7E96
:100BA0008C93CF91DF910895DF93CF930F92CDB7C0
:100BB000DEB78983E2E5F0E0898180830F90CF91F1
:100BC000DF910895DF93CF930F92CDB7DEB789837E
:100BD000ECE5F0E0898180830F90CF91DF9108955B
:100BE000DF93CF9300D0CDB7DEB79A838983898115
:100BF0009A8190931601809315010F900F90CF91D9
:100C0000DF910895DF93CF9300D0CDB7DEB79A83FD
:100C1000898389819A8190931601809315010F90A1
:100C20000F90CF91DF9108951F920F920FB60F9200
:100C300011242F933F934F935F936F937F938F93E1
:100C40009F93AF93BF93EF93FF93DF93CF93CDB772
:100C5000DEB7E0911501F09116010995CF91DF9172
:100C6000FF91EF91BF91AF919F918F917F916F9184
:100C70005F914F913F912F910F900FBE0F901F905A
:100C800018951F920F920FB60F9211242F933F9336
:100C90004F935F936F937F938F939F93AF93BF9384
:100CA000EF93FF93DF93CF93CDB7DEB7E0911501BC
:100CB000F09116010995CF91DF91FF91EF91BF91CE
:100CC000AF919F918F917F916F915F914F913F91E4
:100CD0002F910F900FBE0F901F901895DF93CF9319
:100CE000CDB7DEB7AEE4B0E0EEE4F0E08081887F1F
:100CF0008C93AEE4B0E0EEE4F0E0808181608C9310
:100D0000AEE4B0E0EEE4F0E080818F7E8C93AEE460
:100D1000B0E0EEE4F0E08081877F8C93AFE4B0E058
:100D2000EFE4F0E080818D7F8C93AFE4B0E0EFE4FE
:100D3000F0E080818E7F8C93A9E5B0E0E9E5F0E0FA
:100D4000808184608C93A9E5B0E0E9E5F0E08081E2
:100D500080628C93AEE4B0E0EEE4F0E080818064E9
:100D60008C93CF91DF910895DF93CF9300D0CDB7CF
:100D7000DEB79A838983ECE4F0E089819A819183DC
:100D800080830F900F90CF91DF910895DF93CF93E1
:100D9000CDB7DEB7ECE4F0E080819181CF91DF91B7
:100DA0000895DF93CF93CDB7DEB7E6E4F0E080811E
:100DB0009181CF91DF910895DF93CF930F92CDB7BB
:100DC000DEB789838981882341F4AEE4B0E0EEE4A4
:100DD000F0E080818F7B8C930AC08981813039F467
:100DE000AEE4B0E0EEE4F0E0808180648C930F909C
:100DF000CF91DF910895DF93CF9300D0CDB7DEB7C9
:100E00009A83898389819A8190931801809317012D
:100E10000F900F90CF91DF910895DF93CF9300D083
:100E2000CDB7DEB79A83898389819A8190931A011D
:100E3000809319010F900F90CF91DF9108951F9229
:100E40000F920FB60F9211242F933F934F935F93FE
:100E50006F937F938F939F93AF93BF93EF93FF9382
:100E6000DF93CF93CDB7DEB7E0911701F091180172
:100E70000995CF91DF91FF91EF91BF91AF919F9134
:100E80008F917F916F915F914F913F912F910F9033
:100E90000FBE0F901F9018951F920F920FB60F92D2
:100EA00011242F933F934F935F936F937F938F936F
:100EB0009F93AF93BF93EF93FF93DF93CF93CDB700
:100EC000DEB7E0911901F0911A010995CF91DF91F8
:100ED000FF91EF91BF91AF919F918F917F916F9112
:100EE0005F914F913F912F910F900FBE0F901F90E8
:100EF0001895DF93CF93CDB7DEB7AFE5B0E0EFE560
:100F0000F0E0808180688C93CF91DF910895DF932A
:100F1000CF93CDB7DEB7AFE5B0E0EFE5F0E080818D
:100F20008F778C93CF91DF910895DF93CF93CDB7D7
:100F3000DEB7A5E5B0E0E5E5F0E0808181608C9367
:100F4000A5E5B0E0E5E5F0E0808182608C93ABE55B
:100F5000B0E0EBE5F0E0808180648C93CF91DF918D
:100F60000895DF93CF93CDB7DEB7A5E5B0E0E5E513
:100F7000F0E0808184608C93A5E5B0E0E5E5F0E0E9
:100F8000808188608C93ABE5B0E0EBE5F0E0808198
:100F900080688C93CF91DF910895DF93CF93CDB785
:100FA000DEB7A4E5B0E0E4E5F0E0808180648C93F6
:100FB000ABE5B0E0EBE5F0E0808180628C93CF910F
:100FC000DF910895DF93CF9300D000D0CDB7DEB787
:100FD00089836A838981282F30E03C832B838B812E
:100FE0009C818130910509F454C02B813C812230D1
:100FF000310509F496C08B819C81009709F0A6C049
:101000008A81882379F4A5E5B0E0E5E5F0E0808108
:101010008E7F8C93A5E5B0E0E5E5F0E080818D7FE3
:101020008C9394C08A81813079F4A5E5B0E0E5E540
:10103000F0E0808181608C93A5E5B0E0E5E5F0E02B
:1010400080818D7F8C9382C08A81823079F4A5E57E
:10105000B0E0E5E5F0E080818E7F8C93A5E5B0E01F
:10106000E5E5F0E0808182608C9370C08A818330F6
:1010700009F06CC0A5E5B0E0E5E5F0E080818160B5
:101080008C93A5E5B0E0E5E5F0E0808182608C938B
:101090005DC08A81882379F4A5E5B0E0E5E5F0E05C
:1010A00080818B7F8C93A5E5B0E0E5E5F0E0808161
:1010B000877F8C934BC08A81813079F4A5E5B0E0BD
:1010C000E5E5F0E0808184608C93A5E5B0E0E5E59E
:1010D000F0E08081877F8C9339C08A81823079F4F7
:1010E000A5E5B0E0E5E5F0E080818B7F8C93A5E598
:1010F000B0E0E5E5F0E0808188608C9327C08A81CC
:10110000833021F5A5E5B0E0E5E5F0E0808184607D
:101110008C93A5E5B0E0E5E5F0E0808188608C93F4
:1011200015C08A81823041F4A4E5B0E0E4E5F0E046
:1011300080818F7B8C930AC08A81833039F4A4E547
:10114000B0E0E4E5F0E0808180648C930F900F9034
:101150000F900F90CF91DF910895DF93CF9300D040
:10116000CDB7DEB79A83898389819A8190931C01D8
:1011700080931B010F900F90CF91DF9108951F92E4
:101180000F920FB60F9211242F933F934F935F93BB
:101190006F937F938F939F93AF93BF93EF93FF933F
:1011A000DF93CF93CDB7DEB7E0911B01F0911C0127
:1011B0000995CF91DF91FF91EF91BF91AF919F91F1
:1011C0008F917F916F915F914F913F912F910F90F0
:1011D0000FBE0F901F901895DF93CF9300D000D0D3
:1011E00000D0CDB7DEB78A836B834C8381E08983DF
:1011F0008A81883008F0E8C08B81282F30E03E8358
:101200002D838D819E818130910509F448C02D8107
:101210003E81223031052CF48D819E81009771F042
:10122000D1C02D813E812230310509F469C08D8104
:101230009E818330910509F494C0C4C08C818130B3
:10124000A1F4AAE3B0E0EAE3F0E08081482F8A81CC
:10125000282F30E081E090E0022E02C0880F991F15
:101260000A94E2F7842B8C93B0C08C818823A9F474
:10127000AAE3B0E0EAE3F0E08081482F8A81282FDA
:1012800030E081E090E0022E02C0880F991F0A949E
:10129000E2F7809584238C9398C0198296C08C8144
:1012A0008130A1F4A7E3B0E0E7E3F0E08081482FCC
:1012B0008A81282F30E081E090E0022E02C0880F62
:1012C000991F0A94E2F7842B8C937FC08C8188232A
:1012D000A9F4A7E3B0E0E7E3F0E08081482F8A813A
:1012E000282F30E081E090E0022E02C0880F991F85
:1012F0000A94E2F7809584238C9367C0198265C0B5
:101300008C818130A1F4A4E3B0E0E4E3F0E08081DB
:10131000482F8A81282F30E081E090E0022E02C021
:10132000880F991F0A94E2F7842B8C934EC08C810E
:101330008823A9F4A4E3B0E0E4E3F0E08081482F3F
:101340008A81282F30E081E090E0022E02C0880FD1
:10135000991F0A94E2F7809584238C9336C01982F2
:1013600034C08C818130A1F4A1E3B0E0E1E3F0E08E
:101370008081482F8A81282F30E081E090E0022E82
:1013800002C0880F991F0A94E2F7842B8C931DC02A
:101390008C818823A9F4A1E3B0E0E1E3F0E080814F
:1013A000482F8A81282F30E081E090E0022E02C091
:1013B000880F991F0A94E2F7809584238C9305C0C7
:1013C000198203C0198201C01982898126960FB63D
:1013D000F894DEBF0FBECDBFCF91DF910895DF93AC
:1013E000CF9300D000D00F92CDB7DEB78A836B8346
:1013F00081E089838B818F3F19F08B818823A9F548
:101400008A81282F30E03D832C838C819D8181301F
:101410009105D1F02C813D81223031052CF48C8155
:101420009D81009761F01FC02C813D8122303105E4
:1014300081F08C819D818330910581F014C0EAE3B5
:10144000F0E08B81808312C0E7E3F0E08B81808342
:101450000DC0E4E3F0E08B81808308C0E1E3F0E0BD
:101460008B81808303C0198201C0198289810F900A
:101470000F900F900F900F90CF91DF910895DF9311
:10148000CF9300D000D000D0CDB7DEB78A836B8376
:101490004C8381E089838A81883008F0E8C08B81A1
:1014A000282F30E03E832D838D819E8181309105F0
:1014B00009F448C02D813E81223031052CF48D8104
:1014C0009E81009771F0D1C02D813E81223031057F
:1014D00009F469C08D819E818330910509F494C01F
:1014E000C4C08C818130A1F4ABE3B0E0EBE3F0E069
:1014F0008081482F8A81282F30E081E090E0022E01
:1015000002C0880F991F0A94E2F7842B8C93B0C015
:101510008C818823A9F4ABE3B0E0EBE3F0E08081B9
:10152000482F8A81282F30E081E090E0022E02C00F
:10153000880F991F0A94E2F7809584238C9398C0B2
:10154000198296C08C818130A1F4A8E3B0E0E8E371
:10155000F0E08081482F8A81282F30E081E090E000
:10156000022E02C0880F991F0A94E2F7842B8C93F5
:101570007FC08C818823A9F4A8E3B0E0E8E3F0E021
:101580008081482F8A81282F30E081E090E0022E70
:1015900002C0880F991F0A94E2F7809584238C93E8
:1015A00067C0198265C08C818130A1F4A5E3B0E0E9
:1015B000E5E3F0E08081482F8A81282F30E081E048
:1015C00090E0022E02C0880F991F0A94E2F7842B44
:1015D0008C934EC08C818823A9F4A5E3B0E0E5E3A9
:1015E000F0E08081482F8A81282F30E081E090E070
:1015F000022E02C0880F991F0A94E2F78095842377
:101600008C9336C0198234C08C818130A1F4A2E35E
:10161000B0E0E2E3F0E08081482F8A81282F30E0BB
:1016200081E090E0022E02C0880F991F0A94E2F731
:10163000842B8C931DC08C818823A9F4A2E3B0E095
:10164000E2E3F0E08081482F8A81282F30E081E0BA
:1016500090E0022E02C0880F991F0A94E2F780954D
:1016600084238C9305C0198203C0198201C019829A
:10167000898126960FB6F894DEBF0FBECDBFCF91FD
:10168000DF910895DF93CF9300D000D00F92CDB7B4
:10169000DEB78A836B8381E089838A81282F30E0DB
:1016A0003D832C838C819D8181309105D1F02C81EB
:1016B0003D81223031052CF48C819D81009761F0B1
:1016C0001FC02C813D812230310581F08C819D81AC
:1016D0008330910581F014C0EBE3F0E08B818083CF
:1016E00010C0E8E3F0E08B8180830BC0E5E3F0E01D
:1016F0008B81808306C0E2E3F0E08B81808301C0B0
:10170000198289810F900F900F900F900F90CF91B9
:10171000DF910895DF93CF93CDB7DEB727970FB64C
:10172000F894DEBF0FBECDBF8A836B835D834C838D
:1017300081E089838A81883008F079C08C819D811D
:101740008130910509F473C08B81282F30E03F83ED
:101750002E834E815F814130510559F18E819F81E9
:101760008230910534F42E813F812115310569F0D5
:101770005CC04E815F814230510579F18E819F813D
:101780008330910509F43DC050C0E9E3F0E0808169
:10179000282F30E08A81882F90E0A90102C055955A
:1017A00047958A95E2F7CA018170EC81FD818083BB
:1017B0003FC0E6E3F0E08081282F30E08A81882F67
:1017C00090E0A90102C0559547958A95E2F7CA01B4
:1017D0008170EC81FD8180832BC0E3E3F0E08081A8
:1017E000282F30E08A81882F90E0A90102C055950A
:1017F00047958A95E2F7CA018170EC81FD8180836B
:1018000017C0E0E3F0E08081282F30E08A81882F44
:1018100090E0A90102C0559547958A95E2F7CA0163
:101820008170EC81FD81808303C0198201C019821F
:10183000898127960FB6F894DEBF0FBECDBFCF913A
:10184000DF910895DF93CF9300D000D000D0CDB7C3
:10185000DEB78A836B834C8381E089838A818530FC
:1018600008F0C9C08B81282F30E03E832D836D8125
:101870007E816130710509F441C08D819E81823085
:10188000910534F42D813E812115310571F0B1C0EF
:101890006D817E816230710509F459C08D819E8110
:1018A0008330910509F47CC0A4C0ABE3B0E0EBE366
:1018B000F0E08081482F8A81282F30E08FE090E08F
:1018C00002C0880F991F2A95E2F7809584238C9394
:1018D000ABE3B0E0EBE3F0E08081482F8C81282F70
:1018E00030E08A81882F90E0B90102C0660F771F2F
:1018F0008A95E2F7CB01842B8C937EC0A8E3B0E0FD
:10190000E8E3F0E08081482F8A81282F30E08FE0E3
:1019100090E002C0880F991F2A95E2F780958423F2
:101920008C93A8E3B0E0E8E3F0E08081482F8C815D
:10193000282F30E08A81882F90E0B90102C0660F1D
:10194000771F8A95E2F7CB01842B8C9355C0A5E3D2
:10195000B0E0E5E3F0E08081482F8A81282F30E075
:101960008FE090E002C0880F991F2A95E2F78095DA
:1019700084238C93A5E3B0E0E5E3F0E08081482F79
:101980008C81282F30E08A81882F90E0B90102C035
:10199000660F771F8A95E2F7CB01842B8C932CC0BE
:1019A000A2E3B0E0E2E3F0E08081482F8A81282FB3
:1019B00030E08FE090E002C0880F991F2A95E2F78F
:1019C000809584238C93A2E3B0E0E2E3F0E0808191
:1019D000482F8C81282F30E08A81882F90E0B90130
:1019E00002C0660F771F8A95E2F7CB01842B8C9398
:1019F00003C0198201C01982898126960FB6F89416
:101A0000DEBF0FBECDBFCF91DF910895DF93CF939F
:101A100000D0CDB7DEB789836A8389816A8140E0CF
:101A20000E94EC0889816A8141E00E943F0A0F9080
:101A30000F90CF91DF910895DF93CF93CDB7DEB7AD
:101A4000A7E2B0E0E7E2F0E0808180648C93A7E257
:101A5000B0E0E7E2F0E080818F778C93A6E2B0E01F
:101A6000E6E2F0E08081887F8C93A6E2B0E0E6E2D7
:101A7000F0E0808186608C93A7E2B0E0E7E2F0E0DE
:101A800080818F7D8C93A6E2B0E0E6E2F0E0808179
:101A900080688C93CF91DF910895DF93CF930F925D
:101AA000CDB7DEB78983898187708983A7E2B0E0EB
:101AB000E7E2F0E08081807E8C93A7E2B0E0E7E28D
:101AC000F0E090818981892B8C93A6E2B0E0E6E278
:101AD000F0E0808180648C93E6E2F0E08081829582
:101AE0008F70882F90E0817090700097A9F3E4E2E6
:101AF000F0E0808191810F90CF91DF910895DF9385
:101B0000CF9300D0CDB7DEB789836A8389816A819C
:101B100041E00E94EC080F900F90CF91DF91089563
:101B2000DF93CF9300D0CDB7DEB789836A838981F5
:101B30006A8141E00E943F0A0F900F90CF91DF91A0
:101B40000895DF93CF9300D0CDB7DEB789836A8342
:101B500089816A8140E00E943F0A0F900F90CF91E7
:101B6000DF910895DF93CF9300D0CDB7DEB789839F
:101B70006A830F900F90CF91DF910895DF93CF93F9
:101B8000CDB7DEB783E063E040E00E94EC0882E07E
:101B900063E040E00E94EC0881E063E040E00E94E6
:101BA000EC0880E063E040E00E94EC0884E063E041
:101BB00041E00E94EC0885E063E041E00E94EC080F
:101BC00086E063E041E00E94EC0887E063E041E0EA
:101BD0000E94EC0883E063E041E00E943F0A82E05B
:101BE00063E041E00E943F0A81E063E041E00E943F
:101BF0003F0A80E063E041E00E943F0A84E063E046
:101C000041E00E943F0A85E063E041E00E943F0A14
:101C100086E063E041E00E943F0A87E063E041E044
:101C20000E943F0ACF91DF910895DF93CF93CDB704
:101C3000DEB763970FB6F894DEBF0FBECDBF8FEF50
:101C40008F8784E0888BB5C0888963E040E00E947C
:101C50003F0A198AA2C09E012E5E3F4F898963E028
:101C6000A9010E948A0B8A89882309F093C0888978
:101C7000882F90E0AC01445050408989282F30E0F3
:101C8000CA01880F991F880F991F820F931FFC01AB
:101C9000EC5FFE4F80818F8708C09E012E5E3F4F14
:101CA000898963E0A9010E948A0B8A898823A9F3A4
:101CB00080E090E0A0EAB1E48B879C87AD87BE8787
:101CC0006B857C858D859E8520E030E04AEF54E46D
:101CD0000E941F02DC01CB018F839887A987BA87F6
:101CE0006F81788589859A8520E030E040E85FE360
:101CF0000E94790388232CF481E090E09E838D83F9
:101D00003FC06F81788589859A8520E03FEF4FE756
:101D100057E40E94190318164CF56B857C858D8558
:101D20009E8520E030E040E251E40E941F02DC0189
:101D3000CB01BC01CD010E944900DC01CB019E8397
:101D40008D830FC088EC90E09C838B838B819C817A
:101D50000197F1F79C838B838D819E8101979E83F0
:101D60008D838D819E81009769F714C06F8178857E
:101D700089859A850E944900DC01CB019E838D8371
:101D80008D819E819A83898389819A810197F1F758
:101D90009A83898389898F5F898B8989843008F444
:101DA0005ACF888963E041E00E943F0A88898F5FAB
:101DB000888B8889883008F447CF8F858F3F21F042
:101DC0008F858B8B8B8900C063960FB6F894DEBF2E
:101DD0000FBECDBFCF91DF910895DF93CF93CDB7E5
:101DE000DEB76D970FB6F894DEBF0FBECDBF8D8FF7
:101DF00080E062E040E00E943F0A81E062E040E073
:101E00000E943F0A82E06D8D0E94420B82E062E0F8
:101E100041E00E943F0A80E090E0A0E0B0E4898FBA
:101E20009A8FAB8FBC8F698D7A8D8B8D9C8D20E0C6
:101E300030E04AEF54E40E941F02DC01CB018D8B9D
:101E40009E8BAF8BB88F6D897E898F89988D20E0AE
:101E500030E040E85FE30E94790388232CF481E0BE
:101E600090E09C8B8B8B3FC06D897E898F89988D8C
:101E700020E03FEF4FE757E40E94190318164CF596
:101E8000698D7A8D8B8D9C8D20E030E040E251E4AD
:101E90000E941F02DC01CB01BC01CD010E94490060
:101EA000DC01CB019C8B8B8B0FC088EC90E09A8B74
:101EB000898B89899A890197F1F79A8B898B8B890C
:101EC0009C8901979C8B8B8B8B899C89009769F7E8
:101ED00014C06D897E898F89988D0E944900DC012C
:101EE000CB019C8B8B8B8B899C89988B8F878F8563
:101EF00098890197F1F7988B8F8782E062E040E044
:101F00000E943F0A80E090E0A0E0B0E48B879C87CD
:101F1000AD87BE876B857C858D859E8520E030E012
:101F20004AEF54E40E941F02DC01CB018F839887A3
:101F3000A987BA876F81788589859A8520E030E006
:101F400040E85FE30E94790388232CF481E090E06D
:101F50009E838D833FC06F81788589859A8520E037
:101F60003FEF4FE757E40E94190318164CF56B85B5
:101F70007C858D859E8520E030E040E251E40E9422
:101F80001F02DC01CB01BC01CD010E944900DC0134
:101F9000CB019E838D830FC088EC90E09C838B8364
:101FA0008B819C810197F1F79C838B838D819E812E
:101FB00001979E838D838D819E81009769F714C060
:101FC0006F81788589859A850E944900DC01CB0163
:101FD0009E838D838D819E819A83898389819A8155
:101FE0000197F1F79A83898382E062E041E00E94E1
:101FF0003F0A6D960FB6F894DEBF0FBECDBFCF91EE
:10200000DF910895DF93CF93CDB7DEB7E8970FB692
:10201000F894DEBF0FBECDBF82E06FEF0E94EF09E4
:1020200080E062E041E00E94EC0881E062E041E093
:102030000E94EC0882E062E041E00E94EC0880E04F
:1020400090E0A0EFB1E48DAB9EABAFABB8AF6DA9A4
:102050007EA98FA998AD20E030E04AEF54E40E94B9
:102060001F02DC01CB0189AB9AABABABBCAB69A95E
:102070007AA98BA99CA920E030E040E85FE30E94A8
:10208000790388232CF481E090E098AB8FA73FC0C0
:1020900069A97AA98BA99CA920E03FEF4FE757E4F3
:1020A0000E94190318164CF56DA97EA98FA998AD49
:1020B00020E030E040E251E40E941F02DC01CB014D
:1020C000BC01CD010E944900DC01CB0198AB8FA778
:1020D0000FC088EC90E09EA78DA78DA59EA50197C7
:1020E000F1F79EA78DA78FA598A9019798AB8FA709
:1020F0008FA598A9009769F714C069A97AA98BA937
:102100009CA90E944900DC01CB0198AB8FA78FA549
:1021100098A99CA78BA78BA59CA50197F1F79CA7D5
:102120008BA788E20E94ED0E80E090E0A0E8BFE37C
:102130008FA398A7A9A7BAA76FA178A589A59AA5E3
:1021400020E030E04AEF54E40E941F02DC01CB01A2
:102150008BA39CA3ADA3BEA36BA17CA18DA19EA1CB
:1021600020E030E040E85FE30E94790388232CF40C
:1021700081E090E09AA389A33FC06BA17CA18DA1CF
:102180009EA120E03FEF4FE757E40E941903181685
:102190004CF56FA178A589A59AA520E030E040E232
:1021A00051E40E941F02DC01CB01BC01CD010E9461
:1021B0004900DC01CB019AA389A30FC088EC90E011
:1021C00098A38F8F8F8D98A10197F1F798A38F8F88
:1021D00089A19AA101979AA389A389A19AA100979D
:1021E00069F714C06BA17CA18DA19EA10E9449003A
:1021F000DC01CB019AA389A389A19AA19E8F8D8F1F
:102200008D8D9E8D0197F1F79E8F8D8F8CE00E94B2
:10221000ED0E80E090E0A0E8BFE3898F9A8FAB8F4E
:10222000BC8F698D7A8D8B8D9C8D20E030E04AEFDC
:1022300054E40E941F02DC01CB018D8B9E8BAF8B7F
:10224000B88F6D897E898F89988D20E030E040E8D5
:102250005FE30E94790388232CF481E090E09C8B5B
:102260008B8B3FC06D897E898F89988D20E03FEFF1
:102270004FE757E40E94190318164CF5698D7A8DC3
:102280008B8D9C8D20E030E040E251E40E941F02E3
:10229000DC01CB01BC01CD010E944900DC01CB0176
:1022A0009C8B8B8B0FC088EC90E09A8B898B8989F3
:1022B0009A890197F1F79A8B898B8B899C89019771
:1022C0009C8B8B8B8B899C89009769F714C06D89D7
:1022D0007E898F89988D0E944900DC01CB019C8BFF
:1022E0008B8B8B899C89988B8F878F859889019799
:1022F000F1F7988B8F8781E00E94ED0E80E090E0EF
:10230000A0E0B0E48B879C87AD87BE876B857C851A
:102310008D859E8520E030E04AEF54E40E941F0244
:10232000DC01CB018F839887A987BA876F81788575
:1023300089859A8520E030E040E85FE30E947903D8
:1023400088232CF481E090E09E838D833FC06F81D1
:10235000788589859A8520E03FEF4FE757E40E9412
:10236000190318164CF56B857C858D859E8520E0BC
:1023700030E040E251E40E941F02DC01CB01BC01CD
:10238000CD010E944900DC01CB019E838D830FC0EB
:1023900088EC90E09C838B838B819C810197F1F783
:1023A0009C838B838D819E8101979E838D838D81FC
:1023B0009E81009769F714C06F81788589859A8519
:1023C0000E944900DC01CB019E838D838D819E811B
:1023D0009A83898389819A810197F1F79A83898306
:1023E00086E00E94ED0EE8960FB6F894DEBF0FBEB1
:1023F000CDBFCF91DF910895DF93CF93CDB7DEB7F7
:102400006D970FB6F894DEBF0FBECDBF8D8F80E005
:1024100062E041E00E943F0A81E062E040E00E9409
:102420003F0A82E06D8D0E94420B82E062E041E053
:102430000E943F0A80E090E0A0E0B0E4898F9A8F8C
:10244000AB8FBC8F698D7A8D8B8D9C8D20E030E0B9
:102450004AEF54E40E941F02DC01CB018D8B9E8B5E
:10246000AF8BB88F6D897E898F89988D20E030E0A1
:1024700040E85FE30E94790388232CF481E090E038
:102480009C8B8B8B3FC06D897E898F89988D20E0D6
:102490003FEF4FE757E40E94190318164CF5698D7A
:1024A0007A8D8B8D9C8D20E030E040E251E40E94DB
:1024B0001F02DC01CB01BC01CD010E944900DC01FF
:1024C000CB019C8B8B8B0FC088EC90E09A8B898B17
:1024D00089899A890197F1F79A8B898B8B899C89D5
:1024E00001979C8B8B8B8B899C89009769F714C013
:1024F0006D897E898F89988D0E944900DC01CB010E
:102500009C8B8B8B8B899C89988B8F878F859889E7
:102510000197F1F7988B8F8782E062E040E00E949C
:102520003F0A80E090E0A0E0B0E48B879C87AD8715
:10253000BE876B857C858D859E8520E030E04AEFE7
:1025400054E40E941F02DC01CB018F839887A98786
:10255000BA876F81788589859A8520E030E040E8E8
:102560005FE30E94790388232CF481E090E09E834E
:102570008D833FC06F81788589859A8520E03FEF04
:102580004FE757E40E94190318164CF56B857C85BC
:102590008D859E8520E030E040E251E40E941F02DC
:1025A000DC01CB01BC01CD010E944900DC01CB0163
:1025B0009E838D830FC088EC90E09C838B838B81FE
:1025C0009C810197F1F79C838B838D819E8101977C
:1025D0009E838D838D819E81009769F714C06F81E2
:1025E000788589859A850E944900DC01CB019E830C
:1025F0008D838D819E819A83898389819A810197B8
:10260000F1F79A83898382E062E041E00E943F0A09
:102610006D960FB6F894DEBF0FBECDBFCF91DF91A0
:102620000895DF93CF9300D00F92CDB7DEB79B8391
:102630008A8319820EC08981282F30E08A819B818C
:10264000FC01E20FF31F80810E94FC1189818F5FE2
:1026500089838981282F30E08A819B81FC01E20FE8
:10266000F31F8081882339F70F900F900F90CF913F
:10267000DF9108950F931F93DF93CF93CDB7DEB70C
:1026800060970FB6F894DEBF0FBECDBF6D877E8713
:102690008F87988B1A828D859E85AF85B889009724
:1026A000A105B10509F44FC02DC08A81082F10E0A3
:1026B0008D859E85AF85B8892AE030E040E050E006
:1026C000BC01CD010E94A726DC01CB01282FCE0141
:1026D0000396FC01E00FF11F20838D859E85AF8559
:1026E000B8892AE030E040E050E0BC01CD010E9412
:1026F000A726DA01C9018D879E87AF87B88B8A81AB
:102700008F5F8A838D859E85AF85B8890097A105E7
:10271000B10559F68A818150898311C08981282F9A
:10272000332727FD3095CE010396FC01E20FF31FFE
:102730008081805D0E94FC1189818150898389811B
:10274000882364F703C080E30E94FC1160960FB6F3
:10275000F894DEBF0FBECDBFCF91DF911F910F91D7
:102760000895DF93CF9300D0CDB7DEB789836A8316
:102770008981813041F48A81803128F48A818058AE
:102780000E94ED0E0AC08981823039F48A8180313D
:1027900020F48A8180540E94ED0E0F900F90CF910B
:1027A000DF910895DF93CF9300D000D0CDB7DEB78F
:1027B0008A837C836B838A818830F8F48A81882FAE
:1027C00090E00896880F991F880F991F880F991F0E
:1027D0000E94ED0E19820EC08981282F30E08B8176
:1027E0009C81FC01E20FF31F80810E94FC11898112
:1027F0008F5F89838981883078F30F900F900F90D5
:102800000F90CF91DF910895DF93CF93CDB7DEB7CF
:102810002E970FB6F894DEBF0FBECDBF81E00E94A9
:10282000ED0E80E090E0A0E0B0E48B879C87AD8760
:10283000BE876B857C858D859E8520E030E04AEFE4
:1028400054E40E941F02DC01CB018F839887A98783
:10285000BA876F81788589859A8520E030E040E8E5
:102860005FE30E94790388232CF481E090E09E834B
:102870008D833FC06F81788589859A8520E03FEF01
:102880004FE757E40E94190318164CF56B857C85B9
:102890008D859E8520E030E040E251E40E941F02D9
:1028A000DC01CB01BC01CD010E944900DC01CB0160
:1028B0009E838D830FC088EC90E09C838B838B81FB
:1028C0009C810197F1F79C838B838D819E81019779
:1028D0009E838D838D819E81009769F714C06F81DF
:1028E000788589859A850E944900DC01CB019E8309
:1028F0008D838D819E819A83898389819A810197B5
:10290000F1F79A8389832E960FB6F894DEBF0FBE37
:10291000CDBFCF91DF910895DF93CF93CDB7DEB7D1
:1029200060970FB6F894DEBF0FBECDBF888B1F86B1
:1029300078C088E10E94ED0E80E090E0A6E9B3E463
:102940008B879C87AD87BE876B857C858D859E85B3
:1029500020E030E04AEF54E40E941F02DC01CB018A
:102960008F839887A987BA876F81788589859A85AB
:1029700020E030E040E85FE30E94790388232CF4F4
:1029800081E090E09E838D833FC06F81788589854B
:102990009A8520E03FEF4FE757E40E94190318168D
:1029A0004CF56B857C858D859E8520E030E040E28E
:1029B00051E40E941F02DC01CB01BC01CD010E9449
:1029C0004900DC01CB019E838D830FC088EC90E031
:1029D0009C838B838B819C810197F1F79C838B83F4
:1029E0008D819E8101979E838D838D819E8100972D
:1029F00069F714C06F81788589859A850E9449009E
:102A0000DC01CB019E838D838D819E819A83898396
:102A100089819A810197F1F79A8389838F858F5FE6
:102A20008F879F858889981708F483CF60960FB6A3
:102A3000F894DEBF0FBECDBFCF91DF910895DF9335
:102A4000CF93CDB7DEB760970FB6F894DEBF0FBE59
:102A5000CDBF888B1F8678C08CE10E94ED0E80E090
:102A600090E0A6E9B3E48B879C87AD87BE876B8532
:102A70007C858D859E8520E030E04AEF54E40E94FD
:102A80001F02DC01CB018F839887A987BA876F81EA
:102A9000788589859A8520E030E040E85FE30E94F0
:102AA000790388232CF481E090E09E838D833FC0DE
:102AB0006F81788589859A8520E03FEF4FE757E45D
:102AC0000E94190318164CF56B857C858D859E85B3
:102AD00020E030E040E251E40E941F02DC01CB0123
:102AE000BC01CD010E944900DC01CB019E838D8396
:102AF0000FC088EC90E09C838B838B819C81019735
:102B0000F1F79C838B838D819E8101979E838D83BA
:102B10008D819E81009769F714C06F8178858985C2
:102B20009A850E944900DC01CB019E838D838D81B3
:102B30009E819A83898389819A810197F1F79A838B
:102B400089838F858F5F8F879F858889981708F481
:102B500083CF60960FB6F894DEBF0FBECDBFCF9186
:102B6000DF910895DF93CF93CDB7DEB760970FB6AF
:102B7000F894DEBF0FBECDBF888B1F8678C080E182
:102B80000E94ED0E80E090E0A6E9B3E48B879C877D
:102B9000AD87BE876B857C858D859E8520E030E086
:102BA0004AEF54E40E941F02DC01CB018F83988717
:102BB000A987BA876F81788589859A8520E030E07A
:102BC00040E85FE30E94790388232CF481E090E0E1
:102BD0009E838D833FC06F81788589859A8520E0AB
:102BE0003FEF4FE757E40E94190318164CF56B8529
:102BF0007C858D859E8520E030E040E251E40E9496
:102C00001F02DC01CB01BC01CD010E944900DC01A7
:102C1000CB019E838D830FC088EC90E09C838B83D7
:102C20008B819C810197F1F79C838B838D819E81A1
:102C300001979E838D838D819E81009769F714C0D3
:102C40006F81788589859A850E944900DC01CB01D6
:102C50009E838D838D819E819A83898389819A81C8
:102C60000197F1F79A8389838F858F5F8F879F857F
:102C70008889981708F483CF60960FB6F894DEBF62
:102C80000FBECDBFCF91DF910895DF93CF93CDB726
:102C9000DEB760970FB6F894DEBF0FBECDBF888B4E
:102CA0001F8678C084E10E94ED0E80E090E0A6E9E6
:102CB000B3E48B879C87AD87BE876B857C858D85CC
:102CC0009E8520E030E04AEF54E40E941F02DC01C0
:102CD000CB018F839887A987BA876F81788589858B
:102CE0009A8520E030E040E85FE30E947903882382
:102CF0002CF481E090E09E838D833FC06F817885C6
:102D000089859A8520E03FEF4FE757E40E94190339
:102D100018164CF56B857C858D859E8520E030E00E
:102D200040E251E40E941F02DC01CB01BC01CD0155
:102D30000E944900DC01CB019E838D830FC088EC8B
:102D400090E09C838B838B819C810197F1F79C831E
:102D50008B838D819E8101979E838D838D819E8142
:102D6000009769F714C06F81788589859A850E94DC
:102D70004900DC01CB019E838D838D819E819A83E6
:102D8000898389819A810197F1F79A8389838F8555
:102D90008F5F8F879F858889981708F483CF609607
:102DA0000FB6F894DEBF0FBECDBFCF91DF9108956F
:102DB000DF93CF93CDB7DEB72F970FB6F894DEBF72
:102DC0000FBECDBF8F8780E062E040E00E943F0AE7
:102DD00081E062E040E00E943F0A84E062E04F85CB
:102DE0000E94220C82E062E041E00E943F0A80E003
:102DF00090E0A0E0B0E48B879C87AD87BE876B85B1
:102E00007C858D859E8520E030E04AEF54E40E9469
:102E10001F02DC01CB018F839887A987BA876F8156
:102E2000788589859A8520E030E040E85FE30E945C
:102E3000790388232CF481E090E09E838D833FC04A
:102E40006F81788589859A8520E03FEF4FE757E4C9
:102E50000E94190318164CF56B857C858D859E851F
:102E600020E030E040E251E40E941F02DC01CB018F
:102E7000BC01CD010E944900DC01CB019E838D8302
:102E80000FC088EC90E09C838B838B819C810197A1
:102E9000F1F79C838B838D819E8101979E838D8327
:102EA0008D819E81009769F714C06F81788589852F
:102EB0009A850E944900DC01CB019E838D838D8120
:102EC0009E819A83898389819A810197F1F79A83F8
:102ED000898382E062E040E00E943F0A2F960FB6AD
:102EE000F894DEBF0FBECDBFCF91DF910895DF9381
:102EF000CF93CDB7DEB7E9970FB6F894DEBF0FBE1C
:102F0000CDBF87E089AF08C089AD62E041E00E9493
:102F1000EC0889AD815089AF89AD8430ACF780E091
:102F200062E041E00E94EC0881E062E041E00E9442
:102F3000EC0882E062E041E00E94EC0880E090E072
:102F4000A0EFB1E48DAB9EABAFABB8AF6DA97EA9DE
:102F50008FA998AD20E030E04AEF54E40E941F02B0
:102F6000DC01CB0189AB9AABABABBCAB69A97AA94D
:102F70008BA99CA920E030E040E85FE30E94790340
:102F800088232CF481E090E098AB8FA73FC069A91B
:102F90007AA98BA99CA920E03FEF4FE757E40E9454
:102FA000190318164CF56DA97EA98FA998AD20E0DC
:102FB00030E040E251E40E941F02DC01CB01BC0181
:102FC000CD010E944900DC01CB0198AB8FA70FC057
:102FD00088EC90E09EA78DA78DA59EA50197F1F79F
:102FE0009EA78DA78FA598A9019798AB8FA78FA5AE
:102FF00098A9009769F714C069A97AA98BA99CA917
:103000000E944900DC01CB0198AB8FA78FA598A93E
:103010009CA78BA78BA59CA50197F1F79CA78BA7D5
:1030200082E00E94D81682E00E94D81688E20E94B0
:10303000D81680E090E0A0E8BFE38FA398A7A9A7E7
:10304000BAA76FA178A589A59AA520E030E04AEF3C
:1030500054E40E941F02DC01CB018BA39CA3ADA30F
:10306000BEA36BA17CA18DA19EA120E030E040E831
:103070005FE30E94790388232CF481E090E09AA317
:1030800089A33FC06BA17CA18DA19EA120E03FEF51
:103090004FE757E40E94190318164CF56FA178A565
:1030A00089A59AA520E030E040E251E40E941F0289
:1030B000DC01CB01BC01CD010E944900DC01CB0148
:1030C0009AA389A30FC088EC90E098A38F8F8F8D6F
:1030D00098A10197F1F798A38F8F89A19AA10197E1
:1030E0009AA389A389A19AA1009769F714C06BA13B
:1030F0007CA18DA19EA10E944900DC01CB019AA375
:1031000089A389A19AA19E8F8D8F8D8D9E8D019708
:10311000F1F79E8F8D8F80E00E94D8168CE00E9480
:10312000D81680E090E0A0E8BFE3898F9A8FAB8F3C
:10313000BC8F698D7A8D8B8D9C8D20E030E04AEFBD
:1031400054E40E941F02DC01CB018D8B9E8BAF8B60
:10315000B88F6D897E898F89988D20E030E040E8B6
:103160005FE30E94790388232CF481E090E09C8B3C
:103170008B8B3FC06D897E898F89988D20E03FEFD2
:103180004FE757E40E94190318164CF5698D7A8DA4
:103190008B8D9C8D20E030E040E251E40E941F02C4
:1031A000DC01CB01BC01CD010E944900DC01CB0157
:1031B0009C8B8B8B0FC088EC90E09A8B898B8989D4
:1031C0009A890197F1F79A8B898B8B899C89019752
:1031D0009C8B8B8B8B899C89009769F714C06D89B8
:1031E0007E898F89988D0E944900DC01CB019C8BE0
:1031F0008B8B8B899C89988B8F878F85988901977A
:10320000F1F7988B8F8780E00E94D81681E00E94AA
:10321000D81680E090E0A0E0B0E48B879C87AD8773
:10322000BE876B857C858D859E8520E030E04AEFEA
:1032300054E40E941F02DC01CB018F839887A98789
:10324000BA876F81788589859A8520E030E040E8EB
:103250005FE30E94790388232CF481E090E09E8351
:103260008D833FC06F81788589859A8520E03FEF07
:103270004FE757E40E94190318164CF56B857C85BF
:103280008D859E8520E030E040E251E40E941F02DF
:10329000DC01CB01BC01CD010E944900DC01CB0166
:1032A0009E838D830FC088EC90E09C838B838B8101
:1032B0009C810197F1F79C838B838D819E8101977F
:1032C0009E838D838D819E81009769F714C06F81E5
:1032D000788589859A850E944900DC01CB019E830F
:1032E0008D838D819E819A83898389819A810197BB
:1032F000F1F79A83898380E00E94D81686E00E94C5
:10330000D816E9960FB6F894DEBF0FBECDBFCF91A9
:10331000DF910895DF93CF93CDB7DEB72F970FB628
:10332000F894DEBF0FBECDBF8F8780E062E041E042
:103330000E943F0A81E062E040E00E943F0A84E090
:1033400062E04F850E94220C82E062E041E00E9430
:103350003F0A80E090E0A0E0B0E48B879C87AD87D7
:10336000BE876B857C858D859E8520E030E04AEFA9
:1033700054E40E941F02DC01CB018F839887A98748
:10338000BA876F81788589859A8520E030E040E8AA
:103390005FE30E94790388232CF481E090E09E8310
:1033A0008D833FC06F81788589859A8520E03FEFC6
:1033B0004FE757E40E94190318164CF56B857C857E
:1033C0008D859E8520E030E040E251E40E941F029E
:1033D000DC01CB01BC01CD010E944900DC01CB0125
:1033E0009E838D830FC088EC90E09C838B838B81C0
:1033F0009C810197F1F79C838B838D819E8101973E
:103400009E838D838D819E81009769F714C06F81A3
:10341000788589859A850E944900DC01CB019E83CD
:103420008D838D819E819A83898389819A81019779
:10343000F1F79A83898382E062E040E00E943F0ACC
:103440002F960FB6F894DEBF0FBECDBFCF91DF91A0
:103450000895DF93CF930F92CDB7DEB7898389812B
:1034600082958F700E948A1989810E948A190F9013
:10347000CF91DF910895DF93CF9300D00F92CDB716
:10348000DEB79B838A8319820EC08981282F30E0A2
:103490008A819B81FC01E20FF31F80810E94291A1F
:1034A00089818F5F89838981282F30E08A819B8180
:1034B000FC01E20FF31F8081882339F70F900F90F2
:1034C0000F90CF91DF9108950F931F93DF93CF93C8
:1034D000CDB7DEB760970FB6F894DEBF0FBECDBF95
:1034E0006D877E878F87988B1A828D859E85AF85A5
:1034F000B8890097A105B10509F44FC02DC08A8194
:10350000082F10E08D859E85AF85B8892AE030E0D0
:1035100040E050E0BC01CD010E94A726DC01CB01B8
:10352000282FCE010396FC01E00FF11F20838D852B
:103530009E85AF85B8892AE030E040E050E0BC01CC
:10354000CD010E94A726DA01C9018D879E87AF872A
:10355000B88B8A818F5F8A838D859E85AF85B88978
:103560000097A105B10559F68A818150898311C060
:103570008981282F332727FD3095CE010396FC0142
:10358000E20FF31F8081805D0E94291A898181509A
:1035900089838981882364F703C080E30E94291A04
:1035A00060960FB6F894DEBF0FBECDBFCF91DF910E
:1035B0001F910F910895DF93CF9300D0CDB7DEB761
:1035C00089836A8389818130B9F48A818031A0F44A
:1035D0008A81882F90E080589F4F95958795959583
:1035E000879595958795959587950E94D8168A8198
:1035F00080580E94D81619C089818230B1F48A811E
:10360000803198F48A81882F90E080549F4F95955F
:1036100087959595879595958795959587950E941A
:10362000D8168A8180540E94D8160F900F90CF919F
:10363000DF910895DF93CF9300D000D0CDB7DEB7F0
:103640008A837C836B838A81883098F58A81882F6E
:1036500090E00896880F991F880F991F880F991F6F
:103660009595879595958795959587959595879542
:103670000E94D8168A81882F90E00896880F991F9B
:10368000880F991F880F991F0E94D81619820EC0A3
:103690008981282F30E08B819C81FC01E20FF31F90
:1036A00080810E94291A89818F5F8983898188306E
:1036B00078F30F900F900F900F90CF91DF910895B6
:1036C000DF93CF93CDB7DEB72E970FB6F894DEBF5A
:1036D0000FBECDBF80E00E94D81681E00E94D816B0
:1036E00080E090E0A0E0B0E48B879C87AD87BE8748
:1036F0006B857C858D859E8520E030E04AEF54E423
:103700000E941F02DC01CB018F839887A987BA87AB
:103710006F81788589859A8520E030E040E85FE315
:103720000E94790388232CF481E090E09E838D83AE
:103730003FC06F81788589859A8520E03FEF4FE70C
:1037400057E40E94190318164CF56B857C858D850E
:103750009E8520E030E040E251E40E941F02DC013F
:10376000CB01BC01CD010E944900DC01CB019E834D
:103770008D830FC088EC90E09C838B838B819C8130
:103780000197F1F79C838B838D819E8101979E83A6
:103790008D838D819E81009769F714C06F81788534
:1037A00089859A850E944900DC01CB019E838D8327
:1037B0008D819E819A83898389819A810197F1F70E
:1037C0009A8389832E960FB6F894DEBF0FBECDBFC5
:1037D000CF91DF910895DF93CF93CDB7DEB7609798
:1037E0000FB6F894DEBF0FBECDBF888B1F867BC09F
:1037F00081E00E94D81688E10E94D81680E090E00F
:10380000A6E9B3E48B879C87AD87BE876B857C85F3
:103810008D859E8520E030E04AEF54E40E941F022F
:10382000DC01CB018F839887A987BA876F81788560
:1038300089859A8520E030E040E85FE30E947903C3
:1038400088232CF481E090E09E838D833FC06F81BC
:10385000788589859A8520E03FEF4FE757E40E94FD
:10386000190318164CF56B857C858D859E8520E0A7
:1038700030E040E251E40E941F02DC01CB01BC01B8
:10388000CD010E944900DC01CB019E838D830FC0D6
:1038900088EC90E09C838B838B819C810197F1F76E
:1038A0009C838B838D819E8101979E838D838D81E7
:1038B0009E81009769F714C06F81788589859A8504
:1038C0000E944900DC01CB019E838D838D819E8106
:1038D0009A83898389819A810197F1F79A838983F1
:1038E0008F858F5F8F879F858889981708F480CF91
:1038F00060960FB6F894DEBF0FBECDBFCF91DF91BB
:103900000895DF93CF93CDB7DEB760970FB6F894E5
:10391000DEBF0FBECDBF888B1F867BC081E00E94BB
:10392000D8168CE10E94D81680E090E0A6E9B3E4B6
:103930008B879C87AD87BE876B857C858D859E85B3
:1039400020E030E04AEF54E40E941F02DC01CB018A
:103950008F839887A987BA876F81788589859A85AB
:1039600020E030E040E85FE30E94790388232CF4F4
:1039700081E090E09E838D833FC06F81788589854B
:103980009A8520E03FEF4FE757E40E94190318168D
:103990004CF56B857C858D859E8520E030E040E28E
:1039A00051E40E941F02DC01CB01BC01CD010E9449
:1039B0004900DC01CB019E838D830FC088EC90E031
:1039C0009C838B838B819C810197F1F79C838B83F4
:1039D0008D819E8101979E838D838D819E8100972D
:1039E00069F714C06F81788589859A850E9449009E
:1039F000DC01CB019E838D838D819E819A83898397
:103A000089819A810197F1F79A8389838F858F5FE6
:103A10008F879F858889981708F480CF60960FB6A6
:103A2000F894DEBF0FBECDBFCF91DF910895DF9335
:103A3000CF93CDB7DEB760970FB6F894DEBF0FBE59
:103A4000CDBF888B1F867BC081E00E94D81680E1A5
:103A50000E94D81680E090E0A6E9B3E48B879C87AB
:103A6000AD87BE876B857C858D859E8520E030E0A7
:103A70004AEF54E40E941F02DC01CB018F83988738
:103A8000A987BA876F81788589859A8520E030E09B
:103A900040E85FE30E94790388232CF481E090E002
:103AA0009E838D833FC06F81788589859A8520E0CC
:103AB0003FEF4FE757E40E94190318164CF56B854A
:103AC0007C858D859E8520E030E040E251E40E94B7
:103AD0001F02DC01CB01BC01CD010E944900DC01C9
:103AE000CB019E838D830FC088EC90E09C838B83F9
:103AF0008B819C810197F1F79C838B838D819E81C3
:103B000001979E838D838D819E81009769F714C0F4
:103B10006F81788589859A850E944900DC01CB01F7
:103B20009E838D838D819E819A83898389819A81E9
:103B30000197F1F79A8389838F858F5F8F879F85A0
:103B40008889981708F480CF60960FB6F894DEBF86
:103B50000FBECDBFCF91DF910895DF93CF93CDB747
:103B6000DEB760970FB6F894DEBF0FBECDBF888B6F
:103B70001F867BC081E00E94D81684E10E94D8167F
:103B800080E090E0A6E9B3E48B879C87AD87BE8791
:103B90006B857C858D859E8520E030E04AEF54E47E
:103BA0000E941F02DC01CB018F839887A987BA8707
:103BB0006F81788589859A8520E030E040E85FE371
:103BC0000E94790388232CF481E090E09E838D830A
:103BD0003FC06F81788589859A8520E03FEF4FE768
:103BE00057E40E94190318164CF56B857C858D856A
:103BF0009E8520E030E040E251E40E941F02DC019B
:103C0000CB01BC01CD010E944900DC01CB019E83A8
:103C10008D830FC088EC90E09C838B838B819C818B
:103C20000197F1F79C838B838D819E8101979E8301
:103C30008D838D819E81009769F714C06F8178858F
:103C400089859A850E944900DC01CB019E838D8382
:103C50008D819E819A83898389819A810197F1F769
:103C60009A8389838F858F5F8F879F85888998172F
:103C700008F480CF60960FB6F894DEBF0FBECDBFBC
:103C8000CF91DF910895DF93CF9300D00F92CDB7FE
:103C9000DEB70E941C0D0E9477170E94BE0D82E0C5
:103CA00060E00E947F0D80911401882329F40E9416
:103CB000C21E0E941C1F10C081E060E00E94DB1A3F
:103CC00080E690E00E943B1A82E061E00E94DB1AED
:103CD00080E790E00E943B1A1A8219820DC00E9470
:103CE000150E8B838B818F3F11F00E943C1F8981C1
:103CF0009A8101969A83898389819A8123E0883EFB
:103D0000920768F3D0CFDF93CF9300D000D0CDB728
:103D1000DEB784E00E944D0D9C838B838B819C8158
:103D2000CC01A0E0B0E028E833E140E050E0BC0185
:103D3000CD010E947426DC01CB01072E7AE0B695F6
:103D4000A795979587957A95D1F7702D9A83898352
:103D500089819A812AE030E0B9010E9493268093FC
:103D60001F0189819A812AE030E0B9010E949326DF
:103D7000CB01809320010F900F900F900F90CF9167
:103D8000DF910895DF93CF93CDB7DEB70E94831EF6
:103D90000E94601B81E061E00E94DB1A8FE790E0E7
:103DA0000E943B1A80912001882F90E0A0E0B0E0B3
:103DB000BC01CD010E94641A87E890E00E943B1A82
:103DC00080911F01882F90E0A0E0B0E0BC01CD0100
:103DD0000E94641A89E890E00E943B1ACF91DF911B
:103DE0000895DF93CF9300D0CDB7DEB781E00E9476
:103DF0004D0D9A83898389819A81CC01A0E0B0E03E
:103E000024E630E040E050E0BC01CD010E94742681
:103E1000DC01CB01072E7AE0B695A795979587959B
:103E20007A95D1F7702D90931E0180931D010F900C
:103E30000F90CF91DF910895DF93CF93CDB7DEB789
:103E40000E94F11E82E061E00E94DB1A8CE890E0A3
:103E50000E943B1A80911D0190911E01CC01A0E0AF
:103E6000B0E0BC01CD010E94641A86E990E00E9496
:103E70003B1ACF91DF9108950F931F93DF93CF9358
:103E8000CDB7DEB7CD57D0400FB6F894DEBF0FBE2A
:103E9000CDBFFE01E758FF4F88E491E29183808314
:103EA000FE01EB58FF4F11821082FE01EC58FF4FCC
:103EB0001082FE01ED58FF4F1082FE01EE58FF4FB9
:103EC00010820E94601B89E990E00E943B1A82E008
:103ED00064E00E94DB1A0E94150EFE01E558FF4FB8
:103EE0008083FE01E558FF4F80818F3FA1F3FE01E3
:103EF000ED58FF4F8081843008F07DC3DE01AD585E
:103F0000BF4FFE01ED58FF4F80818F5F8C93FE0104
:103F1000E558FF4F8081282F30E0EE963FAF2EAF5F
:103F2000EE97EE968EAD9FADEE978433910509F432
:103F3000F7C0EE96EEADFFADEE97E533F1054CF52B
:103F4000EE962EAD3FADEE972133310509F476C0E4
:103F5000EE968EAD9FADEE97823391054CF4EE96C2
:103F6000EEADFFADEE97E033F10509F443C0BCC1FF
:103F7000EE962EAD3FADEE972233310509F484C0A5
:103F8000EE968EAD9FADEE978333910509F4A2C0F6
:103F9000ABC1EE96EEADFFADEE97E733F10509F458
:103FA00031C1EE962EAD3FADEE97283331058CF43E
:103FB000EE968EAD9FADEE978533910509F4D6C090
:103FC000EE96EEADFFADEE97E633F10509F4F4C0E1
:103FD0008BC1EE962EAD3FADEE972833310509F437
:103FE00037C1EE968EAD9FADEE978933910509F4FA
:103FF00055C17AC1FE01E958FF4F11821082FE01BE
:10400000EB58FF4F808191819C01220F331FC90122
:10401000880F991F880F991F280F391FDE01AB5891
:10402000BF4FFE01E958FF4F80819181820F931F9E
:104030008D939C9380E30E94291ADDC2FE01E9580A
:10404000FF4F81E090E091838083FE01EB58FF4FAA
:10405000808191819C01220F331FC901880F991F14
:10406000880F991F280F391FDE01AB58BF4FFE0183
:10407000E958FF4F80819181820F931F8D939C930C
:1040800081E30E94291AB7C2FE01E958FF4F82E07E
:1040900090E091838083FE01EB58FF4F80819181F6
:1040A0009C01220F331FC901880F991F880F991F88
:1040B000280F391FDE01AB58BF4FFE01E958FF4FF3
:1040C00080819181820F931F8D939C9382E30E9444
:1040D000291A91C2FE01E958FF4F83E090E09183D5
:1040E0008083FE01EB58FF4F808191819C01220F5C
:1040F000331FC901880F991F880F991F280F391F77
:10410000DE01AB58BF4FFE01E958FF4F808191811E
:10411000820F931F8D939C9383E30E94291A6BC295
:10412000FE01E958FF4F84E090E091838083FE0117
:10413000EB58FF4F808191819C01220F331FC901F1
:10414000880F991F880F991F280F391FDE01AB5860
:10415000BF4FFE01E958FF4F80819181820F931F6D
:104160008D939C9384E30E94291A45C2FE01E9586D
:10417000FF4F85E090E091838083FE01EB58FF4F75
:10418000808191819C01220F331FC901880F991FE3
:10419000880F991F280F391FDE01AB58BF4FFE0152
:1041A000E958FF4F80819181820F931F8D939C93DB
:1041B00085E30E94291A1FC2FE01E958FF4F86E0DD
:1041C00090E091838083FE01EB58FF4F80819181C5
:1041D0009C01220F331FC901880F991F880F991F57
:1041E000280F391FDE01AB58BF4FFE01E958FF4FC2
:1041F00080819181820F931F8D939C9386E30E940F
:10420000291AF9C1FE01E958FF4F87E090E0918338
:104210008083FE01EB58FF4F808191819C01220F2A
:10422000331FC901880F991F880F991F280F391F45
:10423000DE01AB58BF4FFE01E958FF4F80819181ED
:10424000820F931F8D939C9387E30E94291AD3C1F9
:10425000FE01E958FF4F88E090E091838083FE01E2
:10426000EB58FF4F808191819C01220F331FC901C0
:10427000880F991F880F991F280F391FDE01AB582F
:10428000BF4FFE01E958FF4F80819181820F931F3C
:104290008D939C9388E30E94291AADC1FE01E958D1
:1042A000FF4F89E090E091838083FE01EB58FF4F40
:1042B000808191819C01220F331FC901880F991FB2
:1042C000880F991F280F391FDE01AB58BF4FFE0121
:1042D000E958FF4F80819181820F931F8D939C93AA
:1042E00089E30E94291A87C10E94601B81E061E076
:1042F0000E94DB1A8AEA90E00E943B1A82E061E0A9
:104300000E94DB1A87EB90E00E943B1AFE01E35902
:10431000FF4F80E090E8ABEBB4E480839183A2830D
:10432000B3838E0107591F4FFE01E359FF4F608190
:1043300071818281938120E030E04AEF54E40E9451
:104340001F02DC01CB01F80180839183A283B38338
:10435000FE01E759FF4F608171818281938120E0E6
:1043600030E040E85FE30E947903882344F4FE01D3
:10437000E959FF4F81E090E09183808364C0FE01A2
:10438000E759FF4F608171818281938120E03FEF87
:104390004FE757E40E94190318160CF043C0FE01C2
:1043A000E359FF4F608171818281938120E030E089
:1043B00040E251E40E941F02DC01CB018E01095949
:1043C0001F4FBC01CD010E944900DC01CB01F80167
:1043D000918380831FC0FE01EB59FF4F88EC90E072
:1043E00091838083FE01EB59FF4F8081918101977A
:1043F000F1F7FE01EB59FF4F91838083DE01A9594C
:10440000BF4FFE01E959FF4F8081918101971196BD
:104410009C938E93FE01E959FF4F80819181009713
:10442000D1F627C08E0109591F4FFE01E759FF4FF2
:1044300060817181828193810E944900DC01CB01FE
:10444000F80191838083DE01AD59BF4FFE01E95928
:10445000FF4F808191818D939C93FE01ED59FF4F19
:10446000808191810197F1F7FE01ED59FF4F918312
:1044700080830E94601B84EC90E00E943B1A82E0E3
:1044800064E00E94DB1AFE01E15AFF4F80E090E0F9
:10449000AAEFB3E480839183A283B3838E01055A8C
:1044A0001F4FFE01E15AFF4F60817181828193812C
:1044B00020E030E04AEF54E40E941F02DC01CB010F
:1044C000F80180839183A283B383FE01E55AFF4FF5
:1044D000608171818281938120E030E040E85FE378
:1044E0000E947903882344F4FE01E75AFF4F81E0DC
:1044F00090E09183808364C0FE01E55AFF4F6081A4
:1045000071818281938120E03FEF4FE757E40E9461
:10451000190318160CF043C0FE01E15AFF4F6081E9
:1045200071818281938120E030E040E251E40E9479
:104530001F02DC01CB018E01075A1F4FBC01CD01C8
:104540000E944900DC01CB01F801918380831FC0E8
:10455000FE01E95AFF4F88EC90E091838083FE01D1
:10456000E95AFF4F808191810197F1F7FE01E95AE5
:10457000FF4F91838083DE01A75ABF4FFE01E75AA8
:10458000FF4F80819181019711969C938E93FE013C
:10459000E75AFF4F808191810097D1F628C08E01A4
:1045A000075A1F4FFE01E55AFF4F608171818281DA
:1045B00093810E944900DC01CB01F8019183808343
:1045C000DE01AB5ABF4FFE01E75AFF4F8081918158
:1045D00011969C938E93FE01EB5AFF4F808191813F
:1045E0000197F1F7FE01EB5AFF4F91838083FE01A3
:1045F000ED58FF4F1082FE01ED58FF4F808184304F
:1046000008F469CCFE01EB58FF4FDE01A758BF4FFD
:10461000208131818D919C9111972817390709F0DC
:1046200041C1FE01EF5AFF4F80E090E0AAE7B4E4F9
:1046300080839183A283B3838E01035B1F4FFE01AE
:10464000EF5AFF4F608171818281938120E030E0D9
:104650004AEF54E40E941F02DC01CB01F801808381
:104660009183A283B383FE01E35BFF4F608171817D
:104670008281938120E030E040E85FE30E9479038B
:10468000882344F4FE01E55BFF4F81E090E09183D5
:10469000808364C0FE01E35BFF4F60817181828192
:1046A000938120E03FEF4FE757E40E94190318166B
:1046B0000CF043C0FE01EF5AFF4F6081718182818F
:1046C000938120E030E040E251E40E941F02DC01CF
:1046D000CB018E01055B1F4FBC01CD010E9449003B
:1046E000DC01CB01F801918380831FC0FE01E75BF1
:1046F000FF4F88EC90E091838083FE01E75BFF4FE2
:10470000808191810197F1F7FE01E75BFF4F918373
:104710008083DE01A55BBF4FFE01E55BFF4F80811B
:104720009181019711969C938E93FE01E55BFF4F5B
:10473000808191810097D1F627C08E01055B1F4FC4
:10474000FE01E35BFF4F60817181828193810E9452
:104750004900DC01CB01F80191838083DE01A95B74
:10476000BF4FFE01E55BFF4F808191818D939C934C
:10477000FE01E95BFF4F808191810197F1F7FE0116
:10478000E95BFF4F918380830E94601B82ED90E084
:104790000E943B1A10921401FE01ED5BFF4F80E076
:1047A00090E0AAE7B4E480839183A283B3838E016F
:1047B000015C1F4FFE01ED5BFF4F608171818281C3
:1047C000938120E030E04AEF54E40E941F02DC01B4
:1047D000CB01F80180839183A283B383FE01FF960E
:1047E000608171818281938120E030E040E85FE365
:1047F0000E94790388232CF481E090E09EAF8DAF76
:1048000046C0FE01FF96608171818281938120E024
:104810003FEF4FE757E40E941903181664F5FE01B5
:10482000ED5BFF4F608171818281938120E030E0F8
:1048300040E251E40E941F02DC01CB01BC01CD012A
:104840000E944900DC01CB019EAF8DAF0FC088EC08
:1048500090E09CAF8BAF8BAD9CAD0197F1F79CAF17
:104860008BAF8DAD9EAD01979EAF8DAF8DAD9EADE3
:10487000009769F72DC2FE01FF96608171818281E8
:1048800093810E944900DC01CB019EAF8DAF8DADBD
:104890009EAD9AAF89AF89AD9AAD0197F1F79AAF06
:1048A00089AF16C2FE01EE58FF4F8081823008F0BA
:1048B0008FC080E090E0AAE7B4E48DAB9EABAFABD5
:1048C000B8AF6DA97EA98FA998AD20E030E04AEF7E
:1048D00054E40E941F02DC01CB0189AB9AABABAB65
:1048E000BCAB69A97AA98BA99CA920E030E040E87B
:1048F0005FE30E94790388232CF481E090E098AB79
:104900008FA73FC069A97AA98BA99CA920E03FEF96
:104910004FE757E40E94190318164CF56DA97EA9BC
:104920008FA998AD20E030E040E251E40E941F02E0
:10493000DC01CB01BC01CD010E944900DC01CB01AF
:1049400098AB8FA70FC088EC90E09EA78DA78DA590
:104950009EA50197F1F79EA78DA78FA598A901970E
:1049600098AB8FA78FA598A9009769F714C069A97C
:104970007AA98BA99CA90E944900DC01CB0198ABC4
:104980008FA78FA598A99CA78BA78BA59CA50197FE
:10499000F1F79CA78BA70E94601B8FED90E00E940F
:1049A0003B1AFE01ED58FF4F1082FE01EB58FF4FFE
:1049B00011821082DE01AE58BF4FFE01EE58FF4F4C
:1049C00080818F5F8C9382E064E00E94DB1A83CA4F
:1049D00080E090E0AAE7B4E48FA398A7A9A7BAA7BC
:1049E0006FA178A589A59AA520E030E04AEF54E4AC
:1049F0000E941F02DC01CB018BA39CA3ADA3BEA32D
:104A00006BA17CA18DA19EA120E030E040E85FE396
:104A10000E94790388232CF481E090E09AA389A373
:104A20003FC06BA17CA18DA19EA120E03FEF4FE78D
:104A300057E40E94190318164CF56FA178A589A5B3
:104A40009AA520E030E040E251E40E941F02DC0120
:104A5000CB01BC01CD010E944900DC01CB019AA32E
:104A600089A30FC088EC90E098A38F8F8F8D98A1B9
:104A70000197F1F798A38F8F89A19AA101979AA323
:104A800089A389A19AA1009769F714C06BA17CA1A1
:104A90008DA19EA10E944900DC01CB019AA389A3AC
:104AA00089A19AA19E8F8D8F8D8D9E8D0197F1F793
:104AB0009E8F8D8F0E94601B8CEE90E00E943B1AAF
:104AC00081E080931401FE01EF58FF4F1082F9C07E
:104AD00082E090E060E070E00E94900D80E090E065
:104AE000A8E4B3E4898F9A8FAB8FBC8F698D7A8DE0
:104AF0008B8D9C8D20E030E04AEF54E40E941F0231
:104B0000DC01CB018D8B9E8BAF8BB88F6D897E893D
:104B10008F89988D20E030E040E85FE30E947903C0
:104B200088232CF481E090E09C8B8B8B3FC06D89B7
:104B30007E898F89988D20E03FEF4FE757E40E94F0
:104B4000190318164CF5698D7A8D8B8D9C8D20E09C
:104B500030E040E251E40E941F02DC01CB01BC01C5
:104B6000CD010E944900DC01CB019C8B8B8B0FC0D7
:104B700088EC90E09A8B898B89899A890197F1F763
:104B80009A8B898B8B899C8901979C8B8B8B8B89CA
:104B90009C89009769F714C06D897E898F89988DEB
:104BA0000E944900DC01CB019C8B8B8B8B899C89FB
:104BB000988B8F878F8598890197F1F7988B8F87CE
:104BC00082E090E060E070E00E94A10D80E090E063
:104BD000A8E4B3E48B879C87AD87BE876B857C8513
:104BE0008D859E8520E030E04AEF54E40E941F024C
:104BF000DC01CB018F839887A987BA876F8178857D
:104C000089859A8520E030E040E85FE30E947903DF
:104C100088232CF481E090E09E838D833FC06F81D8
:104C2000788589859A8520E03FEF4FE757E40E9419
:104C3000190318164CF56B857C858D859E8520E0C3
:104C400030E040E251E40E941F02DC01CB01BC01D4
:104C5000CD010E944900DC01CB019E838D830FC0F2
:104C600088EC90E09C838B838B819C810197F1F78A
:104C70009C838B838D819E8101979E838D838D8103
:104C80009E81009769F714C06F81788589859A8520
:104C90000E944900DC01CB019E838D838D819E8122
:104CA0009A83898389819A810197F1F79A8389830D
:104CB000DE01AF58BF4FFE01EF58FF4F80818F5F7D
:104CC0008C93FE01EF58FF4F8081893108F400CFAB
:104CD000C358DF4F0FB6F894DEBF0FBECDBFCF91E4
:104CE000DF911F910F910895629FD001739FF00192
:104CF000829FE00DF11D649FE00DF11D929FF00D6C
:104D0000839FF00D749FF00D659FF00D9927729FA2
:104D1000B00DE11DF91F639FB00DE11DF91FBD012D
:104D2000CF0111240895AA1BBB1B51E107C0AA1F84
:104D3000BB1FA617B70710F0A61BB70B881F991F3C
:104D40005A95A9F780959095BC01CD010895A1E2EF
:104D50001A2EAA1BBB1BFD010DC0AA1FBB1FEE1FF5
:104D6000FF1FA217B307E407F50720F0A21BB30B40
:104D7000E40BF50B661F771F881F991F1A9469F7BC
:104D800060957095809590959B01AC01BD01CF0118
:104D900008952F923F924F925F926F927F928F92DF
:104DA0009F92AF92BF92CF92DF92EF92FF920F93BA
:104DB0001F93CF93DF93CDB7DEB7CA1BDB0B0FB6C4
:104DC000F894DEBF0FBECDBF09942A883988488881
:104DD0005F846E847D848C849B84AA84B984C88417
:104DE000DF80EE80FD800C811B81AA81B981CE0F0E
:104DF000D11D0FB6F894DEBF0FBECDBFED010895F3
:044E0000F894FFCF54
:104E040020507265737320416E79204B65792000C0
:104E140020546F2054727920416761696E200054D8
:104E2400656D70203D20002E002043004C54204925
:104E34004E54203D2000202500456E74657220509C
:104E4400617373636F6465203A00506C65617365C8
:104E540020456E746572004E756D62657273204FE5
:104E64006E6C790020202054727920416761696E4C
:104E740020002020202057656C636F6D6520002082
:104E84002054727920416761696E2000204F757447
:104E9400206F662074726965732021000000000091
:104EA400000000003734314F383532303936333D65
:044EB4002F2A2D2B49
:00000001FF
