:100000000C942A000C9485060C94B8060C94EB060C
:100010000C943C000C943C000C94B7090C94160A08
:100020000C943C000C943C000C946F090C94230934
:100030000C943C000C943C000C943C000C943C0050
:100040000C943C000C943C000C943C000C943C0040
:100050000C943C0011241FBECFE5D8E0DEBFCDBF1D
:1000600010E0A0E6B0E001C01D92AC37B107E1F7A7
:100070000E94730A0C94E60A0C940000DF93CF935D
:100080000F92CDB7DEB7EAE3F0E01082E7E3F0E0ED
:1000900081E08083E4E3F0E01082E1E3F0E01082AD
:1000A000EBE3F0E01082E8E3F0E01082E5E3F0E05B
:1000B0001082E2E3F0E010820F90CF91DF9108957B
:1000C000DF93CF93CDB7DEB72E970FB6F894DEBF90
:1000D0000FBECDBF8A836B834C8381E089838A8185
:1000E000843008F00CC18B81883008F008C18C8105
:1000F000882321F08C81813009F001C18A81282F69
:1001000030E03E872D878D859E858130910509F4ED
:100110004FC02D853E85223031052CF48D859E857E
:10012000009771F0EDC02D853E852230310509F430
:1001300077C08D859E858330910509F4A9C0E0C004
:100140008C81282F30E03C872B878B859C850097FE
:10015000D1F02B853C852130310509F0D1C0AAE3CF
:10016000B0E0EAE3F0E08081482F8B81282F30E077
:1001700081E090E0022E02C0880F991F0A94E2F7F6
:10018000842B8C93BDC0AAE3B0E0EAE3F0E0808169
:10019000482F8B81282F30E081E090E0022E02C0B2
:1001A000880F991F0A94E2F7809584238C93A8C046
:1001B0008C81282F30E03A87298789859A85009796
:1001C000D1F029853A852130310509F099C0A7E39E
:1001D000B0E0E7E3F0E08081482F8B81282F30E00A
:1001E00081E090E0022E02C0880F991F0A94E2F786
:1001F000842B8C9385C0A7E3B0E0E7E3F0E0808137
:10020000482F8B81282F30E081E090E0022E02C041
:10021000880F991F0A94E2F7809584238C9370C00D
:100220008C81282F30E038872F838F819885009725
:10023000D1F02F8138852130310509F061C0A4E368
:10024000B0E0E4E3F0E08081482F8B81282F30E09C
:1002500081E090E0022E02C0880F991F0A94E2F715
:10026000842B8C934DC0A4E3B0E0E4E3F0E0808104
:10027000482F8B81282F30E081E090E0022E02C0D1
:10028000880F991F0A94E2F7809584238C9338C0D5
:100290008C81282F30E03E832D838D819E810097B5
:1002A000C9F02D813E812130310551F5A1E3B0E047
:1002B000E1E3F0E08081482F8B81282F30E081E05E
:1002C00090E0022E02C0880F991F0A94E2F7842B57
:1002D0008C9316C0A1E3B0E0E1E3F0E08081482F09
:1002E0008B81282F30E081E090E0022E02C0880F41
:1002F000991F0A94E2F7809584238C9301C0198298
:1003000089812E960FB6F894DEBF0FBECDBFCF9178
:10031000DF910895DF93CF93CDB7DEB72E970FB659
:10032000F894DEBF0FBECDBF8A836B834C8381E020
:1003300089838A81843008F00CC18B81883008F071
:1003400008C18C81813021F08C81882309F001C1A2
:100350008A81282F30E03E872D878D859E858130CC
:10036000910509F44FC02D853E85223031052CF4CE
:100370008D859E85009771F0EDC02D853E852230DC
:10038000310509F477C08D859E858330910509F488
:10039000A9C0E0C08C81282F30E03C872B878B855B
:1003A0009C850097D1F02B853C852130310509F0E3
:1003B000D1C0ABE3B0E0EBE3F0E08081482F8B816C
:1003C000282F30E081E090E0022E02C0880F991FB4
:1003D0000A94E2F7842B8C93BDC0ABE3B0E0EBE36F
:1003E000F0E08081482F8B81282F30E081E090E081
:1003F000022E02C0880F991F0A94E2F78095842389
:100400008C93A8C08C81282F30E03A872987898572
:100410009A850097D1F029853A852130310509F078
:1004200099C0A8E3B0E0E8E3F0E08081482F8B8139
:10043000282F30E081E090E0022E02C0880F991F43
:100440000A94E2F7842B8C9385C0A8E3B0E0E8E33C
:10045000F0E08081482F8B81282F30E081E090E010
:10046000022E02C0880F991F0A94E2F78095842318
:100470008C9370C08C81282F30E038872F838F8138
:1004800098850097D1F02F8138852130310509F00A
:1004900061C0A5E3B0E0E5E3F0E08081482F8B8107
:1004A000282F30E081E090E0022E02C0880F991FD3
:1004B0000A94E2F7842B8C934DC0A5E3B0E0E5E30A
:1004C000F0E08081482F8B81282F30E081E090E0A0
:1004D000022E02C0880F991F0A94E2F780958423A8
:1004E0008C9338C08C81282F30E03E832D838D8102
:1004F0009E810097C9F02D813E812130310551F553
:10050000A2E3B0E0E2E3F0E08081482F8B81282F66
:1005100030E081E090E0022E02C0880F991F0A941B
:10052000E2F7842B8C9316C0A2E3B0E0E2E3F0E0A4
:100530008081482F8B81282F30E081E090E0022ECF
:1005400002C0880F991F0A94E2F7809584238C9348
:1005500001C0198289812E960FB6F894DEBF0FBEB6
:10056000CDBFCF91DF910895DF93CF93CDB7DEB7A5
:1005700027970FB6F894DEBF0FBECDBF8A836B837B
:100580005D834C8381E089838A81843008F0EAC0EE
:100590008B81883008F0E6C08C819D81009709F43A
:1005A000E1C08A81282F30E03F832E834E815F8116
:1005B0004130510509F448C08E819F8182309105F8
:1005C00034F42E813F812115310571F0CCC04E816C
:1005D0005F814230510509F467C08E819F8183306D
:1005E000910509F490C0BFC0E9E3F0E08081282FB5
:1005F00030E08B81882F90E0A90102C05595479586
:100600008A95E2F7CA0181709070009721F4EC811D
:10061000FD811082A8C0E9E3F0E08081282F30E05E
:100620008B81882F90E0A90102C0559547958A9546
:10063000E2F7CA0181709070882309F494C0EC81BC
:10064000FD8181E080838FC0E6E3F0E08081282F88
:1006500030E08B81882F90E0A90102C05595479525
:100660008A95E2F7CA0181709070009721F4EC81BD
:10067000FD81108278C0E6E3F0E08081282F30E031
:100680008B81882F90E0A90102C0559547958A95E6
:10069000E2F7CA0181709070882309F464C0EC818C
:1006A000FD8181E080835FC0E3E3F0E08081282F5B
:1006B00030E08B81882F90E0A90102C055954795C5
:1006C0008A95E2F7CA0181709070009721F4EC815D
:1006D000FD81108248C0E3E3F0E08081282F30E004
:1006E0008B81882F90E0A90102C0559547958A9586
:1006F000E2F7CA01817090708823A9F1EC81FD8135
:1007000081E0808330C0E0E3F0E08081282F30E09A
:100710008B81882F90E0A90102C0559547958A9555
:10072000E2F7CA0181709070009721F4EC81FD819D
:10073000108219C0E0E3F0E08081282F30E08B8147
:10074000882F90E0A90102C0559547958A95E2F758
:10075000CA0181709070882331F0EC81FD8181E0C5
:10076000808301C01982898127960FB6F894DEBF75
:100770000FBECDBFCF91DF910895DF93CF93CDB75B
:10078000DEB72D970FB6F894DEBF0FBECDBF8A83BC
:100790006B8381E089838A81843008F087C08B81F4
:1007A000813021F08B81882309F080C08A81282F35
:1007B00030E03D872C878C859D858130910571F1D6
:1007C0002C853D85223031052CF48C859D85009744
:1007D00069F06DC02C853D8522303105B9F18C85DD
:1007E0009D858330910509F449C061C08B81282F14
:1007F00030E03B872A878A859B85009731F02A85E0
:100800003B852130310529F052C0EAE3F0E0108247
:100810004EC0EAE3F0E08FEF808349C08B81282F40
:1008200030E03987288788859985009731F02885B9
:1008300039852130310529F03AC0E7E3F0E0108234
:1008400036C0E7E3F0E08FEF808331C08B81282F43
:1008500030E03F832E838E819F81009731F02E817F
:100860003F812130310529F022C0E4E3F0E010821D
:100870001EC0E4E3F0E08FEF808319C08B81282F46
:1008800030E03D832C838C819D81009731F02C8159
:100890003D812130310529F00AC0E1E3F0E010820A
:1008A00006C0E1E3F0E08FEF808301C01982898107
:1008B0002D960FB6F894DEBF0FBECDBFCF91DF915E
:1008C0000895DF93CF9300D000D00F92CDB7DEB75D
:1008D0008A836B8381E089838A81282F30E03D837E
:1008E0002C838C819D8181309105D1F02C813D81BB
:1008F000223031052CF48C819D81009761F01FC05E
:100900002C813D812230310581F08C819D818330A5
:10091000910581F014C0EBE3F0E08B81808310C07F
:10092000E8E3F0E08B8180830BC0E5E3F0E08B81AE
:10093000808306C0E2E3F0E08B81808301C01982EE
:1009400089810F900F900F900F900F90CF91DF91B2
:100950000895DF93CF9300D000D000D0CDB7DEB79D
:100960008A837C836B8381E089838B819C81009760
:10097000E9F18A81282F30E03E832D838D819E818D
:1009800081309105E1F02D813E81223031052CF43A
:100990008D819E81009761F027C02D813E8122309C
:1009A0003105A1F08D819E8183309105B1F01CC08D
:1009B000E9E3F0E08081EB81FC81808318C0E6E30D
:1009C000F0E08081EB81FC81808311C0E3E3F0E003
:1009D0008081EB81FC8180830AC0E0E3F0E08081CC
:1009E000EB81FC81808303C0198201C01982898157
:1009F00026960FB6F894DEBF0FBECDBFCF91DF9124
:100A00000895DF93CF9300D000D0CDB7DEB79B839E
:100A10008A836C8381E089838C81833088F48A8126
:100A20009B81009769F08C81882F90E0880F991F37
:100A3000FC01E05AFF4F8A819B819183808301C032
:100A4000198289810F900F900F900F90CF91DF91B5
:100A50000895DF93CF93CDB7DEB72B970FB6F894F9
:100A6000DEBF0FBECDBF8A836B8381E089838A811D
:100A7000282F30E03B872A878A859B858130910526
:100A800009F46FC02A853B852230310509F4CDC0B9
:100A90008A859B85009709F0F0C08B81282F30E074
:100AA00039872887888599858130910521F12885A6
:100AB0003985223031052CF488859985009761F0BD
:100AC00047C0288539852230310599F18885998577
:100AD00083309105F9F03CC0A5E5B0E0E5E5F0E034
:100AE000808182608C93A5E5B0E0E5E5F0E080814F
:100AF0008E7F8C932EC0A5E5B0E0E5E5F0E0808127
:100B000082608C93A5E5B0E0E5E5F0E0808181604E
:100B10008C931FC0A5E5B0E0E5E5F0E080818D7F16
:100B20008C93A5E5B0E0E5E5F0E080818E7F8C93C5
:100B300010C0A5E5B0E0E5E5F0E0808181608C9330
:100B4000A5E5B0E0E5E5F0E080818D7F8C9301C004
:100B50001982ABE5B0E0EBE5F0E0808180648C9336
:100B60008DC08B81282F30E03F832E838E819F8123
:100B70008130910521F12E813F81223031052CF405
:100B80008E819F81009761F047C02E813F81223086
:100B9000310599F18E819F8183309105F9F03CC038
:100BA000A5E5B0E0E5E5F0E0808188608C93A5E5FF
:100BB000B0E0E5E5F0E080818B7F8C932EC0A5E569
:100BC000B0E0E5E5F0E0808188608C93A5E5B0E0D9
:100BD000E5E5F0E0808184608C931FC0A5E5B0E07E
:100BE000E5E5F0E080818B7F8C93A5E5B0E0E5E55D
:100BF000F0E08081877F8C9310C0A5E5B0E0E5E54B
:100C0000F0E0808184608C93A5E5B0E0E5E5F0E05C
:100C10008081877F8C9301C01982ABE5B0E0EBE562
:100C2000F0E0808180688C9329C08B81282F30E090
:100C30003D832C838C819D81009731F02C813D81F7
:100C40002130310549F010C0A4E5B0E0E4E5F0E062
:100C500080818F7B8C9309C0A4E5B0E0E4E5F0E0EF
:100C6000808180648C9301C01982ABE5B0E0EBE534
:100C7000F0E0808180628C9301C0198289812B967B
:100C80000FB6F894DEBF0FBECDBFCF91DF910895B0
:100C9000DF93CF9300D000D0CDB7DEB78A8381E059
:100CA00089838A81282F30E03C832B838B819C8130
:100CB0008130910589F02B813C8122303105A1F0F2
:100CC0008B819C810097C1F4ABE5B0E0EBE5F0E0EF
:100CD00080818F7B8C9311C0ABE5B0E0EBE5F0E059
:100CE00080818F778C9309C0ABE5B0E0EBE5F0E055
:100CF00080818F7D8C9301C0198289810F900F9024
:100D00000F900F90CF91DF9108951F920F920FB621
:100D10000F9211242F933F934F935F936F937F9381
:100D20008F939F93AF93BF93EF93FF93DF93CF93F3
:100D3000CDB7DEB78091600090916100009729F0F7
:100D4000E0916000F09161000995CF91DF91FF91F2
:100D5000EF91BF91AF919F918F917F916F915F9133
:100D60004F913F912F910F900FBE0F901F901895AC
:100D70001F920F920FB60F9211242F933F934F9310
:100D80005F936F937F938F939F93AF93BF93EF93F3
:100D9000FF93DF93CF93CDB7DEB780916200909140
:100DA0006300009729F0E0916200F09163000995DB
:100DB000CF91DF91FF91EF91BF91AF919F918F9173
:100DC0007F916F915F914F913F912F910F900FBE47
:100DD0000F901F9018951F920F920FB60F9211242B
:100DE0002F933F934F935F936F937F938F939F9333
:100DF000AF93BF93EF93FF93DF93CF93CDB7DEB75E
:100E00008091640090916500009729F0E091640062
:100E1000F09165000995CF91DF91FF91EF91BF911E
:100E2000AF919F918F917F916F915F914F913F9182
:100E30002F910F900FBE0F901F901895DF93CF93B7
:100E4000CDB7DEB7AFE5B0E0EFE5F0E080818068D8
:100E50008C93CF91DF910895DF93CF93CDB7DEB719
:100E6000AFE5B0E0EFE5F0E080818F778C93CF9134
:100E7000DF910895DF93CF93CDB7DEB7A3E5B0E060
:100E8000E3E5F0E0808180648C93A3E5B0E0E3E5E6
:100E9000F0E0808188608C93A3E5B0E0E3E5F0E0CA
:100EA000808180628C93A3E5B0E0E3E5F0E080818F
:100EB0008F7E8C93A3E5B0E0E3E5F0E080818B7F4B
:100EC0008C93A3E5B0E0E3E5F0E0808182608C9351
:100ED000A3E5B0E0E3E5F0E080818E7F8C93CF91D5
:100EE000DF910895DF93CF9300D00F92CDB7DEB797
:100EF0009B838A8319828A819B81009751F0ECE45D
:100F0000F0E080819181EA81FB819183808381E09F
:100F1000898389810F900F900F90CF91DF91089571
:100F2000DF93CF93CDB7DEB7AFE4B0E0EFE4F0E00E
:100F300080818D7F8C93AFE4B0E0EFE4F0E08081BE
:100F40008E7F8C93AEE4B0E0EEE4F0E080818F7EA3
:100F50008C93AEE4B0E0EEE4F0E0808188608C93A6
:100F6000A9E5B0E0E9E5F0E0808180618C93AFE431
:100F7000B0E0EFE4F0E080818F778C93AFE4B0E0F5
:100F8000EFE4F0E080818F7B8C93AFE4B0E0EFE49E
:100F9000F0E080818F7D8C93AFE4B0E0EFE4F0E08F
:100FA00080818F7E8C93AEE4B0E0EEE4F0E080814F
:100FB0008B7F8C93AEE4B0E0EEE4F0E08081826061
:100FC0008C93AEE4B0E0EEE4F0E080818E7F8C9311
:100FD000CF91DF910895DF93CF9300D0CDB7DEB7E7
:100FE0009A838983EAE4F0E089819A8191838083FE
:100FF0000F900F90CF91DF910895DF93CF9300D0A2
:10100000CDB7DEB79A83898389819A8190936D00E9
:1010100080936C000F900F90CF91DF910895DF9334
:10102000CF930F92CDB7DEB78983ECE5F0E08981ED
:1010300080830F90CF91DF910895DF93CF9300D0FD
:101040000F92CDB7DEB79B838A8381E089838A8143
:101050009B81009739F08A819B81909367008093F0
:10106000660001C0198289810F900F900F90CF9177
:10107000DF910895DF93CF9300D00F92CDB7DEB705
:101080009B838A8381E089838A819B81009739F0E1
:101090008A819B81909369008093680001C01982C6
:1010A00089810F900F900F90CF91DF910895DF937A
:1010B000CF9300D00F92CDB7DEB79B838A8381E0B8
:1010C00089838A819B81009739F08A819B819093E3
:1010D0006B0080936A0001C0198289810F900F9084
:1010E0000F90CF91DF910895DF93CF93CDB7DEB707
:1010F000AEE4B0E0EEE4F0E0808180648C93A9E59A
:10110000B0E0E9E5F0E0808180628C93CF91DF91DF
:101110000895DF93CF93CDB7DEB7A9E5B0E0E9E559
:10112000F0E0808180628C93CF91DF910895DF930E
:10113000CF9300D00F92CDB7DEB79B838A831982FD
:101140008A819B810097A9F02091770030917800E7
:101150008091790090917A00820F931FCC01A0E0DA
:10116000B0E0EA81FB8180839183A283B38381E035
:10117000898389810F900F900F90CF91DF9108950F
:10118000EF92FF920F931F93DF93CF9300D00F92B4
:10119000CDB7DEB79B838A8319828A819B810097B2
:1011A00049F18091770090917800CC01A0E0B0E007
:1011B00024E630E040E050E0BC01CD010E94A50AE9
:1011C0007B018C012091770030917800809179002B
:1011D00090917A00820F931F9C0140E050E0C8017B
:1011E000B7010E94C40ADA01C901EA81FB81808348
:1011F00081E0898389810F900F900F90CF91DF91CB
:101200001F910F91FF90EF900895DF93CF9300D03F
:101210000F92CDB7DEB79B838A8319828A819B8127
:10122000009751F08091770090917800EA81FB81DE
:101230009183808381E0898389810F900F900F9043
:10124000CF91DF9108951F920F920FB60F92112444
:101250002F933F934F935F936F937F938F939F93BE
:10126000AF93BF93EF93FF93DF93CF93CDB7DEB7E9
:1012700080916E0090916F00019690936F00809323
:101280006E0080916E0090916F002FE08334920782
:1012900099F4E2E5F0E080EC808310926F00109208
:1012A0006E008091660090916700009729F0E091B0
:1012B0006600F09167000995CF91DF91FF91EF9162
:1012C000BF91AF919F918F917F916F915F914F915E
:1012D0003F912F910F900FBE0F901F9018951F9266
:1012E0000F920FB60F9211242F933F934F935F935A
:1012F0006F937F938F939F93AF93BF93EF93FF93DE
:10130000DF93CF93CDB7DEB78091700090917100DD
:10131000019690937100809370008091700090917D
:10132000710027E28031920779F4109271001092D7
:1013300070008091680090916900009729F0E09119
:101340006800F09169000995CF91DF91FF91EF91CD
:10135000BF91AF919F918F917F916F915F914F91CD
:101360003F912F910F900FBE0F901F9018951F92D5
:101370000F920FB60F9211242F933F938F939F9349
:10138000AF93BF93EF93FF93DF93CF9300D0CDB78D
:10139000DEB7E6E4F0E0808191819A8389838091D1
:1013A00074008823B9F42091720030917300898110
:1013B0009A81821B930B90937A0080937900AEE41C
:1013C000B0E0EEE4F0E080818F7B8C9381E080934D
:1013D000740015C0209172003091730089819A8148
:1013E000821B930B9093780080937700AEE4B0E07B
:1013F000EEE4F0E0808180648C9310927400898127
:101400009A8190937300809372000F900F90CF9108
:10141000DF91FF91EF91BF91AF919F918F913F919C
:101420002F910F900FBE0F901F9018951F920F9243
:101430000FB60F9211242F933F934F935F936F93A7
:101440007F938F939F93AF93BF93EF93FF93DF931C
:10145000CF93CDB7DEB7809175009091760001965D
:10146000909376008093750080916C0090916D0050
:101470000097D9F0209175003091760080916C0032
:1014800090916D0028173907D9F4109276001092C8
:10149000750080916A0090916B00009789F0E0914F
:1014A0006A00F0916B0009950BC080916A009091E1
:1014B0006B00009729F0E0916A00F0916B000995AC
:1014C000CF91DF91FF91EF91BF91AF919F918F915C
:1014D0007F916F915F914F913F912F910F900FBE30
:1014E0000F901F901895DF93CF93CDB7DEB70E9472
:1014F0003E000E941E0780E197E20E94EB0784E60F
:1015000090E00E94FD078AE89AE00E9457080E9436
:101510009007FFCFDF93CF93CDB7DEB780917B00ED
:10152000882349F481E060E041E00E948A0181E083
:1015300080937B0007C081E060E040E00E948A0168
:1015400010927B00CF91DF910895629FD001739F2D
:10155000F001829FE00DF11D649FE00DF11D929F4F
:10156000F00D839FF00D749FF00D659FF00D99278E
:10157000729FB00DE11DF91F639FB00DE11DF91FB2
:10158000BD01CF0111240895A1E21A2EAA1BBB1B95
:10159000FD010DC0AA1FBB1FEE1FFF1FA217B3073F
:1015A000E407F50720F0A21BB30BE40BF50B661F55
:1015B000771F881F991F1A9469F760957095809519
:1015C00090959B01AC01BD01CF010895F894FFCF28
:00000001FF
