:100000000C942A000C9434000C9434000C943400AA
:100010000C9434000C9434000C9434000C94340090
:100020000C9434000C9434000C9434000C94340080
:100030000C9434000C9434000C9434000C94340070
:100040000C9434000C9434000C9434000C94340060
:100050000C94340011241FBECFE5D8E0DEBFCDBF25
:100060000E9436000C9458000C940000DF93CF934C
:10007000CDB7DEB7EAE3F0E081E08083E7E3F0E0CC
:100080001082E8E3F0E080E88083E6E3F0E080813E
:1000900088232CF0EBE3F0E081E08083F6CFE6E309
:1000A000F0E0808188238CF7EBE3F0E01082EDCF65
:0400B000F894FFCFF2
:00000001FF
