:020000040800F2
:100000000050002021020008270200082B020008EF
:1000100043020008470200085F02000800000000D9
:10002000000000000000000000000000770200084F
:100030007B020008000000007F0200088302000825
:100040009102000891020008910200089102000844
:100050009102000891020008910200089102000834
:100060009102000891020008910200089102000824
:100070009102000891020008910200089102000814
:100080009102000891020008910200089102000804
:1000900091020008910200089102000891020008F4
:1000A00091020008910200089102000891020008E4
:1000B00091020008910200089102000891020008D4
:1000C00091020008910200089102000891020008C4
:1000D00091020008910200089102000891020008B4
:1000E000910200089102000891020008000000003F
:1000F0000000000000000000000000000000000000
:1001000000000000000000005FF808F100B583B0B7
:1001100000F0DEF8304B314A1360314A1360314B46
:10012000314A32498B4204D21168196004330432D7
:10013000F7E72A4B1A682E4B9A4200D0FEE7284B6D
:100140001A682C4B9A42F9D1234B2B4A13602B4A45
:1001500013602B4B02E000221A600433294A9342B9
:10016000F9D3254B1B6813B9244B1B6803B1FEE779
:1001700000F0BAF8694601A800F0A2F8224C234B1F
:10018000E41AA4100025AC4214DC214C214BE41AE3
:10019000A4100025AC4213DC0099019800F0ECFAA1
:1001A00005461D4C1D4BE41AA410002C0EDC2846FD
:1001B00000F084F8154B53F8253098470135E2E7F5
:1001C000144B53F8253098470135E3E7013C134BB6
:1001D00053F824309847E8E7BABADECA0000002096
:1001E0002000002000000020D40700082400002088
:1001F0007856341232547698240000202C000020C7
:100200002400002030000020BC020008BC020008CE
:10021000BC020008BC020008BC020008BC020008C6
:1002200008B5FFF773FF00BEFEE71EF0040F0CBF1A
:10023000EFF30880EFF309807146124A104700BEC1
:10024000FEE700BEFEE71EF0040F0CBFEFF30880D0
:10025000EFF3098071460C4A104700BEFEE71EF01E
:10026000040F0CBFEFF30880EFF309807146074AD3
:10027000104700BEFEE700BEFEE700BEFEE700BE80
:10028000FEE770473F0200085B02000873020008A7
:0402900000BEFEE7C7
:10029400D40700080000002024000020D407000830
:1002A40000000000000000002400002030000020B6
:0802B400000000000000000042
:1002BC00FEE7000001230360014B0B60704700BF99
:1002CC000400002008B500F073F8024A024B9A6053
:1002DC0008BD00BF0000000800ED00E008B500F00C
:1002EC008FF808BD82B00023019300932C4A136849
:1002FC0043F4803313602A4B1B6803F400330093E0
:10030C00019B01330193009B1BB9019BB3F5A06FBB
:10031C00F1D1234B1B6813F4003F06D0012300934B
:10032C00009B012B04D002B0704700230093F7E729
:10033C001C4B1A6842F010021A601A6822F0030271
:10034C001A601A6842F002021A60A3F580535A68C8
:10035C005A605A685A605A6842F480625A605A6805
:10036C0022F47C125A605A6842F4E8125A601A68F5
:10037C0042F080721A600A4B1B6813F0007FFAD0AF
:10038C00074B5A6822F003025A605A6842F0020284
:10039C005A60034B5B6803F00C03082BF9D1C2E7DE
:1003AC00001002400020024008B5FFF79BFF08BD7B
:1003BC0008B5104B1A6842F001021A6059680E4ACF
:1003CC000A405A601A6822F0847222F480321A6051
:1003DC001A6822F480221A605A6822F4FE025A60CB
:1003EC004FF41F029A60FFF7DFFF044B4FF00062DF
:1003FC009A6008BD001002400000FFF800ED00E01C
:10040C001F4B5B6803F00C03042B15D0082B17D083
:10041C001BB11C4B1C4A1A6002E01A4B1A4A1A6098
:10042C00174B5B68C3F30313184AD35CDAB2154954
:10043C000B68D3400B607047124B134A1A60EFE7FE
:10044C000F4A53685268C3F38343023312F4803F5C
:10045C000AD00B4A526812F4003F0BD00C4A02FB34
:10046C0003F3084A1360DBE7094A02FB03F3054A6E
:10047C001360D5E7044A02FB03F3024A1360CFE78B
:10048C00001002401C00002000127A000C0000201A
:10049C0000093D00022839D80F2937D8012817D078
:1004AC0010B1022827D07047012A0AD0002A2DD17A
:1004BC001A480368012202FA01F123EA01010160E2
:1004CC0070471648036802FA01F11943016070473E
:1004DC00012A09D0D2B912480368012202FA01F1AB
:1004EC0023EA0101016070470D48036802FA01F12B
:1004FC00194301607047012A09D03AB909480368C9
:10050C00012202FA01F123EA01010160704705485A
:10051C00036802FA01F11943016070470C080140AD
:10052C000C0C01400C10014002281AD80F291AD8C3
:10053C0001280AD018B102280DD0FF2070470B4BB0
:10054C001868C84000F001007047094B1868C84093
:10055C0000F001007047074B1868C84000F001001C
:10056C007047FF207047FF20704700BF080801400C
:10057C00080C014008100140022801D8012900D9BB
:10058C00704710B4012829D018B102284BD010BCE8
:10059C00704781B9364B18680020186008E0344C5D
:1005AC002368880002FA00F0034323600131C9B2CA
:1005BC000729F4D9EBE70129E9D12E4B1968002161
:1005CC00196008E02B4C2368810002FA01F10B43FF
:1005DC0023600130C0B20728F4D9D8E781B9264B83
:1005EC0018680020186008E0234C2368880002FA81
:1005FC0000F0034323600131C9B20729F4D9C6E7DF
:10060C000129C4D11D490B6800230B6008E01B4C69
:10061C002168980002FA00F0014321600133DBB23B
:10062C00072BF4D9B3E781B9154B18680020186073
:10063C0008E0134C2368880002FA00F0034323609F
:10064C000131C9B20729F4D9A1E701299FD10D497C
:10065C000B6800230B6008E00A4C2168980002FA32
:10066C0000F0014321600133DBB2072BF4D98EE794
:10067C000008014004080140000C0140040C01403A
:10068C00001001400410014008B50122FFF702FFE1
:10069C0008BD08B50022FFF7FDFE08BD38B50446BD
:1006AC000D46FFF741FF012801D028B138BD29467E
:1006BC002046FFF7EEFFF9E729462046FFF7E4FF57
:1006CC00F4E70000144B1A6842F001021A601A6831
:1006DC0022F002021A60043B1A6822F480221A608B
:1006EC001A6822F400221A601A6842F480321A60E6
:1006FC000A4B1B6813F4003FFAD0074B1A6822F020
:10070C0080021A601A6822F480621A601A6822F455
:10071C0000521A60704700BF0410024000100240E3
:10072C001F291CD801280BD010B1022810D07047FB
:10073C000B480368012202FA01F11943016070476A
:10074C0008480368012202FA01F11943016070475D
:10075C0005480368012202FA01F119430160704750
:10076C00141002401C1002401810024038B5FFF75C
:10077C00A9FF02210846FFF7D3FF012200210846FA
:10078C00FFF7FAFE012211460020FFF7F5FE0024C8
:10079C0011E000BF01339BB2B3F57A7FF9D301327C
:1007AC0092B2632A01D80023F6E729460020FFF70E
:1007BC0075FF0134A4B20A2CE9D8E5B22946002011
:0807CC00FFF76CFF0022ECE7CF
:1007D40078563412280000200000000000000000B9
:1007E40000000000010203040607080900A24A04ED
:0407F400325476986D
:040000050800010DE1
:00000001FF
