:100000000C942A000C9447000C9447000C94470071
:100010000C9447000C9447000C9447000C94470044
:100020000C9447000C9447000C9447000C94470034
:100030000C9447000C9447000C9447000C94470024
:100040000C9447000C9447000C9447000C94470014
:100050000C94470011241FBECFE5D8E0DEBFCDBF12
:1000600011E0A0E6B0E0E2E1FDE402C005900D92EF
:10007000A234B107D9F711E0A2E4B1E001C01D92AA
:10008000A534B107E1F70E945C1B0C9487260C9401
:100090000000EF92FF920F931F937B018C0120E0F1
:1000A00030E040E05FE40E94F50388238CF0C80153
:1000B000B70120E030E040E05FE40E94C1010E940F
:1000C00055049B01AC01205030404040504806C0D0
:1000D000C801B7010E9455049B01AC01B901CA01D6
:1000E0001F910F91FF90EF900895A0E0B0E0EBE733
:1000F000F0E00C945026DC012B01FA019C91923027
:1001000008F439C1EB018881823008F433C194309E
:1001100069F4843009F02FC111969C91119789815F
:10012000981709F428C1A1E2B1E025C1843009F48F
:1001300021C18230A9F4923009F01DC19A01AD01AC
:1001400088E0EA010990AE01E90109929E0181501F
:10015000C1F7E201898111969C918923818308C1AD
:10016000923009F407C112962D903C901397EB0141
:100170008A819B811496AD90BD90CD90DC901797AD
:10018000EC80FD800E811F819101281B390BB90184
:1001900037FF04C066277727621B730B6032710537
:1001A0000CF061C0121613066CF537014801062EDB
:1001B00004C096948794779467940A94D2F721E0C8
:1001C00030E040E050E004C0220F331F441F551FB1
:1001D0006A95D2F721503040404050402E213F21B7
:1001E00040235123211531054105510521F021E01E
:1001F00030E040E050E079018A01E628F72808293C
:1002000019293CC0232BD1F1260E371E350146019A
:10021000062E04C096948794779467940A94D2F734
:1002200021E030E040E050E004C0220F331F441FC3
:10023000551F6A95D2F721503040404050402A2146
:100240003B214C215D21211531054105510521F04E
:1002500021E030E040E050E059016A01A628B728CB
:10026000C828D9280BC0821593052CF01C01AA249C
:10027000BB24650103C0EE24FF24870111969C91E5
:10028000D20111968C91981709F445C0992339F041
:10029000A80197012A193B094C095D0906C0A6016E
:1002A00095012E193F09400B510B57FD08C01182D3
:1002B0003382228224833583468357831DC081E0A5
:1002C00081833382228288279927DC01821B930B4A
:1002D000A40BB50B84839583A683B7830DC0220F2F
:1002E000331F441F551F24833583468357838281E0
:1002F000938101979383828324813581468157813D
:10030000DA01C9010197A109B1098F5F9F4FAF4F72
:10031000BF4328F30BC0918333822282EA0CFB1C7B
:100320000C1D1D1DE482F5820683178383E0808304
:10033000248135814681578157FF1AC0C901AA27F8
:1003400097FDA095BA2F81709070A070B0705695EF
:10035000479537952795822B932BA42BB52B848318
:100360009583A683B7838281938101969383828349
:10037000DF0101C0D201CD01CDB7DEB7E2E10C94BF
:100380006C26A0E2B0E0E7ECF1E00C945C26698317
:100390007A838B839C832D833E834F835887E9E048
:1003A000EE2EF12CEC0EFD1ECE010196B7010E943F
:1003B0007E058E010F5E1F4FCE010596B8010E948B
:1003C0007E058A8991E089278A8BC701B801AE0131
:1003D000475E5F4F0E9475000E94A904A096E6E068
:1003E0000C947826A0E2B0E0E8EFF1E00C945C26F3
:1003F00069837A838B839C832D833E834F835887C5
:10040000F9E0EF2EF12CEC0EFD1ECE010196B701A6
:100410000E947E058E010F5E1F4FCE010596B8012A
:100420000E947E05C701B801AE01475E5F4F0E9482
:1004300075000E94A904A096E6E00C947826A0E23C
:10044000B0E0E5E2F2E00C94502669837A838B8376
:100450009C832D833E834F835887CE010196BE0136
:10046000675F7F4F0E947E05CE010596BE016F5EDD
:100470007F4F0E947E059985923088F0898982306D
:10048000C8F0943019F4823051F404C0843029F457
:10049000923081F481E291E0C6C0923049F420E0CC
:1004A0009A858A89981321E02A87CE010996BBC0D4
:1004B000823049F420E09A858A89981321E02A8BBA
:1004C000CE014196B0C02D843E844F8458886D88FB
:1004D0007E888F88988CEE24FF248701AA24BB2471
:1004E000650140E050E060E070E0E0E0F0E0C10174
:1004F00081709070892BE9F0E60CF71C081D191D1E
:100500009A01AB012A0D3B1D4C1D5D1D80E090E062
:10051000A0E0B0E0E614F7040805190520F481E036
:1005200090E0A0E0B0E0BA01A901480F591F6A1F8E
:100530007B1FAA0CBB1CCC1CDD1C97FE08C081E0F5
:1005400090E0A0E0B0E0A82AB92ACA2ADB2A3196B6
:10055000E032F10549F0660C771C881C991C569412
:10056000479437942794C3CFFA85EA892B893C892D
:100570008B859C85280F391F2E5F3F4F17C0CA01FE
:1005800081709070892B61F016950795F794E79428
:1005900080E090E0A0E0B0E8E82AF92A0A2B1B2BC3
:1005A00076956795579547952F5F3F4F77FDE7CF36
:1005B0000CC0440F551F661F771F17FD4160EE0CDE
:1005C000FF1C001F111F21503040403090E05907A0
:1005D00090E0690790E4790760F32B8F3C8FDB0193
:1005E000CA018F779070A070B07080349105A1051A
:1005F000B10561F447FD0AC0E114F10401051105DC
:1006000029F0405C5F4F6F4F7F4F40781A8EFE1786
:1006100011F081E08A8F4D8F5E8F6F8F78A383E01A
:10062000898FCE0149960E94A904A096E2E10C941C
:100630006C26A8E1B0E0EFE1F3E00C945826698362
:100640007A838B839C832D833E834F835887B9E0C5
:10065000EB2EF12CEC0EFD1ECE010196B7010E948F
:100660007E058E010F5E1F4FCE010596B8010E94D8
:100670007E052985223008F47EC03989323010F495
:10068000B8017CC08A859A8989278A87243011F02D
:10069000223031F4231709F06EC061E271E06EC0C0
:1006A000343039F41D861E861F86188A1C861B86E8
:1006B00004C0323021F484E08987B7015FC02B8504
:1006C0003C858B899C89281B390B3C872B87ED84C3
:1006D000FE840F851889AD88BE88CF88D88CEA142F
:1006E000FB040C051D0540F4EE0CFF1C001F111F40
:1006F000215030403C872B8720E030E040E050E044
:1007000080E090E0A0E0B0E460E070E0EA14FB0478
:100710000C051D0540F0282B392B4A2B5B2BEA18C2
:10072000FB080C091D09B695A79597958795EE0CC2
:10073000FF1C001F111F6F5F7F4F6F31710531F775
:10074000DA01C9018F779070A070B0708034910584
:10075000A105B10561F427FD0AC0E114F10401050A
:10076000110529F0205C3F4F4F4F5F4F20782D87B8
:100770003E874F87588BBE01675F7F4FCB010E943A
:10078000A9046896EAE00C947426A8E1B0E0EBECCA
:10079000F3E00C945C2669837A838B839C832D839E
:1007A0003E834F83588789E0E82EF12CEC0EFD1E26
:1007B000CE010196B7010E947E058E010F5E1F4F8C
:1007C000CE010596B8010E947E058985823040F0F1
:1007D0008989823028F0C701B8010E94F60501C05E
:1007E0008FEF6896E6E00C947826A8E1B0E0EBEF96
:1007F000F3E00C945C2669837A838B839C832D833E
:100800003E834F83588789E0E82EF12CEC0EFD1EC5
:10081000CE010196B7010E947E058E010F5E1F4F2B
:10082000CE010596B8010E947E058985823040F090
:100830008989823028F0C701B8010E94F60501C0FD
:100840008FEF6896E6E00C947826A8E1B0E0EBE242
:10085000F4E00C945C2669837A838B839C832D83DC
:100860003E834F83588789E0E82EF12CEC0EFD1E65
:10087000CE010196B7010E947E058E010F5E1F4FCB
:10088000CE010596B8010E947E058985823040F030
:100890008989823028F0C701B8010E94F60501C09D
:1008A00081E06896E6E00C947826ACE0B0E0EBE5F9
:1008B000F4E00C94602669837A838B839C83CE0159
:1008C0000196BE016B5F7F4F0E947E058D81823055
:1008D00061F1823050F1843021F48E81882351F10E
:1008E0002EC02F81388537FD20C06E812F31310514
:1008F0001CF06623F9F023C08EE190E0821B930B7D
:1009000029853A854B855C8504C056954795379572
:1009100027958A95D2F76623B1F05095409530958A
:1009200021953F4F4F4F5F4F0EC020E030E040E039
:1009300050E009C02FEF3FEF4FEF5FE704C020E02A
:1009400030E040E050E8B901CA012C96E2E00C9496
:100950007C26DF92EF92FF920F931F93FC01E480BD
:10096000F58006811781D1808081823048F480E053
:1009700090E0A0E1B0E0E82AF92A0A2B1B2BA5C0E1
:10098000843009F49FC0823021F4EE24FF248701D3
:1009900005C0E114F1040105110519F4E0E0F0E0EF
:1009A00096C0628173819FEF623879070CF05BC05B
:1009B00022E83FEF261B370B2A3131052CF020E0CF
:1009C00030E040E050E02AC0B801A701022E04C088
:1009D00076956795579547950A94D2F781E090E010
:1009E000A0E0B0E004C0880F991FAA1FBB1F2A9582
:1009F000D2F70197A109B1098E219F21A023B1232C
:100A00000097A105B10521F081E090E0A0E0B0E001
:100A10009A01AB01282B392B4A2B5B2BDA01C90138
:100A20008F779070A070B07080349105A105B105EA
:100A300039F427FF09C0205C3F4F4F4F5F4F04C080
:100A4000215C3F4F4F4F5F4FE0E0F0E02030A0E0EF
:100A50003A07A0E04A07A0E45A0710F0E1E0F0E00E
:100A600079018A0127C06038710564F5FB01E158FE
:100A7000FF4FD801C7018F779070A070B07080349D
:100A80009105A105B10539F4E7FE0DC080E490E0C1
:100A9000A0E0B0E004C08FE390E0A0E0B0E0E80E9A
:100AA000F91E0A1F1B1F17FF05C016950795F7941F
:100AB000E794319687E016950795F794E7948A9521
:100AC000D1F705C0EE24FF248701EFEFF0E06E2F91
:100AD000679566276795902F9F77D794DD24D794E5
:100AE0008E2F8695492F462B582F5D29B701CA01B5
:100AF0001F910F91FF90EF90DF900895FC01DB01B3
:100B0000408151812281622F6F7770E0221F22275E
:100B1000221F9381892F880F822B282F30E0991F65
:100B20009927991F11969C93119721153105A9F5C5
:100B3000411551056105710511F482E037C082E865
:100B40009FEF13969C938E9312979A01AB0167E0E7
:100B5000220F331F441F551F6A95D1F783E08C93F2
:100B60000DC0220F331F441F551F12968D919C916B
:100B70001397019713969C938E931297203080E0E1
:100B8000380780E0480780E4580758F314962D93FF
:100B90003D934D935C93179708952F3F310579F45A
:100BA000411551056105710519F484E08C93089590
:100BB00064FF03C081E08C9312C01C9210C02F57B9
:100BC000304013963C932E93129783E08C9387E0EA
:100BD000440F551F661F771F8A95D1F770641496CE
:100BE0004D935D936D937C93179708951F93DC014C
:100BF000FB019C91923008F447C08081823008F458
:100C000043C0943051F411961C91843099F5818140
:100C1000682F70E0611B71093FC0843021F0923071
:100C200031F48230B9F18181882389F12DC0119688
:100C30001C9111978230F1F081811817D9F4129626
:100C40002D913C911397828193818217930794F0A1
:100C500028173907BCF014968D919D910D90BC9189
:100C6000A02D2481358146815781281739074A07ED
:100C70005B0718F4112341F00AC082179307A407F9
:100C8000B50740F4112319F061E070E005C06FEF83
:100C90007FEF02C060E070E0CB011F910895DF9309
:100CA000CF930F92CDB7DEB7EAE3F0E083E0808325
:100CB000E7E3F0E08FE08083E4E3F0E08FE7808318
:100CC000E1E3F0E08FEF8083EBE3F0E01082E8E314
:100CD000F0E08FEF8083E5E3F0E01082E2E3F0E004
:100CE00010820F90CF91DF910895DF93CF93CDB70E
:100CF000DEB72E970FB6F894DEBF0FBECDBF8A8346
:100D00006B834C8381E089838A81843008F00CC135
:100D10008B81883008F008C18C81882321F08C8178
:100D2000813009F001C18A81282F30E03E872D876C
:100D30008D859E858130910509F44FC02D853E85B6
:100D4000223031052CF48D859E85009771F0EDC021
:100D50002D853E852230310509F477C08D859E852D
:100D60008330910509F4A9C0E0C08C81282F30E0C0
:100D70003C872B878B859C850097D1F02B853C8504
:100D80002130310509F0D1C0AAE3B0E0EAE3F0E098
:100D90008081482F8B81282F30E081E090E0022E67
:100DA00002C0880F991F0A94E2F7842B8C93BDC070
:100DB000AAE3B0E0EAE3F0E08081482F8B81282F9E
:100DC00030E081E090E0022E02C0880F991F0A9463
:100DD000E2F7809584238C93A8C08C81282F30E083
:100DE0003A87298789859A850097D1F029853A85A0
:100DF0002130310509F099C0A7E3B0E0E7E3F0E066
:100E00008081482F8B81282F30E081E090E0022EF6
:100E100002C0880F991F0A94E2F7842B8C9385C037
:100E2000A7E3B0E0E7E3F0E08081482F8B81282F33
:100E300030E081E090E0022E02C0880F991F0A94F2
:100E4000E2F7809584238C9370C08C81282F30E04A
:100E500038872F838F8198850097D1F02F8138852F
:100E60002130310509F061C0A4E3B0E0E4E3F0E033
:100E70008081482F8B81282F30E081E090E0022E86
:100E800002C0880F991F0A94E2F7842B8C934DC0FF
:100E9000A4E3B0E0E4E3F0E08081482F8B81282FC9
:100EA00030E081E090E0022E02C0880F991F0A9482
:100EB000E2F7809584238C9338C08C81282F30E012
:100EC0003E832D838D819E810097C9F02D813E81C7
:100ED0002130310551F5A1E3B0E0E1E3F0E080819C
:100EE000482F8B81282F30E081E090E0022E02C055
:100EF000880F991F0A94E2F7842B8C9316C0A1E304
:100F0000B0E0E1E3F0E08081482F8B81282F30E0D2
:100F100081E090E0022E02C0880F991F0A94E2F748
:100F2000809584238C9301C0198289812E960FB6F7
:100F3000F894DEBF0FBECDBFCF91DF910895DF9350
:100F4000CF93CDB7DEB72E970FB6F894DEBF0FBEA6
:100F5000CDBF8A836B834C8381E089838A8184300F
:100F600008F00CC18B81883008F008C18C81813079
:100F700021F08C81882309F001C18A81282F30E07B
:100F80003E872D878D859E858130910509F44FC060
:100F90002D853E85223031052CF48D859E85009768
:100FA00071F0EDC02D853E852230310509F477C002
:100FB0008D859E858330910509F4A9C0E0C08C81A0
:100FC000282F30E03C872B878B859C850097D1F0BC
:100FD0002B853C852130310509F0D1C0ABE3B0E071
:100FE000EBE3F0E08081482F8B81282F30E081E017
:100FF00090E0022E02C0880F991F0A94E2F7842B1A
:101000008C93BDC0ABE3B0E0EBE3F0E08081482F10
:101010008B81282F30E081E090E0022E02C0880F03
:10102000991F0A94E2F7809584238C93A8C08C8141
:10103000282F30E03A87298789859A850097D1F053
:1010400029853A852130310509F099C0A8E3B0E03F
:10105000E8E3F0E08081482F8B81282F30E081E0A9
:1010600090E0022E02C0880F991F0A94E2F7842BA9
:101070008C9385C0A8E3B0E0E8E3F0E08081482FDE
:101080008B81282F30E081E090E0022E02C0880F93
:10109000991F0A94E2F7809584238C9370C08C8109
:1010A000282F30E038872F838F8198850097D1F0E3
:1010B0002F8138852130310509F061C0A5E3B0E00A
:1010C000E5E3F0E08081482F8B81282F30E081E03C
:1010D00090E0022E02C0880F991F0A94E2F7842B39
:1010E0008C934DC0A5E3B0E0E5E3F0E08081482FAC
:1010F0008B81282F30E081E090E0022E02C0880F23
:10110000991F0A94E2F7809584238C9338C08C81D0
:10111000282F30E03E832D838D819E810097C9F07A
:101120002D813E812130310551F5A2E3B0E0E2E3AB
:10113000F0E08081482F8B81282F30E081E090E023
:10114000022E02C0880F991F0A94E2F7842B8C9319
:1011500016C0A2E3B0E0E2E3F0E08081482F8B818B
:10116000282F30E081E090E0022E02C0880F991F06
:101170000A94E2F7809584238C9301C019828981B7
:101180002E960FB6F894DEBF0FBECDBFCF91DF9184
:101190000895DF93CF93CDB7DEB727970FB6F894B6
:1011A000DEBF0FBECDBF8A836B835D834C8381E03E
:1011B00089838A81843008F0EAC08B81883008F006
:1011C000E6C08C819D81009709F4E1C08A81282FB7
:1011D00030E03F832E834E815F814130510509F419
:1011E00048C08E819F818230910534F42E813F81E9
:1011F0002115310571F0CCC04E815F81423051051F
:1012000009F467C08E819F818330910509F490C0F5
:10121000BFC0E9E3F0E08081282F30E08B81882F88
:1012200090E0A90102C0559547958A95E2F7CA0159
:1012300081709070009721F4EC81FD811082A8C02C
:10124000E9E3F0E08081282F30E08B81882F90E067
:10125000A90102C0559547958A95E2F7CA018170A8
:101260009070882309F494C0EC81FD8181E0808333
:101270008FC0E6E3F0E08081282F30E08B81882F5B
:1012800090E0A90102C0559547958A95E2F7CA01F9
:1012900081709070009721F4EC81FD81108278C0FC
:1012A000E6E3F0E08081282F30E08B81882F90E00A
:1012B000A90102C0559547958A95E2F7CA01817048
:1012C0009070882309F464C0EC81FD8181E0808303
:1012D0005FC0E3E3F0E08081282F30E08B81882F2E
:1012E00090E0A90102C0559547958A95E2F7CA0199
:1012F00081709070009721F4EC81FD81108248C0CC
:10130000E3E3F0E08081282F30E08B81882F90E0AC
:10131000A90102C0559547958A95E2F7CA018170E7
:1013200090708823A9F1EC81FD8181E0808330C039
:10133000E0E3F0E08081282F30E08B81882F90E07F
:10134000A90102C0559547958A95E2F7CA018170B7
:101350009070009721F4EC81FD81108219C0E0E3C8
:10136000F0E08081282F30E08B81882F90E0A90168
:1013700002C0559547958A95E2F7CA018170907031
:10138000882331F0EC81FD8181E0808301C01982E6
:10139000898127960FB6F894DEBF0FBECDBFCF91DF
:1013A000DF910895DF93CF93CDB7DEB72D970FB6BA
:1013B000F894DEBF0FBECDBF8A836B8381E0898343
:1013C0008A81843008F087C08B81813021F08B8145
:1013D000882309F080C08A81282F30E03D872C8740
:1013E0008C859D858130910571F12C853D8522305C
:1013F00031052CF48C859D85009769F06DC02C8596
:101400003D8522303105B9F18C859D85833091056C
:1014100009F449C061C08B81282F30E03B872A87BF
:101420008A859B85009731F02A853B8521303105DF
:1014300029F052C0EAE3F0E010824EC0EAE3F0E0A7
:101440008FEF808349C08B81282F30E03987288730
:1014500088859985009731F02885398521303105B7
:1014600029F03AC0E7E3F0E0108236C0E7E3F0E0AD
:101470008FEF808331C08B81282F30E03F832E8314
:101480008E819F81009731F02E813F81213031057F
:1014900029F022C0E4E3F0E010821EC0E4E3F0E0B3
:1014A0008FEF808319C08B81282F30E03D832C8300
:1014B0008C819D81009731F02C813D812130310557
:1014C00029F00AC0E1E3F0E0108206C0E1E3F0E0B9
:1014D0008FEF808301C0198289812D960FB6F89411
:1014E000DEBF0FBECDBFCF91DF910895DF93CF93C5
:1014F00000D000D00F92CDB7DEB78A836B8381E036
:1015000089838A81282F30E03D832C838C819D81C3
:1015100081309105D1F02C813D81223031052CF4B0
:101520008C819D81009761F01FC02C813D8122300C
:10153000310581F08C819D818330910581F014C04B
:10154000EBE3F0E08B81808310C0E8E3F0E08B8177
:1015500080830BC0E5E3F0E08B81808306C0E2E38B
:10156000F0E08B81808301C0198289810F900F90F8
:101570000F900F900F90CF91DF910895DF93CF934D
:1015800000D000D000D0CDB7DEB78A837C836B83D8
:1015900081E089838B819C810097E9F18A81282FE2
:1015A00030E03E832D838D819E8181309105E1F075
:1015B0002D813E81223031052CF48D819E81009752
:1015C00061F027C02D813E8122303105A1F08D814F
:1015D0009E8183309105B1F01CC0E9E3F0E0808189
:1015E000EB81FC81808318C0E6E3F0E08081EB8131
:1015F000FC81808311C0E3E3F0E08081EB81FC811A
:1016000080830AC0E0E3F0E08081EB81FC8180838D
:1016100003C0198201C01982898126960FB6F894F9
:10162000DEBF0FBECDBFCF91DF910895DF93CF9383
:10163000CDB7DEB7A3970FB6F894DEBF0FBECDBF10
:101640009BA38AA381E088A31D8E8AA19BA10097FA
:1016500009F453C1EAA1FBA18FEF80831F8E48C11B
:101660008F8D882F90E0FC01E75CFE4F908181E038
:10167000692F40E00E949F071E8E24C18E8D882F07
:1016800090E0FC01E35CFE4F90819E012F5D3F4F97
:1016900081E0692FA9010E94C90889A1882309F066
:1016A0000EC180E090E0A0EAB1E4898F9A8FAB8F01
:1016B000BC8F698D7A8D8B8D9C8D20E030E04AEF58
:1016C00054E40E941F02DC01CB018D8B9E8BAF8BFB
:1016D000B88F6D897E898F89988D20E030E040E851
:1016E0005FE30E94250488232CF481E090E09C8B2A
:1016F0008B8B3FC06D897E898F89988D20E03FEF6D
:101700004FE757E40E94C50318164CF5698D7A8D92
:101710008B8D9C8D20E030E040E251E40E941F025E
:10172000DC01CB01BC01CD010E944900DC01CB01F1
:101730009C8B8B8B0FC088EC90E09A8B898B89896E
:101740009A890197F1F79A8B898B8B899C890197EC
:101750009C8B8B8B8B899C89009769F724C06D8942
:101760007E898F89988D0E944900DC01CB019C8B7A
:101770008B8B8B899C89988B8F878F859889019714
:10178000F1F7988B8F870FC08E8D882F90E0FC012A
:10179000E35CFE4F90819E012F5D3F4F81E0692FFA
:1017A000A9010E94C90889A1882371F380E090E013
:1017B000A0E2B1E48B879C87AD87BE876B857C8573
:1017C0008D859E8520E030E04AEF54E40E941F02A0
:1017D000DC01CB018F839887A987BA876F817885D1
:1017E00089859A8520E030E040E85FE30E94250487
:1017F00088232CF481E090E09E838D833FC06F812D
:10180000788589859A8520E03FEF4FE757E40E946D
:10181000C50318164CF56B857C858D859E8520E06B
:1018200030E040E251E40E941F02DC01CB01BC0128
:10183000CD010E944900DC01CB019E838D830FC046
:1018400088EC90E09C838B838B819C810197F1F7DE
:101850009C838B838D819E8101979E838D838D8157
:101860009E81009769F714C06F81788589859A8574
:101870000E944900DC01CB019E838D838D819E8176
:101880009A83898389819A810197F1F79A83898361
:101890008F8D482F50E08E8D282F30E0CA01880FA1
:1018A000991F880F991F820F931FFC01E75DFE4F60
:1018B0008081EAA1FBA1808381E08D8F07C08E8D9E
:1018C0008F5F8E8F8E8D843008F4D8CE8F8D882FC9
:1018D00090E0FC01E75CFE4F908181E0692F41E0E0
:1018E0000E949F078D8D813049F08F8D8F5F8F8F84
:1018F0008F8D843008F4B4CE01C018A288A1A396BD
:101900000FB6F894DEBF0FBECDBFCF91DF91089523
:101910000F931F93DF93CF93CDB7DEB7CC54D04056
:101920000FB6F894DEBF0FBECDBFFE01E75BFF4FE1
:1019300080E090E0ACE0B2E480839183A283B38343
:101940008E010B5B1F4FFE01E75BFF4F60817181D2
:101950008281938120E030E04AEF54E40E941F022C
:10196000DC01CB01F80180839183A283B383FE0164
:10197000EB5BFF4F608171818281938120E030E0D9
:1019800040E85FE30E942504882344F4FE01ED5BF8
:10199000FF4F81E090E09183808364C0FE01EB5BA8
:1019A000FF4F608171818281938120E03FEF4FE79B
:1019B00057E40E94C50318160CF043C0FE01E75B14
:1019C000FF4F608171818281938120E030E040E2AD
:1019D00051E40E941F02DC01CB018E010D5B1F4F01
:1019E000BC01CD010E944900DC01CB01F8019183CB
:1019F00080831FC0FE01EF5BFF4F88EC90E0918376
:101A00008083FE01EF5BFF4F808191810197F1F7A9
:101A1000FE01EF5BFF4F91838083DE01AD5BBF4F23
:101A2000FE01ED5BFF4F80819181019711969C93A0
:101A30008E93FE01ED5BFF4F808191810097D1F67F
:101A400024C08E010D5B1F4FFE01EB5BFF4F6081D9
:101A50007181828193810E944900DC01CB01F801F0
:101A600091838083FE01ED5BFF4F80819181FE01B8
:101A7000FF9691838083FE01FF968081918101977B
:101A8000F1F7FE01FF969183808388E30E945B104B
:101A900080E090E0A0E2B2E48BAF9CAFADAFBEAF10
:101AA0006BAD7CAD8DAD9EAD2BEA3AEA4AE250E4D7
:101AB0000E941F02DC01CB018FAB98AFA9AFBAAF78
:101AC0006FA978AD89AD9AAD20E030E040E85FE3E2
:101AD0000E94250488231CF481E08EAB91C06FA97D
:101AE00078AD89AD9AAD20E030E04FE753E40E9435
:101AF000C50318160CF07BC06BAD7CAD8DAD9EADF3
:101B000020E030E04AE754E40E941903DC01CB01F5
:101B10008AAB9BABACABBDAB6AA97BA98CA99DA9D9
:101B200020E030E04AEF54E40E941F02DC01CB01C8
:101B30008EA79FA7A8ABB9AB6EA57FA588A999A9C9
:101B400020E030E040E85FE30E94250488232CF485
:101B500081E090E09DA78CA73FC06EA57FA588A9D6
:101B600099A920E03FEF4FE757E40E94C5031816FC
:101B70004CF56AA97BA98CA99DA920E030E040E240
:101B800051E40E941F02DC01CB01BC01CD010E9487
:101B90004900DC01CB019DA78CA70FC088EC90E029
:101BA0009BA78AA78AA59BA50197F1F79BA78AA760
:101BB0008CA59DA501979DA78CA78CA59DA5009799
:101BC00069F724C06EA57FA588A999A90E9449003C
:101BD000DC01CB019DA78CA78CA59DA599A788A703
:101BE00088A599A50197F1F799A788A70FC06FA9B4
:101BF00078AD89AD9AAD0E944900DC01CB018EAB76
:101C00008EA98FA38FA18A95F1F78FA38FE00E94F1
:101C10005B1080E090E0A0E2B2E48BA39CA3ADA3B4
:101C2000BEA36BA17CA18DA19EA12BEA3AEA4AE258
:101C300050E40E941F02DC01CB018F8F98A3A9A35F
:101C4000BAA36F8D78A189A19AA120E030E040E885
:101C50005FE30E94250488231CF481E08E8F91C0ED
:101C60006F8D78A189A19AA120E030E04FE753E47D
:101C70000E94C50318160CF07BC06BA17CA18DA13E
:101C80009EA120E030E04AE754E40E941903DC0101
:101C9000CB018A8F9B8FAC8FBD8F6A8D7B8D8C8D96
:101CA0009D8D20E030E04AEF54E40E941F02DC01E9
:101CB000CB018E8B9F8BA88FB98F6E897F89888D82
:101CC000998D20E030E040E85FE30E9425048823FE
:101CD0002CF481E090E09D8B8C8B3FC06E897F89D6
:101CE000888D998D20E03FEF4FE757E40E94C503B0
:101CF00018164CF56A8D7B8D8C8D9D8D20E030E023
:101D000040E251E40E941F02DC01CB01BC01CD0185
:101D10000E944900DC01CB019D8B8C8B0FC088ECAD
:101D200090E09B8B8A8B8A899B890197F1F79B8B2B
:101D30008A8B8C899D8901979D8B8C8B8C899D8941
:101D4000009769F724C06E897F89888D998D0E94DC
:101D50004900DC01CB019D8B8C8B8C899D89998BF3
:101D6000888B888999890197F1F7998B888B0FC0A7
:101D70006F8D78A189A19AA10E944900DC01CB0155
:101D80008E8F8E8D8F878F858A95F1F78F8781E073
:101D90000E945B1080E090E0A0E0B0E48B879C871D
:101DA000AD87BE876B857C858D859E8520E030E084
:101DB0004AEF54E40E941F02DC01CB018F83988715
:101DC000A987BA876F81788589859A8520E030E078
:101DD00040E85FE30E94250488232CF481E090E032
:101DE0009E838D833FC06F81788589859A8520E0A9
:101DF0003FEF4FE757E40E94C50318164CF56B857B
:101E00007C858D859E8520E030E040E251E40E9493
:101E10001F02DC01CB01BC01CD010E944900DC01A5
:101E2000CB019E838D830FC088EC90E09C838B83D5
:101E30008B819C810197F1F79C838B838D819E819F
:101E400001979E838D838D819E81009769F714C0D1
:101E50006F81788589859A850E944900DC01CB01D4
:101E60009E838D838D819E819A83898389819A81C6
:101E70000197F1F79A83898386E00E945B10C45B27
:101E8000DF4F0FB6F894DEBF0FBECDBFCF91DF910D
:101E90001F910F910895DF93CF93CDB7DEB72E97A3
:101EA0000FB6F894DEBF0FBECDBF81E00E945B107D
:101EB00080E090E0A0EAB1E48B879C87AD87BE8785
:101EC0006B857C858D859E8520E030E04AEF54E46B
:101ED0000E941F02DC01CB018F839887A987BA87F4
:101EE0006F81788589859A8520E030E040E85FE35E
:101EF0000E94250488232CF481E090E09E838D834A
:101F00003FC06F81788589859A8520E03FEF4FE754
:101F100057E40E94C50318164CF56B857C858D85AA
:101F20009E8520E030E040E251E40E941F02DC0187
:101F3000CB01BC01CD010E944900DC01CB019E8395
:101F40008D830FC088EC90E09C838B838B819C8178
:101F50000197F1F79C838B838D819E8101979E83EE
:101F60008D838D819E81009769F714C06F8178857C
:101F700089859A850E944900DC01CB019E838D836F
:101F80008D819E819A83898389819A810197F1F756
:101F90009A8389832E960FB6F894DEBF0FBECDBF0D
:101FA000CF91DF910895DF93CF93CDB7DEB72E9712
:101FB0000FB6F894DEBF0FBECDBF8CE00E945B1061
:101FC00080E090E0A0EAB1E48B879C87AD87BE8774
:101FD0006B857C858D859E8520E030E04AEF54E45A
:101FE0000E941F02DC01CB018F839887A987BA87E3
:101FF0006F81788589859A8520E030E040E85FE34D
:102000000E94250488232CF481E090E09E838D8338
:102010003FC06F81788589859A8520E03FEF4FE743
:1020200057E40E94C50318164CF56B857C858D8599
:102030009E8520E030E040E251E40E941F02DC0176
:10204000CB01BC01CD010E944900DC01CB019E8384
:102050008D830FC088EC90E09C838B838B819C8167
:102060000197F1F79C838B838D819E8101979E83DD
:102070008D838D819E81009769F714C06F8178856B
:1020800089859A850E944900DC01CB019E838D835E
:102090008D819E819A83898389819A810197F1F745
:1020A0009A8389832E960FB6F894DEBF0FBECDBFFC
:1020B000CF91DF910895DF93CF93CDB7DEB7E1974E
:1020C0000FB6F894DEBF0FBECDBF89AB82E060E0F3
:1020D00040E00E949F0782E061E040E00E949F078D
:1020E00083E069A90E94760A82E062E041E00E94F2
:1020F0009F0780E090E0A0E8BFE38DA79EA7AFA771
:10210000B8AB6DA57EA58FA598A92BEA3AEA4AE25D
:1021100050E40E941F02DC01CB0189A79AA7ABA75C
:10212000BCA769A57AA58BA59CA520E030E040E876
:102130005FE30E94250488231CF481E088A791C0F6
:1021400069A57AA58BA59CA520E030E04FE753E474
:102150000E94C50318160CF07BC06DA57EA58FA547
:1021600098A920E030E04AE754E40E941903DC011A
:10217000CB018CA39DA3AEA3BFA36CA17DA18EA117
:102180009FA120E030E04AEF54E40E941F02DC01EE
:10219000CB0188A399A3AAA3BBA368A179A18AA113
:1021A0009BA120E030E040E85FE30E942504882303
:1021B0002CF481E090E09F8F8E8F3FC068A179A1C1
:1021C0008AA19BA120E03FEF4FE757E40E94C5039F
:1021D00018164CF56CA17DA18EA19FA120E030E0E6
:1021E00040E251E40E941F02DC01CB01BC01CD01A1
:1021F0000E944900DC01CB019F8F8E8F0FC088ECBD
:1022000090E09D8F8C8F8C8D9D8D0197F1F79D8F28
:102210008C8F8E8D9F8D01979F8F8E8F8E8D9F8D32
:10222000009769F724C068A179A18AA19BA10E94A7
:102230004900DC01CB019F8F8E8F8E8D9F8D9B8FF0
:102240008A8F8A8D9B8D0197F1F79B8F8A8F0FC0A4
:1022500069A57AA58BA59CA50E944900DC01CB014C
:1022600088A788A5898F898D8A95F1F7898F82E063
:1022700062E040E00E949F0780E090E0A0E8BFE3BA
:102280008D8B9E8BAF8BB88F6D897E898F89988D52
:102290002BEA3AEA4AE250E40E941F02DC01CB0139
:1022A000898B9A8BAB8BBC8B69897A898B899C894A
:1022B00020E030E040E85FE30E94250488231CF41E
:1022C00081E0888B91C069897A898B899C8920E01B
:1022D00030E04FE753E40E94C50318160CF07BC0B2
:1022E0006D897E898F89988D20E030E04AE754E43B
:1022F0000E941903DC01CB018C879D87AE87BF87C5
:102300006C857D858E859F8520E030E04AEF54E422
:102310000E941F02DC01CB0188879987AA87BB87AF
:10232000688579858A859B8520E030E040E85FE319
:102330000E94250488232CF481E090E09F838E8303
:102340003FC0688579858A859B8520E03FEF4FE710
:1023500057E40E94C50318164CF56C857D858E8563
:102360009F8520E030E040E251E40E941F02DC0142
:10237000CB01BC01CD010E944900DC01CB019F8350
:102380008E830FC088EC90E09D838C838C819D812F
:102390000197F1F79D838C838E819F8101979F83A5
:1023A0008E838E819F81009769F724C06885798527
:1023B0008A859B850E944900DC01CB019F838E8327
:1023C0008E819F819B838A838A819B810197F1F70C
:1023D0009B838A830FC069897A898B899C890E9433
:1023E0004900DC01CB01888B8889898389818A95A2
:1023F000F1F78983E1960FB6F894DEBF0FBECDBF2B
:10240000CF91DF910895DF93CF93CDB7DEB7E197FA
:102410000FB6F894DEBF0FBECDBF89AB82E060E09F
:1024200041E00E949F0782E061E040E00E949F0738
:1024300083E069A90E94760A82E062E041E00E949E
:102440009F0780E090E0A0E8BFE38DA79EA7AFA71D
:10245000B8AB6DA57EA58FA598A92BEA3AEA4AE20A
:1024600050E40E941F02DC01CB0189A79AA7ABA709
:10247000BCA769A57AA58BA59CA520E030E040E823
:102480005FE30E94250488231CF481E088A791C0A3
:1024900069A57AA58BA59CA520E030E04FE753E421
:1024A0000E94C50318160CF07BC06DA57EA58FA5F4
:1024B00098A920E030E04AE754E40E941903DC01C7
:1024C000CB018CA39DA3AEA3BFA36CA17DA18EA1C4
:1024D0009FA120E030E04AEF54E40E941F02DC019B
:1024E000CB0188A399A3AAA3BBA368A179A18AA1C0
:1024F0009BA120E030E040E85FE30E9425048823B0
:102500002CF481E090E09F8F8E8F3FC068A179A16D
:102510008AA19BA120E03FEF4FE757E40E94C5034B
:1025200018164CF56CA17DA18EA19FA120E030E092
:1025300040E251E40E941F02DC01CB01BC01CD014D
:102540000E944900DC01CB019F8F8E8F0FC088EC69
:1025500090E09D8F8C8F8C8D9D8D0197F1F79D8FD5
:102560008C8F8E8D9F8D01979F8F8E8F8E8D9F8DDF
:10257000009769F724C068A179A18AA19BA10E9454
:102580004900DC01CB019F8F8E8F8E8D9F8D9B8F9D
:102590008A8F8A8D9B8D0197F1F79B8F8A8F0FC051
:1025A00069A57AA58BA59CA50E944900DC01CB01F9
:1025B00088A788A5898F898D8A95F1F7898F82E010
:1025C00062E040E00E949F0780E090E0A0E8BFE367
:1025D0008D8B9E8BAF8BB88F6D897E898F89988DFF
:1025E0002BEA3AEA4AE250E40E941F02DC01CB01E6
:1025F000898B9A8BAB8BBC8B69897A898B899C89F7
:1026000020E030E040E85FE30E94250488231CF4CA
:1026100081E0888B91C069897A898B899C8920E0C7
:1026200030E04FE753E40E94C50318160CF07BC05E
:102630006D897E898F89988D20E030E04AE754E4E7
:102640000E941903DC01CB018C879D87AE87BF8771
:102650006C857D858E859F8520E030E04AEF54E4CF
:102660000E941F02DC01CB0188879987AA87BB875C
:10267000688579858A859B8520E030E040E85FE3C6
:102680000E94250488232CF481E090E09F838E83B0
:102690003FC0688579858A859B8520E03FEF4FE7BD
:1026A00057E40E94C50318164CF56C857D858E8510
:1026B0009F8520E030E040E251E40E941F02DC01EF
:1026C000CB01BC01CD010E944900DC01CB019F83FD
:1026D0008E830FC088EC90E09D838C838C819D81DC
:1026E0000197F1F79D838C838E819F8101979F8352
:1026F0008E838E819F81009769F724C068857985D4
:102700008A859B850E944900DC01CB019F838E83D3
:102710008E819F819B838A838A819B810197F1F7B8
:102720009B838A830FC069897A898B899C890E94DF
:102730004900DC01CB01888B8889898389818A954E
:10274000F1F78983E1960FB6F894DEBF0FBECDBFD7
:10275000CF91DF910895DF93CF9300D000D0CDB714
:10276000DEB79C838B838B819C81009721F11A8239
:10277000198216C08A818F5F8A830EC08981282FB3
:1027800030E08B819C81FC01E20FF31F80810E946D
:10279000031289818F5F898399818A81981770F3E9
:1027A0008A81282F30E08B819C81FC01E20FF31F8E
:1027B00080818823F9F60F900F900F900F90CF91A2
:1027C000DF910895DF93CF9300D000D000D0CDB734
:1027D000DEB78A836B8381E089838A818230E0F46B
:1027E0008B818832C8F48A81282F30E03D832C8386
:1027F0008C819D81009731F02C813D812130310504
:1028000031F00BC08B8180580E945B1006C08B8119
:1028100080540E945B1001C0198226960FB6F8946E
:10282000DEBF0FBECDBFCF91DF910895DF93CF9371
:10283000CDB7DEB766970FB6F894DEBF0FBECDBF3B
:102840006B8B7C8B8D8B9E8B81E088878B899C89A1
:10285000AD89BE898C839D83AE83BF831B828AE052
:10286000898342C08C819D81AE81BF812AE030E0A6
:1028700040E050E0BC01CD010E942E26DC01CB01DE
:1028800088878C819D81AE81BF812AE030E040E065
:1028900050E0BC01CD010E942E26DA01C9018C83D3
:1028A0009D83AE83BF838885882359F48C819D8165
:1028B000AE81BF810097A105B10519F48B818823F2
:1028C000B9F48B818F5F8B838981882F90E09C0185
:1028D00021503040CE010996FC01E20FF31F88859C
:1028E00080838981815089838981882309F0BACFC7
:1028F0008AE09B81891B8A830FC08A81282F30E060
:10290000CE010996FC01E20FF31F8081805D0E94D9
:1029100003128A818F5F8A838A818A3070F3669678
:102920000FB6F894DEBF0FBECDBFCF91DF910895F3
:10293000DF93CF93CDB7DEB728970FB6F894DEBFFD
:102940000FBECDBF8A836B834C833E832D838A81E8
:10295000282F30E038872F838F8198858330910529
:10296000A9F12F813885243031057CF48F81988539
:102970008130910519F12F8138852230310514F508
:102980008F8198850097B1F034C02F81388525302C
:10299000310521F18F81988585309105DCF02F81FB
:1029A000388526303105F1F08F8198858730910583
:1029B000E9F01FC080E40E945B101BC088E40E9405
:1029C0005B1017C080E50E945B1013C088E50E9471
:1029D0005B100FC080E60E945B100BC088E60E946F
:1029E0005B1007C080E70E945B1003C088E70E946D
:1029F0005B1019820EC08981282F30E08D819E8165
:102A0000FC01E20FF31F80810E94031289818F5F16
:102A100089838981883078F38B816C810E94E213ED
:102A20008A810E94031228960FB6F894DEBF0FBE6B
:102A3000CDBFCF91DF910895DF93CF93CDB7DEB7B0
:102A40008CE10E945B10CF91DF910895DF93CF93CB
:102A5000CDB7DEB788E10E945B10CF91DF9108957A
:102A60000F931F93DF93CF93CDB7DEB7C757D040F7
:102A70000FB6F894DEBF0FBECDBFFE01EB58FF4F7F
:102A800091838083FE01E958FF4F6083FE01EB587C
:102A9000FF4F8081918121E08936920708F0ABC514
:102AA00081E080934401FE01EB58FF4F80819181CA
:102AB000CC01A0E0B0E0072E7BE0880F991FAA1F91
:102AC000BB1F7A95D1F7702D8E010F581F4F28E646
:102AD00031E040E050E0BC01CD010E942E26DA0139
:102AE000C901F80180839183A283B3839E012F588B
:102AF0003F4FFE01EF58FF4F80819181A281B3814A
:102B0000B695A79597958795B695A7959795879527
:102B1000F90180839183A283B383FE01E958FF4FBB
:102B20008081813009F011C310924301109242015B
:102B3000F7C282E063E041E00E949F0782E064E028
:102B400040E00E949F0782E065E040E00E949F070E
:102B500082E066E040E00E949F07FE01E359FF4FDC
:102B600080E090E0A0EAB0E480839183A283B38305
:102B70008E0107591F4FFE01E359FF4F608171819C
:102B80008281938120E030E04AEF54E40E941F02EA
:102B9000DC01CB01F80180839183A283B383FE0122
:102BA000E759FF4F608171818281938120E030E09D
:102BB00040E85FE30E942504882344F4FE01E959BC
:102BC000FF4F81E090E09183808364C0FE01E7596C
:102BD000FF4F608171818281938120E03FEF4FE759
:102BE00057E40E94C50318160CF043C0FE01E359D8
:102BF000FF4F608171818281938120E030E040E26B
:102C000051E40E941F02DC01CB018E0109591F4FC4
:102C1000BC01CD010E944900DC01CB01F801918388
:102C200080831FC0FE01EB59FF4F88EC90E0918339
:102C30008083FE01EB59FF4F808191810197F1F76D
:102C4000FE01EB59FF4F91838083DE01A959BF4FED
:102C5000FE01E959FF4F80819181019711969C9364
:102C60008E93FE01E959FF4F808191810097D1F643
:102C700027C08E0109591F4FFE01E759FF4F6081A0
:102C80007181828193810E944900DC01CB01F801AE
:102C900091838083DE01AD59BF4FFE01E959FF4F9B
:102CA000808191818D939C93FE01ED59FF4F80812E
:102CB00091810197F1F7FE01ED59FF4F91838083D8
:102CC00082E063E040E00E949F0782E064E041E030
:102CD0000E949F0782E065E040E00E949F0782E03B
:102CE00066E040E00E949F07FE01E15AFF4F80E04E
:102CF00090E0A0EAB0E480839183A283B3838E0145
:102D0000055A1F4FFE01E15AFF4F60817181828198
:102D1000938120E030E04AEF54E40E941F02DC017E
:102D2000CB01F80180839183A283B383FE01E55A2E
:102D3000FF4F608171818281938120E030E040E823
:102D40005FE30E942504882344F4FE01E75AFF4F05
:102D500081E090E09183808364C0FE01E55AFF4FDB
:102D6000608171818281938120E03FEF4FE757E4DA
:102D70000E94C50318160CF043C0FE01E15AFF4F34
:102D8000608171818281938120E030E040E251E4F2
:102D90000E941F02DC01CB018E01075A1F4FBC01AC
:102DA000CD010E944900DC01CB01F80191838083B1
:102DB0001FC0FE01E95AFF4F88EC90E091838083A9
:102DC000FE01E95AFF4F808191810197F1F7FE01E1
:102DD000E95AFF4F91838083DE01A75ABF4FFE015E
:102DE000E75AFF4F80819181019711969C938E93B2
:102DF000FE01E75AFF4F808191810097D1F627C0ED
:102E00008E01075A1F4FFE01E55AFF4F6081718105
:102E1000828193810E944900DC01CB01F8019183FA
:102E20008083DE01AB5ABF4FFE01E75AFF4F80811E
:102E300091818D939C93FE01EB5AFF4F808191818C
:102E40000197F1F7FE01EB5AFF4F9183808382E0F7
:102E500063E040E00E949F0782E064E040E00E945F
:102E60009F0782E065E041E00E949F0782E066E004
:102E700040E00E949F07FE01EF5AFF4F80E090E084
:102E8000A0EAB0E480839183A283B3838E01035BC5
:102E90001F4FFE01EF5AFF4F608171818281938144
:102EA00020E030E04AEF54E40E941F02DC01CB0135
:102EB000F80180839183A283B383FE01E35BFF4F1C
:102EC000608171818281938120E030E040E85FE39E
:102ED0000E942504882344F4FE01E55BFF4F81E056
:102EE00090E09183808364C0FE01E35BFF4F6081CB
:102EF00071818281938120E03FEF4FE757E40E9488
:102F0000C50318160CF043C0FE01EF5AFF4F608155
:102F100071818281938120E030E040E251E40E949F
:102F20001F02DC01CB018E01055B1F4FBC01CD01EF
:102F30000E944900DC01CB01F801918380831FC00E
:102F4000FE01E75BFF4F88EC90E091838083FE01F8
:102F5000E75BFF4F808191810197F1F7FE01E75B0D
:102F6000FF4F91838083DE01A55BBF4FFE01E55BD0
:102F7000FF4F80819181019711969C938E93FE0162
:102F8000E55BFF4F808191810097D1F627C08E01CC
:102F9000055B1F4FFE01E35BFF4F60817181828102
:102FA00093810E944900DC01CB01F8019183808369
:102FB000DE01A95BBF4FFE01E55BFF4F8081918180
:102FC0008D939C93FE01E95BFF4F80819181019776
:102FD000F1F7FE01E95BFF4F9183808382E063E0BC
:102FE00040E00E949F0782E064E040E00E949F076B
:102FF00082E065E040E00E949F0782E066E041E0F9
:103000000E949F07FE01ED5BFF4F80E090E0A0EA89
:10301000B0E480839183A283B3838E01015C1F4F50
:10302000FE01ED5BFF4F608171818281938120E021
:1030300030E04AEF54E40E941F02DC01CB01F801AA
:1030400080839183A283B383FE01FF9660817181A7
:103050008281938120E030E040E85FE30E94250414
:1030600088232CF481E090E09EAF8DAF46C0FE0136
:10307000FF96608171818281938120E03FEF4FE76D
:1030800057E40E94C503181664F5FE01ED5BFF4F7F
:10309000608171818281938120E030E040E251E4DF
:1030A0000E941F02DC01CB01BC01CD010E9449003E
:1030B000DC01CB019EAF8DAF0FC088EC90E09CAFE0
:1030C0008BAF8BAD9CAD0197F1F79CAF8BAF8DAD06
:1030D0009EAD01979EAF8DAF8DAD9EAD009769F708
:1030E00016C0FE01FF9660817181828193810E94EA
:1030F0004900DC01CB019EAF8DAF8DAD9EAD9AAF87
:1031000089AF89AD9AAD0197F1F79AAF89AF8091F8
:1031100042019091430101969093430180934201B3
:1031200080914201909143019C0140E050E0FE01FA
:10313000EF58FF4F80819181A281B3812817390711
:103140004A075B0708F4F5CC41C2FE01E958FF4F7E
:103150008081882309F03AC2109243011092420103
:1031600021C282E063E040E00E949F0782E064E0C9
:1031700040E00E949F0782E065E040E00E949F07D8
:1031800082E066E041E00E949F0780E090E0A0EAD4
:10319000B0E48DAB9EABAFABB8AF6DA97EA98FA9E4
:1031A00098AD20E030E04AEF54E40E941F02DC01B9
:1031B000CB0189AB9AABABABBCAB69A97AA98BA9A4
:1031C0009CA920E030E040E85FE30E9425048823CA
:1031D0002CF481E090E098AB8FA73FC069A97AA951
:1031E0008BA99CA920E03FEF4FE757E40E94C5035D
:1031F00018164CF56DA97EA98FA998AD20E030E096
:1032000040E251E40E941F02DC01CB01BC01CD0170
:103210000E944900DC01CB0198AB8FA70FC088EC5E
:1032200090E09EA78DA78DA59EA50197F1F79EA77B
:103230008DA78FA598A9019798AB8FA78FA598A95F
:10324000009769F714C069A97AA98BA99CA90E9463
:103250004900DC01CB0198AB8FA78FA598A99CA74B
:103260008BA78BA59CA50197F1F79CA78BA782E064
:1032700063E040E00E949F0782E064E040E00E943B
:103280009F0782E065E041E00E949F0782E066E0E0
:1032900040E00E949F0780E090E0A0EAB0E48FA3A6
:1032A00098A7A9A7BAA76FA178A589A59AA520E094
:1032B00030E04AEF54E40E941F02DC01CB018BA3F3
:1032C0009CA3ADA3BEA36BA17CA18DA19EA120E078
:1032D00030E040E85FE30E94250488232CF481E07D
:1032E00090E09AA389A33FC06BA17CA18DA19EA170
:1032F00020E03FEF4FE757E40E94C50318164CF556
:103300006FA178A589A59AA520E030E040E251E4BC
:103310000E941F02DC01CB01BC01CD010E944900CB
:10332000DC01CB019AA389A30FC088EC90E098A39D
:103330008F8F8F8D98A10197F1F798A38F8F89A117
:103340009AA101979AA389A389A19AA1009769F7E5
:1033500014C06BA17CA18DA19EA10E944900DC013B
:10336000CB019AA389A389A19AA19E8F8D8F8D8D60
:103370009E8D0197F1F79E8F8D8F82E063E040E094
:103380000E949F0782E064E041E00E949F0782E084
:1033900065E040E00E949F0782E066E040E00E9416
:1033A0009F0780E090E0A0EAB0E4898F9A8FAB8F0E
:1033B000BC8F698D7A8D8B8D9C8D20E030E04AEF3B
:1033C00054E40E941F02DC01CB018D8B9E8BAF8BDE
:1033D000B88F6D897E898F89988D20E030E040E834
:1033E0005FE30E94250488232CF481E090E09C8B0D
:1033F0008B8B3FC06D897E898F89988D20E03FEF50
:103400004FE757E40E94C50318164CF5698D7A8D75
:103410008B8D9C8D20E030E040E251E40E941F0241
:10342000DC01CB01BC01CD010E944900DC01CB01D4
:103430009C8B8B8B0FC088EC90E09A8B898B898951
:103440009A890197F1F79A8B898B8B899C890197CF
:103450009C8B8B8B8B899C89009769F714C06D8935
:103460007E898F89988D0E944900DC01CB019C8B5D
:103470008B8B8B899C89988B8F878F8598890197F7
:10348000F1F7988B8F8782E063E041E00E949F070D
:1034900082E064E040E00E949F0782E065E040E057
:1034A0000E949F0782E066E040E00E949F0780E064
:1034B00090E0A0EAB0E48B879C87AD87BE876B85E0
:1034C0007C858D859E8520E030E04AEF54E40E94A3
:1034D0001F02DC01CB018F839887A987BA876F8190
:1034E000788589859A8520E030E040E85FE30E9496
:1034F000250488232CF481E090E09E838D833FC0D7
:103500006F81788589859A8520E03FEF4FE757E402
:103510000E94C50318164CF56B857C858D859E85AC
:1035200020E030E040E251E40E941F02DC01CB01C8
:10353000BC01CD010E944900DC01CB019E838D833B
:103540000FC088EC90E09C838B838B819C810197DA
:10355000F1F79C838B838D819E8101979E838D8360
:103560008D819E81009769F714C06F817885898568
:103570009A850E944900DC01CB019E838D838D8159
:103580009E819A83898389819A810197F1F79A8331
:103590008983809142019091430101969093430168
:1035A0008093420180914201909143019C0140E04F
:1035B00050E0FE01EF58FF4F80819181A281B381DD
:1035C000281739074A075B0708F4CBCD82E063E090
:1035D00040E00E949F0782E064E040E00E949F0775
:1035E00082E065E040E00E949F0782E066E040E004
:1035F0000E949F0702C01092440180914401C95863
:10360000DF4F0FB6F894DEBF0FBECDBFCF91DF9175
:103610001F910F910895DF93CF93CDB7DEB782E06E
:1036200063E040E00E949F0782E064E040E00E9487
:103630009F0782E065E040E00E949F0782E066E02D
:1036400040E00E949F07CF91DF910895DF93CF93D1
:103650000F92CDB7DEB789838981882359F480E042
:1036600061E040E00E949F0780E060E041E00E944E
:103670009F070DC08981813051F480E060E040E017
:103680000E949F0780E061E041E00E949F070F9049
:10369000CF91DF910895DF93CF93CDB7DEB780E070
:1036A00060E040E00E949F0780E061E040E00E940F
:1036B0009F07CF91DF9108950F931F93DF93CF93CF
:1036C000CDB7DEB7CB58D0400FB6F894DEBF0FBEF3
:1036D000CDBFFE01E058FF4F1082FE01E158FF4FC1
:1036E0001082FE01E258FF4F1082FE01E358FF4FA7
:1036F0001082FE01E458FF4F1082FE01E558FF4F93
:103700001082FE01E658FF4F1082FE01E858FF4F7D
:1037100084E19AE091838083FE01EC58FF4F11828F
:103720001082FE01EE58FF4F118210820E944F0658
:103730000E94880C80E690E00E94AB1381E064E078
:103740000E94E213CE018F579F4F0E94160BFE017D
:10375000EF57FF4F80818F3FA9F3FE01E158FF4FE4
:103760008081843008F011C2DE01A158BF4FFE01F4
:10377000E158FF4F80818F5F8C93FE01EF57FF4F21
:103780008081282F30E0C657DF4F39832883CA58FD
:10379000D040C657DF4F88819981CA58D0408433C2
:1037A000910509F40FC1C657DF4FE881F981CA5866
:1037B000D040E533F1059CF5C657DF4F28813981AC
:1037C000CA58D0402133310509F48AC0C657DF4FAB
:1037D00088819981CA58D040823391055CF4C657DC
:1037E000DF4FE881F981CA58D040E033F10509F490
:1037F00053C0CBC1C657DF4F28813981CA58D0404A
:103800002233310509F492C0C657DF4F8881998170
:10381000CA58D0408333910509F4AEC0B6C1C6572B
:10382000DF4FE881F981CA58D040E733F10509F448
:103830003BC1C657DF4F28813981CA58D040283351
:103840003105ACF4C657DF4F88819981CA58D04002
:103850008533910509F4DCC0C657DF4FE881F98153
:10386000CA58D040E633F10509F4F8C08EC1C657F6
:10387000DF4F28813981CA58D0402833310509F4F7
:1038800039C1C657DF4F88819981CA58D0408933E2
:10389000910509F455C179C1FE01EA58FF4F118223
:1038A0001082FE01EC58FF4F808191819C01220F14
:1038B000331FC901880F991F880F991F280F391FBF
:1038C000DE01AC58BF4FFE01EA58FF4F8081918165
:1038D000820F931F8D939C938AE20E94031255C11D
:1038E000FE01EA58FF4F81E090E091838083FE0162
:1038F000EC58FF4F808191819C01220F331FC90139
:10390000880F991F880F991F280F391FDE01AC58A7
:10391000BF4FFE01EA58FF4F80819181820F931FB4
:103920008D939C938AE20E9403122FC1FE01EA58F4
:10393000FF4F82E090E091838083FE01EC58FF4FBF
:10394000808191819C01220F331FC901880F991F2B
:10395000880F991F280F391FDE01AC58BF4FFE0199
:10396000EA58FF4F80819181820F931F8D939C9322
:103970008AE20E94031209C1FE01EA58FF4F83E068
:1039800090E091838083FE01EC58FF4F808191810C
:103990009C01220F331FC901880F991F880F991F9F
:1039A000280F391FDE01AC58BF4FFE01EA58FF4F08
:1039B00080819181820F931F8D939C938AE20E9454
:1039C0000312E3C0FE01EA58FF4F84E090E09183C8
:1039D0008083FE01EC58FF4F808191819C01220F72
:1039E000331FC901880F991F880F991F280F391F8E
:1039F000DE01AC58BF4FFE01EA58FF4F8081918134
:103A0000820F931F8D939C938AE20E940312BDC084
:103A1000FE01EA58FF4F85E090E091838083FE012C
:103A2000EC58FF4F808191819C01220F331FC90107
:103A3000880F991F880F991F280F391FDE01AC5876
:103A4000BF4FFE01EA58FF4F80819181820F931F83
:103A50008D939C938AE20E94031297C0FE01EA585C
:103A6000FF4F86E090E091838083FE01EC58FF4F8A
:103A7000808191819C01220F331FC901880F991FFA
:103A8000880F991F280F391FDE01AC58BF4FFE0168
:103A9000EA58FF4F80819181820F931F8D939C93F1
:103AA0008AE20E94031271C0FE01EA58FF4F87E0CC
:103AB00090E091838083FE01EC58FF4F80819181DB
:103AC0009C01220F331FC901880F991F880F991F6E
:103AD000280F391FDE01AC58BF4FFE01EA58FF4FD7
:103AE00080819181820F931F8D939C938AE20E9423
:103AF00003124BC0FE01EA58FF4F88E090E091832B
:103B00008083FE01EC58FF4F808191819C01220F40
:103B1000331FC901880F991F880F991F280F391F5C
:103B2000DE01AC58BF4FFE01EA58FF4F8081918102
:103B3000820F931F8D939C938AE20E94031225C0EB
:103B4000FE01EA58FF4F89E090E091838083FE01F7
:103B5000EC58FF4F808191819C01220F331FC901D6
:103B6000880F991F880F991F280F391FDE01AC5845
:103B7000BF4FFE01EA58FF4F80819181820F931F52
:103B80008D939C938AE20E940312FE01E158FF4F3D
:103B90008081843008F4D6CDFE01EC58FF4FDE0161
:103BA000A858BF4F208131818D919C911197281782
:103BB000390709F046C6FE01E359FF4F80E090E067
:103BC000AAE7B4E480839183A283B3838E0107596B
:103BD0001F4FFE01E359FF4F608171818281938104
:103BE00020E030E04AEF54E40E941F02DC01CB01E8
:103BF000F80180839183A283B383FE01E759FF4FCD
:103C0000608171818281938120E030E040E85FE350
:103C10000E942504882344F4FE01E959FF4F81E006
:103C200090E09183808364C0FE01E759FF4F60817B
:103C300071818281938120E03FEF4FE757E40E943A
:103C4000C50318160CF043C0FE01E359FF4F608115
:103C500071818281938120E030E040E251E40E9452
:103C60001F02DC01CB018E0109591F4FBC01CD01A0
:103C70000E944900DC01CB01F801918380831FC0C1
:103C8000FE01EB59FF4F88EC90E091838083FE01A9
:103C9000EB59FF4F808191810197F1F7FE01EB59BC
:103CA000FF4F91838083DE01A959BF4FFE01E9597F
:103CB000FF4F80819181019711969C938E93FE0115
:103CC000E959FF4F808191810097D1F627C08E017D
:103CD00009591F4FFE01E759FF4F608171818281B1
:103CE00093810E944900DC01CB01F801918380831C
:103CF000DE01AD59BF4FFE01E959FF4F808191812F
:103D00008D939C93FE01ED59FF4F80819181019726
:103D1000F1F7FE01ED59FF4F918380830E944B0F15
:103D20000E94D30F81E790E00E94AB1381E063E033
:103D30000E94E21382E890E00E94AB13FE01E15A78
:103D4000FF4F80E090E0AAEFB4E480839183A283E8
:103D5000B3838E01055A1F4FFE01E15AFF4F608168
:103D600071818281938120E030E04AEF54E40E9427
:103D70001F02DC01CB01F80180839183A283B3830E
:103D8000FE01E55AFF4F608171818281938120E0BD
:103D900030E040E85FE30E942504882344F4FE01FC
:103DA000E75AFF4F81E090E09183808364C0FE0179
:103DB000E55AFF4F608171818281938120E03FEF5E
:103DC0004FE757E40E94C50318160CF043C0FE01EC
:103DD000E15AFF4F608171818281938120E030E060
:103DE00040E251E40E941F02DC01CB018E01075A20
:103DF0001F4FBC01CD010E944900DC01CB01F8013D
:103E0000918380831FC0FE01E95AFF4F88EC90E048
:103E100091838083FE01E95AFF4F80819181019750
:103E2000F1F7FE01E95AFF4F91838083DE01A75A23
:103E3000BF4FFE01E75AFF4F808191810197119694
:103E40009C938E93FE01E75AFF4F808191810097EA
:103E5000D1F627C08E01075A1F4FFE01E55AFF4FCA
:103E600060817181828193810E944900DC01CB01D4
:103E7000F80191838083DE01AB5ABF4FFE01E75A00
:103E8000FF4F808191818D939C93FE01EB5AFF4FF0
:103E9000808191810197F1F7FE01EB5AFF4F9183E9
:103EA00080830E944B0F8DE890E00E94AB1381E06D
:103EB00060E00E94E2138EE990E00E94AB13CE0115
:103EC0008F579F4F0E94160BFE01EF57FF4F8081C7
:103ED0008F3F09F49BC40E944B0FFE01EF57FF4F29
:103EE0008081282F30E0C857DF4F39832883C85896
:103EF000D040C857DF4F88819981C858D04082335D
:103F0000910509F492C0C857DF4FE881F981C8587C
:103F1000D040E333F10509F46EC4C857DF4F288160
:103F20003981C858D0402133310509F06FC4FE01F2
:103F3000EA58FF4F81E090E0918380838DEA90E022
:103F40000E94AB1381E060E00E94E21389EB90E0F5
:103F50000E94AB13CE018F579F4F0E94160BFE019C
:103F6000EF57FF4F80818F3F99F1FE01EF57FF4FD1
:103F70008081E82FF0E0CA57DF4FF983E883C65805
:103F8000D040CA57DF4F28813981C658D0402133ED
:103F9000310551F0CA57DF4F88819981C658D0400A
:103FA0008233910559F014C0FE01E658FF4F10828C
:103FB000FE01E558FF4F81E080830AC0FE01E6580C
:103FC000FF4F81E08083FE01E558FF4F81E0808351
:103FD000FE01E558FF4F8081813009F0BBCFFE0123
:103FE000E558FF4F1082FE01E658FF4F80810E9486
:103FF000261B0E944B0F87EC90E00E94AB1381E0E0
:1040000060E00E94E21384ED90E00E94AB13CE01C9
:104010008F579F4F0E94160BFE01EF57FF4F808175
:104020008F3FA9F30E944B1B3CCFFE01EA58FF4F84
:1040300082E090E091838083FE01EE58FF4F118271
:1040400010820E944B0F82EE90E00E94AB13CE01D3
:104050008F579F4F0E94160BFE01EF57FF4F808135
:104060008F3F09F4C1C3FE01EF57FF4F8081E82F56
:10407000F0E0CC57DF4FF983E883C458D040CC57E9
:10408000DF4F28813981C458D0402533310509F4E8
:104090003FC1CC57DF4F88819981C458D0408633C7
:1040A0009105ECF5CC57DF4FE881F981C458D04039
:1040B000E233F10509F4BAC0CC57DF4F28813981CA
:1040C000C458D04023333105ACF4CC57DF4F88813E
:1040D0009981C458D0408033910509F45DC0CC5714
:1040E000DF4FE881F981C458D040E133F10509F48C
:1040F00077C07AC3CC57DF4F28813981C458D0406C
:104100002333310509F4B8C0CC57DF4F888199813A
:10411000C458D0408433910509F4D4C065C3CC574A
:10412000DF4FE881F981C458D040E833F10509F444
:1041300061C1CC57DF4F28813981C458D040293321
:104140003105ACF4CC57DF4F88819981C458D040F9
:104150008633910509F402C1CC57DF4FE881F9811C
:10416000C458D040E733F10509F41EC13DC3CC5714
:10417000DF4F28813981C458D0402933310509F4F3
:104180005FC1CC57DF4F88819981C458D0408D33AF
:10419000910509F47BC128C3FE01EA58FF4F118243
:1041A0001082FE01EE58FF4F808191819C01220F09
:1041B000331FC901880F991F880F991F280F391FB6
:1041C000DE01AE58BF4FFE01EA58FF4F808191815A
:1041D000820F931F8D939C9380E30E94031204C36C
:1041E000FE01EA58FF4F81E090E091838083FE0159
:1041F000EE58FF4F808191819C01220F331FC9012E
:10420000880F991F880F991F280F391FDE01AE589C
:10421000BF4FFE01EA58FF4F80819181820F931FAB
:104220008D939C9381E30E940312DEC2FE01EA5843
:10423000FF4F82E090E091838083FE01EE58FF4FB4
:10424000808191819C01220F331FC901880F991F22
:10425000880F991F280F391FDE01AE58BF4FFE018E
:10426000EA58FF4F80819181820F931F8D939C9319
:1042700082E30E940312B8C2FE01EA58FF4F83E0B6
:1042800090E091838083FE01EE58FF4F8081918101
:104290009C01220F331FC901880F991F880F991F96
:1042A000280F391FDE01AE58BF4FFE01EA58FF4FFD
:1042B00080819181820F931F8D939C9383E30E9451
:1042C000031292C2FE01EA58FF4F84E090E091830E
:1042D0008083FE01EE58FF4F808191819C01220F67
:1042E000331FC901880F991F880F991F280F391F85
:1042F000DE01AE58BF4FFE01EA58FF4F8081918129
:10430000820F931F8D939C9384E30E9403126CC2CF
:10431000FE01EA58FF4F85E090E091838083FE0123
:10432000EE58FF4F808191819C01220F331FC901FC
:10433000880F991F880F991F280F391FDE01AE586B
:10434000BF4FFE01EA58FF4F80819181820F931F7A
:104350008D939C9385E30E94031246C2FE01EA58A6
:10436000FF4F86E090E091838083FE01EE58FF4F7F
:10437000808191819C01220F331FC901880F991FF1
:10438000880F991F280F391FDE01AE58BF4FFE015D
:10439000EA58FF4F80819181820F931F8D939C93E8
:1043A00086E30E94031220C2FE01EA58FF4F87E015
:1043B00090E091838083FE01EE58FF4F80819181D0
:1043C0009C01220F331FC901880F991F880F991F65
:1043D000280F391FDE01AE58BF4FFE01EA58FF4FCC
:1043E00080819181820F931F8D939C9387E30E941C
:1043F0000312FAC1FE01EA58FF4F88E090E0918372
:104400008083FE01EE58FF4F808191819C01220F35
:10441000331FC901880F991F880F991F280F391F53
:10442000DE01AE58BF4FFE01EA58FF4F80819181F7
:10443000820F931F8D939C9388E30E940312D4C133
:10444000FE01EA58FF4F89E090E091838083FE01EE
:10445000EE58FF4F808191819C01220F331FC901CB
:10446000880F991F880F991F280F391FDE01AE583A
:10447000BF4FFE01EA58FF4F80819181820F931F49
:104480008D939C9389E30E940312AEC1FE01E35811
:10449000FF4F81E080838FED0E940312FE01EF5AEF
:1044A000FF4F80E090E0AAE7B4E480839183A28389
:1044B000B3838E01035B1F4FFE01EF5AFF4F6081F4
:1044C00071818281938120E030E04AEF54E40E94C0
:1044D0001F02DC01CB01F80180839183A283B383A7
:1044E000FE01E35BFF4F608171818281938120E057
:1044F00030E040E85FE30E942504882344F4FE0195
:10450000E55BFF4F81E090E09183808364C0FE0112
:10451000E35BFF4F608171818281938120E03FEFF7
:104520004FE757E40E94C50318160CF043C0FE0184
:10453000EF5AFF4F608171818281938120E030E0EA
:1045400040E251E40E941F02DC01CB018E01055BB9
:104550001F4FBC01CD010E944900DC01CB01F801D5
:10456000918380831FC0FE01E75BFF4F88EC90E0E2
:1045700091838083FE01E75BFF4F808191810197EA
:10458000F1F7FE01E75BFF4F91838083DE01A55BBE
:10459000BF4FFE01E55BFF4F80819181019711962E
:1045A0009C938E93FE01E55BFF4F80819181009784
:1045B000D1F627C08E01055B1F4FFE01E35BFF4F65
:1045C00060817181828193810E944900DC01CB016D
:1045D000F80191838083DE01A95BBF4FFE01E55B9B
:1045E000FF4F808191818D939C93FE01E95BFF4F8A
:1045F000808191810197F1F7FE01E95BFF4F918383
:1046000080830E944B0FFE01EE58FF4F8081918105
:10461000F1E089369F0708F496C08BEE90E00E9487
:10462000AB1381E060E00E94E21386EF90E00E940D
:10463000AB13FE01ED5BFF4F80E090E8ABEBB4E421
:1046400080839183A283B3838E01015C1F4FFE019F
:10465000ED5BFF4F608171818281938120E030E0CA
:104660004AEF54E40E941F02DC01CB01F801808371
:104670009183A283B383FE01FF9660817181828161
:10468000938120E030E040E85FE30E942504882326
:104690002CF481E090E09EAF8DAF46C0FE01FF9606
:1046A000608171818281938120E03FEF4FE757E481
:1046B0000E94C503181664F5FE01ED5BFF4F608193
:1046C00071818281938120E030E040E251E40E94D8
:1046D0001F02DC01CB01BC01CD010E944900DC01BD
:1046E000CB019EAF8DAF0FC088EC90E09CAF8BAF3D
:1046F0008BAD9CAD0197F1F79CAF8BAF8DAD9EADAF
:1047000001979EAF8DAF8DAD9EAD009769F716C036
:10471000FE01FF9660817181828193810E94490030
:10472000DC01CB019EAF8DAF8DAD9EAD9AAF89AF51
:1047300089AD9AAD0197F1F79AAF89AFFE01E358C1
:10474000FF4F108272CC8DEA90E00E94AB1381E0A3
:1047500060E00E94E21389EB90E00E94AB13CE016F
:104760008F579F4F0E94160BFE01EF57FF4F80811E
:104770008F3F99F1FE01EF57FF4F8081282F30E0E6
:10478000CE57DF4F39832883C258D040CE57DF4FF2
:1047900088819981C258D0408133910551F0CE571C
:1047A000DF4FE881F981C258D040E233F10559F07A
:1047B00014C0FE01E658FF4F1082FE01E458FF4F7F
:1047C00081E080830AC0FE01E658FF4F81E08083CC
:1047D000FE01E458FF4F81E08083FE01E458FF4F63
:1047E0008081813009F0BBCFFE01E358FF4F80810B
:1047F000813061F02CCCFE01E158FF4F1082FE01A8
:10480000EC58FF4F118210820C94981BFE01E35864
:10481000FF4F8081813009F052CBFE01EE58FF4FEF
:1048200080819181FE01E658FF4F60810E94301522
:10483000FE01E358FF4F1082FE01E458FF4F108243
:1048400030CBFE01E258FF4F8081823008F090C0EB
:1048500080E090E0AAE7B4E48DAB9EABAFABB8AF1D
:104860006DA97EA98FA998AD20E030E04AEF54E40D
:104870000E941F02DC01CB0189AB9AABABABBCAB96
:1048800069A97AA98BA99CA920E030E040E85FE300
:104890000E94250488232CF481E090E098AB8FA738
:1048A0003FC069A97AA98BA99CA920E03FEF4FE7F7
:1048B00057E40E94C50318164CF56DA97EA98FA96F
:1048C00098AD20E030E040E251E40E941F02DC019C
:1048D000CB01BC01CD010E944900DC01CB0198ABAA
:1048E0008FA70FC088EC90E09EA78DA78DA59EA5F1
:1048F0000197F1F79EA78DA78FA598A9019798AB6F
:104900008FA78FA598A9009769F714C069A97AA9FC
:104910008BA99CA90E944900DC01CB0198AB8FA711
:104920008FA598A99CA78BA78BA59CA50197F1F7AC
:104930009CA78BA70E94880C84E091E00E94AB1397
:10494000FE01E158FF4F1082FE01EC58FF4F11822B
:104950001082DE01A258BF4FFE01E258FF4F808156
:104960008F5F8C9381E064E00E94E2130C94A21BA1
:1049700080E090E0AAE7B4E48FA398A7A9A7BAA71C
:104980006FA178A589A59AA520E030E04AEF54E40C
:104990000E941F02DC01CB018BA39CA3ADA3BEA38D
:1049A0006BA17CA18DA19EA120E030E040E85FE3F7
:1049B0000E94250488232CF481E090E09AA389A327
:1049C0003FC06BA17CA18DA19EA120E03FEF4FE7EE
:1049D00057E40E94C50318164CF56FA178A589A568
:1049E0009AA520E030E040E251E40E941F02DC0181
:1049F000CB01BC01CD010E944900DC01CB019AA38F
:104A000089A30FC088EC90E098A38F8F8F8D98A119
:104A10000197F1F798A38F8F89A19AA101979AA383
:104A200089A389A19AA1009769F714C06BA17CA101
:104A30008DA19EA10E944900DC01CB019AA389A30C
:104A400089A19AA19E8F8D8F8D8D9E8D0197F1F7F3
:104A50009E8F8D8F0E944B0F0E94D30F81E191E0BA
:104A60000E94AB13FE01EF58FF4F108280E066E01A
:104A700040E00E949F0780E090E0AAEFB3E4898FB6
:104A80009A8FAB8FBC8F698D7A8D8B8D9C8D20E03A
:104A900030E04AEF54E40E941F02DC01CB018D8B11
:104AA0009E8BAF8BB88F6D897E898F89988D20E022
:104AB00030E040E85FE30E94250488232CF481E085
:104AC00090E09C8B8B8B3FC06D897E898F89988D00
:104AD00020E03FEF4FE757E40E94C50318164CF55E
:104AE000698D7A8D8B8D9C8D20E030E040E251E421
:104AF0000E941F02DC01CB01BC01CD010E944900D4
:104B0000DC01CB019C8B8B8B0FC088EC90E09A8BE7
:104B1000898B89899A890197F1F79A8B898B8B897F
:104B20009C8901979C8B8B8B8B899C89009769F75B
:104B300014C06D897E898F89988D0E944900DC019F
:104B4000CB019C8B8B8B8B899C89988B8F878F85D6
:104B500098890197F1F7988B8F8780E066E041E0B4
:104B60000E949F0780E090E0AAEFB3E48B879C87C8
:104B7000AD87BE876B857C858D859E8520E030E086
:104B80004AEF54E40E941F02DC01CB018F83988717
:104B9000A987BA876F81788589859A8520E030E07A
:104BA00040E85FE30E94250488232CF481E090E034
:104BB0009E838D833FC06F81788589859A8520E0AB
:104BC0003FEF4FE757E40E94C50318164CF56B857D
:104BD0007C858D859E8520E030E040E251E40E9496
:104BE0001F02DC01CB01BC01CD010E944900DC01A8
:104BF000CB019E838D830FC088EC90E09C838B83D8
:104C00008B819C810197F1F79C838B838D819E81A1
:104C100001979E838D838D819E81009769F714C0D3
:104C20006F81788589859A850E944900DC01CB01D6
:104C30009E838D838D819E819A83898389819A81C8
:104C40000197F1F79A838983DE01AF58BF4FFE01C8
:104C5000EF58FF4F80818F5F8C9308CFA1E21A2E0F
:104C6000AA1BBB1BFD010DC0AA1FBB1FEE1FFF1F10
:104C7000A217B307E407F50720F0A21BB30BE40B60
:104C8000F50B661F771F881F991F1A9469F76095A7
:104C90007095809590959B01AC01BD01CF01089561
:104CA0002F923F924F925F926F927F928F929F923C
:104CB000AF92BF92CF92DF92EF92FF920F931F932A
:104CC000CF93DF93CDB7DEB7CA1BDB0B0FB6F894DB
:104CD000DEBF0FBECDBF09942A88398848885F841B
:104CE0006E847D848C849B84AA84B984C884DF808C
:104CF000EE80FD800C811B81AA81B981CE0FD11D70
:104D00000FB6F894DEBF0FBECDBFED010895F89445
:024D1000FFCFD3
:104D1200456E7465722050617373636F6465203AE7
:104D22000057656C636F6D6520746F204D6F746FF3
:104D320072004461736820426F61726400312D44D5
:104D4200434D6F746F7220332D4578697400322D94
:104D5200537465707065724D6F746F72004469723E
:104D6200656374696F6E3A2000312D43572020200D
:104D720020322D4343570020202050726573732048
:104D8200616E790020204B657920746F2053746F17
:104D92007000416E676C65203A200052652D656E89
:104DA200746572206100436F727265637420416E94
:104DB200676C6500202054727920416761696E201A
:104DC20000204F7574206F6620747269657320210C
:104DD2000000000000000000003132332B34353671
:104DE2002D3738392A303D2F2500010203040506EC
:024DF2000700B8
:00000001FF
